{
  "_format": "hh-sol-artifact-1",
  "contractName": "MintModule",
  "sourceName": "contracts/mint.sol",
  "abi": [
    {
      "inputs": [
        {
          "internalType": "int24",
          "name": "leftPt",
          "type": "int24"
        },
        {
          "internalType": "int24",
          "name": "rightPt",
          "type": "int24"
        },
        {
          "internalType": "uint128",
          "name": "liquidDelta",
          "type": "uint128"
        }
      ],
      "name": "burn",
      "outputs": [
        {
          "internalType": "uint256",
          "name": "amountX",
          "type": "uint256"
        },
        {
          "internalType": "uint256",
          "name": "amountY",
          "type": "uint256"
        }
      ],
      "stateMutability": "nonpayable",
      "type": "function"
    },
    {
      "inputs": [
        {
          "internalType": "address",
          "name": "recipient",
          "type": "address"
        },
        {
          "internalType": "int24",
          "name": "leftPt",
          "type": "int24"
        },
        {
          "internalType": "int24",
          "name": "rightPt",
          "type": "int24"
        },
        {
          "internalType": "uint256",
          "name": "amountXLim",
          "type": "uint256"
        },
        {
          "internalType": "uint256",
          "name": "amountYLim",
          "type": "uint256"
        }
      ],
      "name": "collect",
      "outputs": [
        {
          "internalType": "uint256",
          "name": "actualAmountX",
          "type": "uint256"
        },
        {
          "internalType": "uint256",
          "name": "actualAmountY",
          "type": "uint256"
        }
      ],
      "stateMutability": "nonpayable",
      "type": "function"
    },
    {
      "inputs": [],
      "name": "factory",
      "outputs": [
        {
          "internalType": "address",
          "name": "",
          "type": "address"
        }
      ],
      "stateMutability": "view",
      "type": "function"
    },
    {
      "inputs": [],
      "name": "fee",
      "outputs": [
        {
          "internalType": "uint24",
          "name": "",
          "type": "uint24"
        }
      ],
      "stateMutability": "view",
      "type": "function"
    },
    {
      "inputs": [],
      "name": "feeScaleX_128",
      "outputs": [
        {
          "internalType": "uint256",
          "name": "",
          "type": "uint256"
        }
      ],
      "stateMutability": "view",
      "type": "function"
    },
    {
      "inputs": [],
      "name": "feeScaleY_128",
      "outputs": [
        {
          "internalType": "uint256",
          "name": "",
          "type": "uint256"
        }
      ],
      "stateMutability": "view",
      "type": "function"
    },
    {
      "inputs": [],
      "name": "leftMostPt",
      "outputs": [
        {
          "internalType": "int24",
          "name": "",
          "type": "int24"
        }
      ],
      "stateMutability": "view",
      "type": "function"
    },
    {
      "inputs": [
        {
          "internalType": "int24",
          "name": "",
          "type": "int24"
        }
      ],
      "name": "limitOrderData",
      "outputs": [
        {
          "internalType": "uint256",
          "name": "sellingX",
          "type": "uint256"
        },
        {
          "internalType": "uint256",
          "name": "accEarnX",
          "type": "uint256"
        },
        {
          "internalType": "uint256",
          "name": "sellingY",
          "type": "uint256"
        },
        {
          "internalType": "uint256",
          "name": "accEarnY",
          "type": "uint256"
        },
        {
          "internalType": "uint256",
          "name": "earnX",
          "type": "uint256"
        },
        {
          "internalType": "uint256",
          "name": "earnY",
          "type": "uint256"
        }
      ],
      "stateMutability": "view",
      "type": "function"
    },
    {
      "inputs": [
        {
          "internalType": "bytes32",
          "name": "",
          "type": "bytes32"
        }
      ],
      "name": "liquidities",
      "outputs": [
        {
          "internalType": "uint128",
          "name": "liquidity",
          "type": "uint128"
        },
        {
          "internalType": "uint256",
          "name": "lastFeeScaleX_128",
          "type": "uint256"
        },
        {
          "internalType": "uint256",
          "name": "lastFeeScaleY_128",
          "type": "uint256"
        },
        {
          "internalType": "uint256",
          "name": "remainFeeX",
          "type": "uint256"
        },
        {
          "internalType": "uint256",
          "name": "remainFeeY",
          "type": "uint256"
        }
      ],
      "stateMutability": "view",
      "type": "function"
    },
    {
      "inputs": [],
      "name": "maxLiquidPt",
      "outputs": [
        {
          "internalType": "uint128",
          "name": "",
          "type": "uint128"
        }
      ],
      "stateMutability": "view",
      "type": "function"
    },
    {
      "inputs": [
        {
          "internalType": "address",
          "name": "recipient",
          "type": "address"
        },
        {
          "internalType": "int24",
          "name": "leftPt",
          "type": "int24"
        },
        {
          "internalType": "int24",
          "name": "rightPt",
          "type": "int24"
        },
        {
          "internalType": "uint128",
          "name": "liquidDelta",
          "type": "uint128"
        },
        {
          "internalType": "bytes",
          "name": "data",
          "type": "bytes"
        }
      ],
      "name": "mint",
      "outputs": [
        {
          "internalType": "uint128",
          "name": "amountX",
          "type": "uint128"
        },
        {
          "internalType": "uint128",
          "name": "amountY",
          "type": "uint128"
        }
      ],
      "stateMutability": "nonpayable",
      "type": "function"
    },
    {
      "inputs": [
        {
          "internalType": "uint256",
          "name": "",
          "type": "uint256"
        }
      ],
      "name": "observations",
      "outputs": [
        {
          "internalType": "uint32",
          "name": "timestamp",
          "type": "uint32"
        },
        {
          "internalType": "int56",
          "name": "pointCumulative",
          "type": "int56"
        },
        {
          "internalType": "uint160",
          "name": "secondsPerLiquidityCumulative_128",
          "type": "uint160"
        },
        {
          "internalType": "bool",
          "name": "init",
          "type": "bool"
        }
      ],
      "stateMutability": "view",
      "type": "function"
    },
    {
      "inputs": [
        {
          "internalType": "int24",
          "name": "",
          "type": "int24"
        }
      ],
      "name": "orderOrEndpoint",
      "outputs": [
        {
          "internalType": "int24",
          "name": "",
          "type": "int24"
        }
      ],
      "stateMutability": "view",
      "type": "function"
    },
    {
      "inputs": [
        {
          "internalType": "int16",
          "name": "",
          "type": "int16"
        }
      ],
      "name": "pointBitmap",
      "outputs": [
        {
          "internalType": "uint256",
          "name": "",
          "type": "uint256"
        }
      ],
      "stateMutability": "view",
      "type": "function"
    },
    {
      "inputs": [],
      "name": "pointDelta",
      "outputs": [
        {
          "internalType": "int24",
          "name": "",
          "type": "int24"
        }
      ],
      "stateMutability": "view",
      "type": "function"
    },
    {
      "inputs": [
        {
          "internalType": "int24",
          "name": "",
          "type": "int24"
        }
      ],
      "name": "points",
      "outputs": [
        {
          "internalType": "uint128",
          "name": "liquidAcc",
          "type": "uint128"
        },
        {
          "internalType": "int128",
          "name": "liquidDelta",
          "type": "int128"
        },
        {
          "internalType": "uint256",
          "name": "feeScaleXBeyond_128",
          "type": "uint256"
        },
        {
          "internalType": "uint256",
          "name": "feeScaleYBeyond_128",
          "type": "uint256"
        },
        {
          "internalType": "bool",
          "name": "isEndpt",
          "type": "bool"
        }
      ],
      "stateMutability": "view",
      "type": "function"
    },
    {
      "inputs": [],
      "name": "rightMostPt",
      "outputs": [
        {
          "internalType": "int24",
          "name": "",
          "type": "int24"
        }
      ],
      "stateMutability": "view",
      "type": "function"
    },
    {
      "inputs": [],
      "name": "state",
      "outputs": [
        {
          "internalType": "uint160",
          "name": "sqrtPrice_96",
          "type": "uint160"
        },
        {
          "internalType": "int24",
          "name": "currentPoint",
          "type": "int24"
        },
        {
          "internalType": "uint256",
          "name": "currX",
          "type": "uint256"
        },
        {
          "internalType": "uint256",
          "name": "currY",
          "type": "uint256"
        },
        {
          "internalType": "uint128",
          "name": "liquidity",
          "type": "uint128"
        },
        {
          "internalType": "bool",
          "name": "allX",
          "type": "bool"
        },
        {
          "internalType": "uint16",
          "name": "observationCurrentIndex",
          "type": "uint16"
        },
        {
          "internalType": "uint16",
          "name": "observationQueueLen",
          "type": "uint16"
        },
        {
          "internalType": "uint16",
          "name": "observationNextQueueLen",
          "type": "uint16"
        },
        {
          "internalType": "bool",
          "name": "locked",
          "type": "bool"
        }
      ],
      "stateMutability": "view",
      "type": "function"
    },
    {
      "inputs": [],
      "name": "tokenX",
      "outputs": [
        {
          "internalType": "address",
          "name": "",
          "type": "address"
        }
      ],
      "stateMutability": "view",
      "type": "function"
    },
    {
      "inputs": [],
      "name": "tokenY",
      "outputs": [
        {
          "internalType": "address",
          "name": "",
          "type": "address"
        }
      ],
      "stateMutability": "view",
      "type": "function"
    },
    {
      "inputs": [
        {
          "internalType": "bytes32",
          "name": "",
          "type": "bytes32"
        }
      ],
      "name": "userEarnX",
      "outputs": [
        {
          "internalType": "uint256",
          "name": "lastAccEarn",
          "type": "uint256"
        },
        {
          "internalType": "uint256",
          "name": "sellingRemain",
          "type": "uint256"
        },
        {
          "internalType": "uint256",
          "name": "sellingDec",
          "type": "uint256"
        },
        {
          "internalType": "uint256",
          "name": "earn",
          "type": "uint256"
        },
        {
          "internalType": "uint256",
          "name": "earnAssign",
          "type": "uint256"
        }
      ],
      "stateMutability": "view",
      "type": "function"
    },
    {
      "inputs": [
        {
          "internalType": "bytes32",
          "name": "",
          "type": "bytes32"
        }
      ],
      "name": "userEarnY",
      "outputs": [
        {
          "internalType": "uint256",
          "name": "lastAccEarn",
          "type": "uint256"
        },
        {
          "internalType": "uint256",
          "name": "sellingRemain",
          "type": "uint256"
        },
        {
          "internalType": "uint256",
          "name": "sellingDec",
          "type": "uint256"
        },
        {
          "internalType": "uint256",
          "name": "earn",
          "type": "uint256"
        },
        {
          "internalType": "uint256",
          "name": "earnAssign",
          "type": "uint256"
        }
      ],
      "stateMutability": "view",
      "type": "function"
    }
  ],
  "bytecode": "0x608060405234801561001057600080fd5b50612cce806100206000396000f3fe608060405234801561001057600080fd5b50600436106101425760003560e01c8063872d1f15116100b8578063b7d19fc41161007c578063b7d19fc4146104e6578063c19d93fb146104f9578063c45a0155146105d3578063d3b16864146105e6578063ddca3f43146105fa578063edcba3b21461062457600080fd5b8063872d1f15146103a25780638790aca3146103ca57806387e7d5fe1461043a57806398a0f72e146104b3578063a34123a7146104d357600080fd5b8063537c2d8e1161010a578063537c2d8e14610273578063588e59ae1461029357806358c51ce61461029c57806362ccaafd146102b05780636d01843b146102ed57806375c0e0d51461031f57600080fd5b80631621835f1461014757806316dc165b146101b15780631aae2e55146101dc578063252c09d7146101f35780633c8a7d8d14610240575b600080fd5b61018461015536600461286d565b601160205260009081526040902080546001820154600283015460038401546004909401549293919290919085565b604080519586526020860194909452928401919091526060830152608082015260a0015b60405180910390f35b6002546101c4906001600160a01b031681565b6040516001600160a01b0390911681526020016101a8565b6101e560045481565b6040519081526020016101a8565b61020661020136600461286d565b610647565b6040805163ffffffff909516855260069390930b60208501526001600160a01b0390911691830191909152151560608201526080016101a8565b61025361024e36600461274a565b61068d565b604080516001600160801b039384168152929091166020830152016101a8565b6000546102809060020b81565b60405160029190910b81526020016101a8565b6101e560055481565b60035461028090600160b81b900460020b81565b6101846102be36600461286d565b601060205260009081526040902080546001820154600283015460038401546004909401549293919290919085565b60005461030790600160301b90046001600160801b031681565b6040516001600160801b0390911681526020016101a8565b61036b61032d3660046128a6565b600d6020526000908152604090208054600182015460028301546003909301546001600160801b03831693600160801b909304600f0b929060ff1685565b604080516001600160801b039096168652600f9490940b60208601529284019190915260608301521515608082015260a0016101a8565b6103b56103b03660046127f9565b610c18565b604080519283526020830191909152016101a8565b61040d6103d83660046128a6565b600f60205260009081526040902080546001820154600283015460038401546004850154600590950154939492939192909186565b604080519687526020870195909552938501929092526060840152608083015260a082015260c0016101a8565b61048161044836600461286d565b600b60205260009081526040902080546001820154600283015460038401546004909401546001600160801b0390931693919290919085565b604080516001600160801b0390961686526020860194909452928401919091526060830152608082015260a0016101a8565b6101e56104c1366004612885565b600c6020526000908152604090205481565b6103b56104e13660046128c0565b610d16565b6003546101c4906001600160a01b031681565b600754600854600954600a54610566936001600160a01b03811693600160a01b90910460020b9290916001600160801b0381169060ff600160801b820481169161ffff600160881b8204811692600160981b8304821692600160a81b810490921691600160b81b9004168a565b604080516001600160a01b03909b168b5260029990990b60208b01529789019690965260608801949094526001600160801b039092166080870152151560a086015261ffff90811660c086015290811660e0850152166101008301521515610120820152610140016101a8565b6001546101c4906001600160a01b031681565b600054610280906301000000900460020b81565b60035461061090600160a01b900462ffffff1681565b60405162ffffff90911681526020016101a8565b6102806106323660046128a6565b600e6020526000908152604090205460020b81565b60128161ffff811061065857600080fd5b015463ffffffff81169150640100000000810460060b90600160581b81046001600160a01b031690600160f81b900460ff1684565b6000808560020b8760020b126106cf5760405162461bcd60e51b8152602060048201526002602482015261262960f11b60448201526064015b60405180910390fd5b600054600290810b810b9088900b12156107105760405162461bcd60e51b81526020600482015260026024820152614c4f60f01b60448201526064016106c6565b60005463010000009004600290810b810b9087900b13156107585760405162461bcd60e51b8152602060048201526002602482015261484f60f01b60448201526064016106c6565b620c350061076d600289810b9089900b612b1b565b1261079f5760405162461bcd60e51b8152602060048201526002602482015261151360f21b60448201526064016106c6565b600354600160b81b900460020b6107b68189612bd4565b60020b156107ec5760405162461bcd60e51b815260206004820152600360248201526213141160ea1b60448201526064016106c6565b6107f68188612bd4565b60020b1561082c5760405162461bcd60e51b815260206004820152600360248201526214941160ea1b60448201526064016106c6565b856000600f82900b136108665760405162461bcd60e51b815260206004820152600260248201526104c560f41b60448201526064016106c6565b6001600160a01b038a16610878573399505b60408051610140810182526007546001600160a01b0381168252600160a01b9004600290810b810b900b60208201819052600854928201929092526009546060820152600a546001600160801b038116608083015260ff600160801b82048116151560a084015261ffff600160881b8304811660c0850152600160981b8304811660e0850152600160a81b830416610100840152600160b81b9091041615156101208201529061092f908c908c908c908690610fd7565b60008060006109408b8e8e876111dc565b919450925090506001600160801b038116156109f8578360a0015161098057806001600160801b031684606001516109789190612a4f565b6009556109c7565b600a805460ff60801b19169055608084015184516109b6916001600160801b031690600160601b906001600160a01b031661138f565b6008556001600160801b0381166009555b8a84608001516109d79190612a24565b600a80546001600160801b0319166001600160801b03929092169190911790555b6000806001600160801b03851615610a5b57610a12611443565b915081610a286001600160801b03871682612a4f565b11610a5b5760405162461bcd60e51b815260206004820152600360248201526242584f60e81b60448201526064016106c6565b6001600160801b03841615610abb57610a72611523565b905080610a886001600160801b03861682612a4f565b11610abb5760405162461bcd60e51b815260206004820152600360248201526242584f60e81b60448201526064016106c6565b6000856001600160801b03161180610adc57506000846001600160801b0316115b15610b4657336001600160a01b03166384fe2b3d86868f8f6040518563ffffffff1660e01b8152600401610b139493929190612953565b600060405180830381600087803b158015610b2d57600080fd5b505af1158015610b41573d6000803e3d6000fd5b505050505b6001600160801b03851615610ba457610b5d611443565b610b706001600160801b03871684612a4f565b1115610ba45760405162461bcd60e51b815260206004820152600360248201526209c8ab60eb1b60448201526064016106c6565b6001600160801b03841615610c0257610bbb611523565b610bce6001600160801b03861683612a4f565b1115610c025760405162461bcd60e51b81526020600482015260036024820152624e455960e81b60448201526064016106c6565b50929e919d50909b505050505050505050505050565b6000806000841180610c2a5750600083115b610c5e5760405162461bcd60e51b81526020600482015260056024820152640582b593e360dc1b60448201526064016106c6565b6000610c6d600b338989611551565b90508492508060030154831115610c8657806003015492505b8391508060040154821115610c9d57806004015491505b82816003016000828254610cb19190612ba2565b9250508190555081816004016000828254610ccc9190612ba2565b90915550508215610cee57600254610cee906001600160a01b031689856115b5565b8115610d0b57600354610d0b906001600160a01b031689846115b5565b509550959350505050565b6000808360020b8560020b12610d535760405162461bcd60e51b8152602060048201526002602482015261262960f11b60448201526064016106c6565b600354600160b81b900460020b610d6a8187612bd4565b60020b15610da05760405162461bcd60e51b815260206004820152600360248201526213141160ea1b60448201526064016106c6565b610daa8186612bd4565b60020b15610de05760405162461bcd60e51b815260206004820152600360248201526214941160ea1b60448201526064016106c6565b60408051610140810182526007546001600160a01b0381168252600160a01b9004600290810b810b900b6020820152600854918101919091526009546060820152600a546001600160801b038082166080840181905260ff600160801b84048116151560a086015261ffff600160881b8504811660c0870152600160981b8504811660e0870152600160a81b850416610100860152600160b81b9093049092161515610120840152600090610e96908816612c52565b90508081600f0b14610ecf5760405162461bcd60e51b8152602060048201526002602482015261444f60f01b60448201526064016106c6565b610ee0338a8a848760200151610fd7565b6000610eee888b8b876116b6565b9050600081606001511180610f07575060008160400151115b15610f5957610f168884612b5a565b600a805460a08401516001600160801b039390931670ffffffffffffffffffffffffffffffffff19909116178215600160801b0217905560808201516008556009555b8051151580610f6c575060008160200151115b15610fbf576000610f80600b338d8d611551565b90508160000151816003016000828254610f9a9190612a4f565b90915550506020820151600482018054600090610fb8908490612a4f565b9091555050505b8051602090910151909a909950975050505050505050565b600354600160b81b900460020b6000610ff3600b888888611551565b60045460055491925090600080600f88900b156110625760005461103490600d908c906001908b908d90600160301b90046001600160801b03168a8a61195f565b6000805491935061105f91600d918c918b908d90600160301b90046001600160801b03168a8a61195f565b90505b600080611074600d8d8d8c8a8a611be4565b9092509050611085878b8484611c77565b83156111295760006110978d8a611dfb565b905060008b600f0b13156110d0576110b38d8a83600117611e48565b8060020b600014156110cb576110cb600c8e8b611e8f565b611127565b600281166110df8e8b83611e48565b8060020b600014156110f7576110f7600c8f8c611ef7565b5060028d810b810b6000908152600d602052604081208181556001810182905591820155600301805460ff191690555b505b82156111cd57600061113b8c8a611dfb565b905060008b600f0b1315611174576111578c8a83600117611e48565b8060020b6000141561116f5761116f600c8d8b611e8f565b6111cb565b600281166111838d8b83611e48565b8060020b6000141561119b5761119b600c8e8c611ef7565b5060028c810b810b6000908152600d602052604081208181556001810182905591820155600301805460ff191690555b505b50505050505050505050505050565b60208101518151600091829182918291826111f689611f60565b6006549091506001600160a01b0316600284810b908c900b121561126657600061121f8c611f60565b905060008560020b8c60020b12156112465761123f8e838686600161237d565b9050611257565b6112548e838786600161237d565b90505b6112618188612a4f565b965050505b8360020b8a60020b13156112f15760008460020b8c60020b136112935761128e85600161299d565b611295565b8b5b905060006112a88e838e87876001612404565b9050809950808a6001600160801b0316146112ee5760405162461bcd60e51b81526004016106c6906020808252600490820152631613d19360e21b604082015260600190565b50505b8360020b8b60020b1315801561130c57508360020b8a60020b135b156113375761131b8c846124bd565b95506113306001600160801b03871686612a4f565b945061133c565b600095505b84965084876001600160801b0316146113805760405162461bcd60e51b81526004016106c6906020808252600490820152631653d19360e21b604082015260600190565b50505050509450945094915050565b6000808060001985870985870292508281108382030391505080600014156113c957600084116113be57600080fd5b50829004905061143c565b8084116113d557600080fd5b6000848688098519600190810187169687900496828603819004959092119093036000829003919091049092019190910291909117600260038502811880860282030280860282030280860282030280860282030280860282030280860290910302029150505b9392505050565b600254604051306024820152600091829182916001600160a01b0316906370a0823160e01b906044015b60408051601f198184030181529181526020820180516001600160e01b03166001600160e01b03199094169390931790925290516114ab919061291a565b600060405180830381855afa9150503d80600081146114e6576040519150601f19603f3d011682016040523d82523d6000602084013e6114eb565b606091505b50915091508180156114ff57506020815110155b61150857600080fd5b8080602001905181019061151c9190612902565b9250505090565b600354604051306024820152600091829182916001600160a01b0316906370a0823160e01b9060440161146d565b6040805160609490941b6bffffffffffffffffffffffff1916602080860191909152600293840b60e890811b60348701529290930b90911b60378401528051601a818503018152603a90930181528251928201929092206000908152929052902090565b604080516001600160a01b038481166024830152604480830185905283518084039091018152606490920183526020820180516001600160e01b031663a9059cbb60e01b1790529151600092839290871691611611919061291a565b6000604051808303816000865af19150503d806000811461164e576040519150601f19603f3d011682016040523d82523d6000602084013e611653565b606091505b509150915081801561167d57508051158061167d57508080602001905181019061167d919061284d565b6116af5760405162461bcd60e51b8152602060048201526003602482015262544e5360e81b60448201526064016106c6565b5050505050565b6116ef6040518060c001604052806000815260200160008152602001600081526020016000815260200160008152602001600081525090565b6020820151825160009182918261170588611f60565b6006549091506001600160a01b0316600284810b908b900b121561177557600061172e8b611f60565b905060008560020b8b60020b12156117555761174e8d838686600061237d565b9050611766565b6117638d838786600061237d565b90505b6117708189612a4f565b975050505b8360020b8960020b13156117c85760008460020b8b60020b136117a25761179d85600161299d565b6117a4565b8a5b905060006117b78d838d87876000612404565b90506117c38188612a4f565b965050505b8360020b8a60020b131580156117e357508360020b8960020b135b156118b6578760a001511561182c57600060a088015260808801518851611822916001600160801b031690600160601b906001600160a01b031661138f565b6080880152611841565b60408801516080880152606088015160a08801525b6118558b8489608001518a60a0015161252e565b606089015260408801819052608088018051611872908390612ba2565b905250606087015160a08801805161188b908390612ba2565b905250606087015161189d9087612a4f565b95508660400151856118af9190612a4f565b94506118c5565b60006060880181905260408801525b6001600160801b03861660208801819052861461190d5760405162461bcd60e51b81526004016106c6906020808252600490820152631653d19360e21b604082015260600190565b6001600160801b03851680885285146119515760405162461bcd60e51b81526004016106c6906020808252600490820152631613d19360e21b604082015260600190565b505050505050949350505050565b600287810b900b600090815260208990526040812080546001600160801b0316600f87900b6119b55760405162461bcd60e51b8152602060048201526002602482015261044360f41b60448201526064016106c6565b60008088600f0b1315611a1d576119cc8883612a24565b9050816001600160801b0316816001600160801b031611611a185760405162461bcd60e51b81526004016106c6906020808252600490820152634c41414f60e01b604082015260600190565b611a7c565b611a2688612c0a565b611a309083612b5a565b9050816001600160801b0316816001600160801b031610611a7c5760405162461bcd60e51b81526004016106c6906020808252600490820152634c41534f60e01b604082015260600190565b866001600160801b0316816001600160801b03161115611ac95760405162461bcd60e51b8152602060048201526008602482015267130813125348141560c21b60448201526064016106c6565b82546001600160801b0319166001600160801b0382161783558915611b31578254611b0e90611b0990600160801b9004600f90810b810b908b900b6125f5565b612615565b8354600f9190910b6001600160801b03908116600160801b029116178355611b71565b8254611b5290611b0990600160801b9004600f90810b810b908b900b61262b565b8354600f9190910b6001600160801b03908116600160801b0291161783555b60006001600160801b038316611bb6575060038301805460ff1916600190811790915560028a810b908d900b12611bb15760018401879055600284018690555b611bd4565b6001600160801b038216611bd4575060038301805460ff1916905560015b9c9b505050505050505050505050565b600285810b810b60009081526020889052604080822087840b90930b825281206001830154919283929091908390611c21908b908a908a9061264b565b90506000611c358a8a8a8660010154612674565b90506000611c498c8b8a886002015461264b565b90506000611c5d8c8c8b8860020154612674565b93909903919091039c960303995093975050505050505050565b6040805160a08101825285546001600160801b031681526001860154602082015260028601549181019190915260038501546060820152600485015460808201526000600f85900b611d085781516001600160801b0316611d005760405162461bcd60e51b815260206004820152600360248201526204c3e360ec1b60448201526064016106c6565b508051611d17565b8151611d14908661268b565b90505b6020820151604083015183519186039190850390600090611d479084906001600160801b0316600160801b61138f565b90506000611d678387600001516001600160801b0316600160801b61138f565b6001600160801b03861687529050600f89900b15611d995789546001600160801b0319166001600160801b038616178a555b60018a0188905560028a0187905581151580611db55750600081115b15611def57818a6003016000828254611dce9190612a4f565b92505081905550808a6004016000828254611de99190612a4f565b90915550505b50505050505050505050565b6000611e078284612bd4565b60020b15611e1757506000611e42565b600e6000611e258486612a67565b600290810b810b8252602082019290925260400160002054900b90505b92915050565b80600e6000611e578587612a67565b60020b60020b815260200190815260200160002060006101000a81548162ffffff021916908360020b62ffffff160217905550505050565b611e998183612bd4565b60020b15611ea657600080fd5b6000611eb28284612a67565b9050600281900b60081d6000611eca61010084612bd4565b600192830b830b60009081526020979097526040909620805460ff9097169290921b909517905550505050565b611f018183612bd4565b60020b15611f0e57600080fd5b6000611f1a8284612a67565b9050600281900b60081d6000611f3261010084612bd4565b600192830b830b60009081526020979097526040909620805460ff9097169290921b19909516905550505050565b60008060008360020b12611f77578260020b611f84565b8260020b611f8490612c52565b9050611f93620d89e719612c38565b60020b811115611fc95760405162461bcd60e51b81526020600482015260016024820152601560fa1b60448201526064016106c6565b600060018216611fdd57600160801b611fef565b6ffffcb933bd6fad37aa2d162d1a5940015b70ffffffffffffffffffffffffffffffffff169050600282161561202e576080612029826ffff97272373d413259a46990580e213a612ab5565b901c90505b6004821615612058576080612053826ffff2e50f5f656932ef12357cf3c7fdcc612ab5565b901c90505b600882161561208257608061207d826fffe5caca7e10e4e61c3624eaa0941cd0612ab5565b901c90505b60108216156120ac5760806120a7826fffcb9843d60f6159c9db58835c926644612ab5565b901c90505b60208216156120d65760806120d1826fff973b41fa98c081472e6896dfb254c0612ab5565b901c90505b60408216156121005760806120fb826fff2ea16466c96a3843ec78b326b52861612ab5565b901c90505b608082161561212a576080612125826ffe5dee046a99a2a811c461f1969c3053612ab5565b901c90505b610100821615612155576080612150826ffcbe86c7900a88aedcffc83b479aa3a4612ab5565b901c90505b61020082161561218057608061217b826ff987a7253ac413176f2b074cf7815e54612ab5565b901c90505b6104008216156121ab5760806121a6826ff3392b0822b70005940c7a398e4b70f3612ab5565b901c90505b6108008216156121d65760806121d1826fe7159475a2c29b7443b29c7fa6e889d9612ab5565b901c90505b6110008216156122015760806121fc826fd097f3bdfd2022b8845ad8f792aa5825612ab5565b901c90505b61200082161561222c576080612227826fa9f746462d870fdf8a65dc1f90e061e5612ab5565b901c90505b614000821615612257576080612252826f70d869a156d2a1b890bb3df62baf32f7612ab5565b901c90505b61800082161561228257608061227d826f31be135f97d08fd981231505542fcfa6612ab5565b901c90505b620100008216156122ae5760806122a9826f09aa508b5b7a84e1c677de54f3e99bc9612ab5565b901c90505b620200008216156122d95760806122d4826e5d6af8dedb81196699c329225ee604612ab5565b901c90505b620400008216156123035760806122fe826d2216e584f5fa1ea926041bedfe98612ab5565b901c90505b6208000082161561232b576080612326826b048a170391f7dc42444e8fa2612ab5565b901c90505b60008460020b13156123465761234381600019612aa1565b90505b61235564010000000082612bf6565b15612361576001612364565b60005b6123759060ff16602083901c612a4f565b949350505050565b60008061238a8686612b82565b9050600061239c600160601b86612b82565b9050836123d0576123c9886001600160801b0316836001600160a01b0316836001600160a01b031661138f565b92506123f9565b6123f6886001600160801b0316836001600160a01b0316836001600160a01b03166126bc565b92505b505095945050505050565b6000806124246124148888612ad4565b61241f90600161299d565b611f60565b9050600061243661241f88600161299d565b905060006124448684612b82565b905060006124528884612b82565b9050856124865761247f8b6001600160801b0316836001600160a01b0316836001600160a01b031661138f565b94506124af565b6124ac8b6001600160801b0316836001600160a01b0316836001600160a01b03166126bc565b94505b505050509695505050505050565b6000806124e1846001600160801b0316846001600160a01b0316600160601b6126bc565b905080915080826001600160801b0316146125275760405162461bcd60e51b81526020600482015260066024820152651650c813d19360d21b60448201526064016106c6565b5092915050565b6000806000612554876001600160801b0316876001600160a01b0316600160601b61138f565b90508381116125725760009250806001600160801b031691506125eb565b839150600061258f83600160601b896001600160a01b03166126bc565b9050876001600160801b031681106125aa57600093506125e9565b60006125b6828a612b5a565b90506125d9816001600160801b0316600160601b8a6001600160a01b031661138f565b9450868511156125e7578694505b505b505b5094509492505050565b6000808212158361260684826129e3565b925082121514611e4257600080fd5b80600f81900b811461262657600080fd5b919050565b6000808212158361263c8482612b1b565b925082131514611e4257600080fd5b60008360020b8560020b13612661575080612375565b61266b8284612ba2565b95945050505050565b60008360020b8560020b1315612661575080612375565b60008082600f0b12156126b2576126a182612c0a565b6126ab9084612b5a565b9050611e42565b61143c8284612a24565b60006126c984848461138f565b9050600082806126e957634e487b7160e01b600052601260045260246000fd5b848609111561143c57600019811061270057600080fd5b8061266b81612bb9565b80356001600160a01b038116811461262657600080fd5b8035600281900b811461262657600080fd5b80356001600160801b038116811461262657600080fd5b60008060008060008060a08789031215612762578182fd5b61276b8761270a565b955061277960208801612721565b945061278760408801612721565b935061279560608801612733565b9250608087013567ffffffffffffffff808211156127b1578384fd5b818901915089601f8301126127c4578384fd5b8135818111156127d2578485fd5b8a60208285010111156127e3578485fd5b6020830194508093505050509295509295509295565b600080600080600060a08688031215612810578081fd5b6128198661270a565b945061282760208701612721565b935061283560408701612721565b94979396509394606081013594506080013592915050565b60006020828403121561285e578081fd5b8151801515811461143c578182fd5b60006020828403121561287e578081fd5b5035919050565b600060208284031215612896578081fd5b81358060010b811461143c578182fd5b6000602082840312156128b7578081fd5b61143c82612721565b6000806000606084860312156128d4578283fd5b6128dd84612721565b92506128eb60208501612721565b91506128f960408501612733565b90509250925092565b600060208284031215612913578081fd5b5051919050565b60008251815b8181101561293a5760208186018101518583015201612920565b818111156129485782828501525b509190910192915050565b60006001600160801b0380871683528086166020840152506060604083015282606083015282846080840137818301608090810191909152601f909201601f191601019392505050565b60008160020b8360020b82821282627fffff038213811516156129c2576129c2612c6c565b82627fffff190382128116156129da576129da612c6c565b50019392505050565b600080821280156001600160ff1b0384900385131615612a0557612a05612c6c565b600160ff1b8390038412811615612a1e57612a1e612c6c565b50500190565b60006001600160801b03808316818516808303821115612a4657612a46612c6c565b01949350505050565b60008219821115612a6257612a62612c6c565b500190565b60008160020b8360020b80612a7e57612a7e612c82565b627fffff19821460001982141615612a9857612a98612c6c565b90059392505050565b600082612ab057612ab0612c82565b500490565b6000816000190483118215151615612acf57612acf612c6c565b500290565b60008160020b8360020b82811281627fffff1901831281151615612afa57612afa612c6c565b81627fffff018313811615612b1157612b11612c6c565b5090039392505050565b60008083128015600160ff1b850184121615612b3957612b39612c6c565b6001600160ff1b0384018313811615612b5457612b54612c6c565b50500390565b60006001600160801b0383811690831681811015612b7a57612b7a612c6c565b039392505050565b60006001600160a01b0383811690831681811015612b7a57612b7a612c6c565b600082821015612bb457612bb4612c6c565b500390565b6000600019821415612bcd57612bcd612c6c565b5060010190565b60008260020b80612be757612be7612c82565b808360020b0791505092915050565b600082612c0557612c05612c82565b500690565b600081600f0b6f7fffffffffffffffffffffffffffffff19811415612c3157612c31612c6c565b9003919050565b60008160020b627fffff19811415612c3157612c31612c6c565b6000600160ff1b821415612c6857612c68612c6c565b0390565b634e487b7160e01b600052601160045260246000fd5b634e487b7160e01b600052601260045260246000fdfea2646970667358221220c68178c79928b2de5c244ae9c7cffcf0681c5062f99a3a4a27e69d23a884e92664736f6c63430008040033",
  "linkReferences": {},
  "deployedLinkReferences": {}
}