{
  "_format": "hh-sol-artifact-1",
  "contractName": "TestMint",
  "sourceName": "contracts/test/TestMint.sol",
  "abi": [
    {
      "inputs": [
        {
          "internalType": "address",
          "name": "fac",
          "type": "address"
        }
      ],
      "stateMutability": "nonpayable",
      "type": "constructor"
    },
    {
      "inputs": [],
      "name": "factory",
      "outputs": [
        {
          "internalType": "address",
          "name": "",
          "type": "address"
        }
      ],
      "stateMutability": "view",
      "type": "function"
    },
    {
      "inputs": [
        {
          "internalType": "address",
          "name": "tokenX",
          "type": "address"
        },
        {
          "internalType": "address",
          "name": "tokenY",
          "type": "address"
        },
        {
          "internalType": "uint24",
          "name": "fee",
          "type": "uint24"
        },
        {
          "internalType": "int24",
          "name": "pl",
          "type": "int24"
        },
        {
          "internalType": "int24",
          "name": "pr",
          "type": "int24"
        }
      ],
      "name": "liquidities",
      "outputs": [
        {
          "internalType": "uint128",
          "name": "liquidity",
          "type": "uint128"
        },
        {
          "internalType": "uint256",
          "name": "lastFeeScaleX_128",
          "type": "uint256"
        },
        {
          "internalType": "uint256",
          "name": "lastFeeScaleY_128",
          "type": "uint256"
        },
        {
          "internalType": "uint256",
          "name": "remainFeeX",
          "type": "uint256"
        },
        {
          "internalType": "uint256",
          "name": "remainFeeY",
          "type": "uint256"
        }
      ],
      "stateMutability": "view",
      "type": "function"
    },
    {
      "inputs": [
        {
          "internalType": "address",
          "name": "tokenX",
          "type": "address"
        },
        {
          "internalType": "address",
          "name": "tokenY",
          "type": "address"
        },
        {
          "internalType": "uint24",
          "name": "fee",
          "type": "uint24"
        },
        {
          "internalType": "int24",
          "name": "leftPt",
          "type": "int24"
        },
        {
          "internalType": "int24",
          "name": "rightPt",
          "type": "int24"
        },
        {
          "internalType": "uint128",
          "name": "liquidDelta",
          "type": "uint128"
        }
      ],
      "name": "mint",
      "outputs": [],
      "stateMutability": "nonpayable",
      "type": "function"
    },
    {
      "inputs": [
        {
          "internalType": "uint256",
          "name": "x",
          "type": "uint256"
        },
        {
          "internalType": "uint256",
          "name": "y",
          "type": "uint256"
        },
        {
          "internalType": "bytes",
          "name": "data",
          "type": "bytes"
        }
      ],
      "name": "mintDepositCallback",
      "outputs": [],
      "stateMutability": "nonpayable",
      "type": "function"
    },
    {
      "inputs": [
        {
          "internalType": "address",
          "name": "tokenX",
          "type": "address"
        },
        {
          "internalType": "address",
          "name": "tokenY",
          "type": "address"
        },
        {
          "internalType": "uint24",
          "name": "fee",
          "type": "uint24"
        }
      ],
      "name": "pool",
      "outputs": [
        {
          "internalType": "address",
          "name": "",
          "type": "address"
        }
      ],
      "stateMutability": "view",
      "type": "function"
    }
  ],
  "bytecode": "0x608060405234801561001057600080fd5b50604051610aec380380610aec83398101604081905261002f91610054565b600080546001600160a01b0319166001600160a01b0392909216919091179055610082565b600060208284031215610065578081fd5b81516001600160a01b038116811461007b578182fd5b9392505050565b610a5b806100916000396000f3fe608060405234801561001057600080fd5b50600436106100575760003560e01c806384fe2b3d1461005c578063becbcc6a14610071578063c45a0155146100a1578063ec48fdaa146100b4578063f9a3e6b2146100f9575b600080fd5b61006f61006a3660046108cb565b61010c565b005b61008461007f366004610673565b6101b8565b6040516001600160a01b0390911681526020015b60405180910390f35b600054610084906001600160a01b031681565b6100c76100c23660046106b9565b610251565b604080516001600160801b0390961686526020860194909452928401919091526060830152608082015260a001610098565b61006f610107366004610721565b610398565b600061011a828401846107bc565b9050336001600160a01b031661013d8260000151836020015184604001516101b8565b6001600160a01b03161461017d5760405162461bcd60e51b8152602060048201526002602482015261073760f41b60448201526064015b60405180910390fd5b84156101975761019781600001518260600151338861051c565b83156101b1576101b181602001518260600151338761051c565b5050505050565b60008054604051635f65e63560e11b81526001600160a01b038681166004830152858116602483015262ffffff851660448301529091169063becbcc6a9060640160206040518083038186803b15801561021157600080fd5b505afa158015610225573d6000803e3d6000fd5b505050506040513d601f19601f820116820180604052508101906102499190610650565b949350505050565b6000806000806000886001600160a01b03168a6001600160a01b0316106102a05760405162461bcd60e51b8152602060048201526003602482015262783c7960e81b6044820152606401610174565b60006102ad8b8b8b6101b8565b60405133606081901b6bffffffffffffffffffffffff1916602083015260028b810b60e890811b6034850152908b900b901b60378301529192506001600160a01b038316906387e7d5fe90603a01604051602081830303815290604052805190602001206040518263ffffffff1660e01b815260040161032f91815260200190565b60a06040518083038186803b15801561034757600080fd5b505afa15801561035b573d6000803e3d6000fd5b505050506040513d601f19601f8201168201806040525081019061037f9190610883565b9650965096509650965050509550955095509550959050565b846001600160a01b0316866001600160a01b0316106103df5760405162461bcd60e51b8152602060048201526003602482015262783c7960e81b6044820152606401610174565b60006103ec8787876101b8565b90506000339050816001600160a01b0316633c8a7d8d8287878760405180608001604052808f6001600160a01b031681526020018e6001600160a01b031681526020018d62ffffff168152602001886001600160a01b0316815250604051602001610490919081516001600160a01b03908116825260208084015182169083015260408084015162ffffff1690830152606092830151169181019190915260800190565b6040516020818303038152906040526040518663ffffffff1660e01b81526004016104bf959493929190610962565b6040805180830381600087803b1580156104d857600080fd5b505af11580156104ec573d6000803e3d6000fd5b505050506040513d601f19601f82011682018060405250810190610510919061084a565b50505050505050505050565b604080516001600160a01b0385811660248301528481166044830152606480830185905283518084039091018152608490920183526020820180516001600160e01b03166323b872dd60e01b17905291516000928392908816916105809190610946565b6000604051808303816000865af19150503d80600081146105bd576040519150601f19603f3d011682016040523d82523d6000602084013e6105c2565b606091505b50915091508180156105ec5750805115806105ec5750808060200190518101906105ec919061079c565b61061e5760405162461bcd60e51b815260206004820152600360248201526229aa2360e91b6044820152606401610174565b505050505050565b8035600281900b811461063857600080fd5b919050565b803562ffffff8116811461063857600080fd5b600060208284031215610661578081fd5b815161066c816109f8565b9392505050565b600080600060608486031215610687578182fd5b8335610692816109f8565b925060208401356106a2816109f8565b91506106b06040850161063d565b90509250925092565b600080600080600060a086880312156106d0578081fd5b85356106db816109f8565b945060208601356106eb816109f8565b93506106f96040870161063d565b925061070760608701610626565b915061071560808701610626565b90509295509295909350565b60008060008060008060c08789031215610739578081fd5b8635610744816109f8565b95506020870135610754816109f8565b94506107626040880161063d565b935061077060608801610626565b925061077e60808801610626565b915060a087013561078e81610a10565b809150509295509295509295565b6000602082840312156107ad578081fd5b8151801515811461066c578182fd5b6000608082840312156107cd578081fd5b6040516080810181811067ffffffffffffffff821117156107fc57634e487b7160e01b83526041600452602483fd5b604052823561080a816109f8565b8152602083013561081a816109f8565b602082015261082b6040840161063d565b6040820152606083013561083e816109f8565b60608201529392505050565b6000806040838503121561085c578182fd5b825161086781610a10565b602084015190925061087881610a10565b809150509250929050565b600080600080600060a0868803121561089a578081fd5b85516108a581610a10565b602087015160408801516060890151608090990151929a91995097965090945092505050565b600080600080606085870312156108e0578384fd5b8435935060208501359250604085013567ffffffffffffffff80821115610905578384fd5b818701915087601f830112610918578384fd5b813581811115610926578485fd5b886020828501011115610937578485fd5b95989497505060200194505050565b600082516109588184602087016109c8565b9190910192915050565b60018060a01b03861681528460020b60208201528360020b60408201526001600160801b038316606082015260a06080820152600082518060a08401526109b08160c08501602087016109c8565b601f01601f19169190910160c0019695505050505050565b60005b838110156109e35781810151838201526020016109cb565b838111156109f2576000848401525b50505050565b6001600160a01b0381168114610a0d57600080fd5b50565b6001600160801b0381168114610a0d57600080fdfea26469706673582212203fd88fb8eb98adf6deb1325e0ef62ddc63dc3a6063bc937afa763aa37a9d388e64736f6c63430008040033",
  "linkReferences": {},
  "deployedLinkReferences": {}
}