{
  "_format": "hh-sol-artifact-1",
  "contractName": "TestSwap",
  "sourceName": "contracts/test/TestSwap.sol",
  "abi": [
    {
      "inputs": [
        {
          "internalType": "address",
          "name": "fac",
          "type": "address"
        }
      ],
      "stateMutability": "nonpayable",
      "type": "constructor"
    },
    {
      "inputs": [],
      "name": "factory",
      "outputs": [
        {
          "internalType": "address",
          "name": "",
          "type": "address"
        }
      ],
      "stateMutability": "view",
      "type": "function"
    },
    {
      "inputs": [
        {
          "internalType": "address",
          "name": "tokenX",
          "type": "address"
        },
        {
          "internalType": "address",
          "name": "tokenY",
          "type": "address"
        },
        {
          "internalType": "uint24",
          "name": "fee",
          "type": "uint24"
        }
      ],
      "name": "pool",
      "outputs": [
        {
          "internalType": "address",
          "name": "",
          "type": "address"
        }
      ],
      "stateMutability": "view",
      "type": "function"
    },
    {
      "inputs": [
        {
          "internalType": "address",
          "name": "tokenX",
          "type": "address"
        },
        {
          "internalType": "address",
          "name": "tokenY",
          "type": "address"
        },
        {
          "internalType": "uint24",
          "name": "fee",
          "type": "uint24"
        },
        {
          "internalType": "uint128",
          "name": "amount",
          "type": "uint128"
        },
        {
          "internalType": "int24",
          "name": "lowPt",
          "type": "int24"
        }
      ],
      "name": "swapX2Y",
      "outputs": [],
      "stateMutability": "nonpayable",
      "type": "function"
    },
    {
      "inputs": [
        {
          "internalType": "uint256",
          "name": "x",
          "type": "uint256"
        },
        {
          "internalType": "uint256",
          "name": "y",
          "type": "uint256"
        },
        {
          "internalType": "bytes",
          "name": "data",
          "type": "bytes"
        }
      ],
      "name": "swapX2YCallback",
      "outputs": [],
      "stateMutability": "nonpayable",
      "type": "function"
    },
    {
      "inputs": [
        {
          "internalType": "address",
          "name": "tokenX",
          "type": "address"
        },
        {
          "internalType": "address",
          "name": "tokenY",
          "type": "address"
        },
        {
          "internalType": "uint24",
          "name": "fee",
          "type": "uint24"
        },
        {
          "internalType": "uint128",
          "name": "desireY",
          "type": "uint128"
        },
        {
          "internalType": "int24",
          "name": "highPt",
          "type": "int24"
        }
      ],
      "name": "swapX2YDesireY",
      "outputs": [],
      "stateMutability": "nonpayable",
      "type": "function"
    },
    {
      "inputs": [
        {
          "internalType": "address",
          "name": "tokenX",
          "type": "address"
        },
        {
          "internalType": "address",
          "name": "tokenY",
          "type": "address"
        },
        {
          "internalType": "uint24",
          "name": "fee",
          "type": "uint24"
        },
        {
          "internalType": "uint128",
          "name": "amount",
          "type": "uint128"
        },
        {
          "internalType": "int24",
          "name": "highPt",
          "type": "int24"
        }
      ],
      "name": "swapY2X",
      "outputs": [],
      "stateMutability": "nonpayable",
      "type": "function"
    },
    {
      "inputs": [
        {
          "internalType": "uint256",
          "name": "x",
          "type": "uint256"
        },
        {
          "internalType": "uint256",
          "name": "y",
          "type": "uint256"
        },
        {
          "internalType": "bytes",
          "name": "data",
          "type": "bytes"
        }
      ],
      "name": "swapY2XCallback",
      "outputs": [],
      "stateMutability": "nonpayable",
      "type": "function"
    },
    {
      "inputs": [
        {
          "internalType": "address",
          "name": "tokenX",
          "type": "address"
        },
        {
          "internalType": "address",
          "name": "tokenY",
          "type": "address"
        },
        {
          "internalType": "uint24",
          "name": "fee",
          "type": "uint24"
        },
        {
          "internalType": "uint128",
          "name": "desireX",
          "type": "uint128"
        },
        {
          "internalType": "int24",
          "name": "highPt",
          "type": "int24"
        }
      ],
      "name": "swapY2XDesireX",
      "outputs": [],
      "stateMutability": "nonpayable",
      "type": "function"
    }
  ],
  "bytecode": "0x608060405234801561001057600080fd5b50604051610d3a380380610d3a83398101604081905261002f91610054565b600080546001600160a01b0319166001600160a01b0392909216919091179055610082565b600060208284031215610065578081fd5b81516001600160a01b038116811461007b578182fd5b9392505050565b610ca9806100916000396000f3fe608060405234801561001057600080fd5b50600436106100885760003560e01c8063c2ce91181161005b578063c2ce9118146100f7578063c45a01551461010a578063cdca428a1461011d578063d3e1c2841461013057600080fd5b80630946629b1461008d57806318780684146100a25780638501721f146100b5578063becbcc6a146100c8575b600080fd5b6100a061009b36600461092c565b610143565b005b6100a06100b0366004610a7c565b61027e565b6100a06100c336600461092c565b610340565b6100db6100d63660046108e6565b6103e8565b6040516001600160a01b03909116815260200160405180910390f35b6100a061010536600461092c565b610481565b6000546100db906001600160a01b031681565b6100a061012b36600461092c565b610529565b6100a061013e366004610a7c565b610610565b836001600160a01b0316856001600160a01b03161061017d5760405162461bcd60e51b815260040161017490610bce565b60405180910390fd5b600061018a8686866103e8565b90506000339050816001600160a01b031663f094685a82868660405180608001604052808d6001600160a01b031681526020018c6001600160a01b03168152602001876001600160a01b031681526020018b62ffffff168152506040516020016101f49190610beb565b6040516020818303038152906040526040518563ffffffff1660e01b81526004016102229493929190610b3f565b6040805180830381600087803b15801561023b57600080fd5b505af115801561024f573d6000803e3d6000fd5b505050506040513d601f19601f820116820180604052508101906102739190610a59565b505050505050505050565b600061028c828401846109cb565b9050336001600160a01b03166102af8260000151836020015184606001516103e8565b6001600160a01b0316146102ea5760405162461bcd60e51b8152602060048201526002602482015261073760f41b6044820152606401610174565b80602001516001600160a01b031681600001516001600160a01b03161015610325576103208160000151826040015133886106c2565b610339565b6103398160200151826040015133886106c2565b5050505050565b836001600160a01b0316856001600160a01b0316106103715760405162461bcd60e51b815260040161017490610bce565b600061037e8686866103e8565b90506000339050816001600160a01b031663857f812f82868660405180608001604052808d6001600160a01b031681526020018c6001600160a01b03168152602001876001600160a01b031681526020018b62ffffff168152506040516020016101f49190610beb565b60008054604051635f65e63560e11b81526001600160a01b038681166004830152858116602483015262ffffff851660448301529091169063becbcc6a9060640160206040518083038186803b15801561044157600080fd5b505afa158015610455573d6000803e3d6000fd5b505050506040513d601f19601f8201168201806040525081019061047991906108c3565b949350505050565b836001600160a01b0316856001600160a01b0316106104b25760405162461bcd60e51b815260040161017490610bce565b60006104bf8686866103e8565b90506000339050816001600160a01b0316632c48125282868660405180608001604052808c6001600160a01b031681526020018d6001600160a01b03168152602001876001600160a01b031681526020018b62ffffff168152506040516020016101f49190610beb565b836001600160a01b0316856001600160a01b03161061055a5760405162461bcd60e51b815260040161017490610bce565b6105996040518060400160405280601881526020017f637572722063616c6c696e6720616464726573733a202573000000000000000081525030610800565b60006105a68686866103e8565b90506000339050816001600160a01b03166359dd143682868660405180608001604052808c6001600160a01b031681526020018d6001600160a01b03168152602001876001600160a01b031681526020018b62ffffff168152506040516020016101f49190610beb565b600061061e828401846109cb565b9050336001600160a01b03166106418260000151836020015184606001516103e8565b6001600160a01b03161461067c5760405162461bcd60e51b8152602060048201526002602482015261073760f41b6044820152606401610174565b80602001516001600160a01b031681600001516001600160a01b031610156106b2576103208160200151826040015133876106c2565b6103398160000151826040015133875b604080516001600160a01b0385811660248301528481166044830152606480830185905283518084039091018152608490920183526020820180516001600160e01b03166323b872dd60e01b17905291516000928392908816916107269190610b23565b6000604051808303816000865af19150503d8060008114610763576040519150601f19603f3d011682016040523d82523d6000602084013e610768565b606091505b50915091506107a1604051806040016040528060128152602001717472616e736665722076616c75653a20257360701b81525084610849565b8180156107c65750805115806107c65750808060200190518101906107c691906109ab565b6107f85760405162461bcd60e51b815260206004820152600360248201526229aa2360e91b6044820152606401610174565b505050505050565b6108458282604051602401610816929190610b82565b60408051601f198184030181529190526020810180516001600160e01b031663319af33360e01b17905261088a565b5050565b610845828260405160240161085f929190610bac565b60408051601f198184030181529190526020810180516001600160e01b03166309710a9d60e41b1790525b80516a636f6e736f6c652e6c6f67602083016000808483855afa5050505050565b803562ffffff811681146108be57600080fd5b919050565b6000602082840312156108d4578081fd5b81516108df81610c5b565b9392505050565b6000806000606084860312156108fa578182fd5b833561090581610c5b565b9250602084013561091581610c5b565b9150610923604085016108ab565b90509250925092565b600080600080600060a08688031215610943578081fd5b853561094e81610c5b565b9450602086013561095e81610c5b565b935061096c604087016108ab565b925060608601356001600160801b0381168114610987578182fd5b91506080860135600281900b811461099d578182fd5b809150509295509295909350565b6000602082840312156109bc578081fd5b815180151581146108df578182fd5b6000608082840312156109dc578081fd5b6040516080810181811067ffffffffffffffff82111715610a0b57634e487b7160e01b83526041600452602483fd5b6040528235610a1981610c5b565b81526020830135610a2981610c5b565b60208201526040830135610a3c81610c5b565b6040820152610a4d606084016108ab565b60608201529392505050565b60008060408385031215610a6b578182fd5b505080516020909101519092909150565b60008060008060608587031215610a91578384fd5b8435935060208501359250604085013567ffffffffffffffff80821115610ab6578384fd5b818701915087601f830112610ac9578384fd5b813581811115610ad7578485fd5b886020828501011115610ae8578485fd5b95989497505060200194505050565b60008151808452610b0f816020860160208601610c2b565b601f01601f19169290920160200192915050565b60008251610b35818460208701610c2b565b9190910192915050565b60018060a01b03851681526001600160801b03841660208201528260020b6040820152608060608201526000610b786080830184610af7565b9695505050505050565b604081526000610b956040830185610af7565b905060018060a01b03831660208301529392505050565b604081526000610bbf6040830185610af7565b90508260208301529392505050565b602080825260039082015262783c7960e81b604082015260600190565b81516001600160a01b0390811682526020808401518216908301526040808401519091169082015260609182015162ffffff169181019190915260800190565b60005b83811015610c46578181015183820152602001610c2e565b83811115610c55576000848401525b50505050565b6001600160a01b0381168114610c7057600080fd5b5056fea2646970667358221220d3c0f17b3fdaf5ef1f01aa5eb1b1e666da5d3476c04a12ab9267ef503bc6231c64736f6c63430008040033",
  "linkReferences": {},
  "deployedLinkReferences": {}
}