{
  "_format": "hh-sol-artifact-1",
  "contractName": "TestQuoter",
  "sourceName": "contracts/test/TestQuoter.sol",
  "abi": [
    {
      "inputs": [
        {
          "internalType": "address",
          "name": "fac",
          "type": "address"
        }
      ],
      "stateMutability": "nonpayable",
      "type": "constructor"
    },
    {
      "inputs": [],
      "name": "amount",
      "outputs": [
        {
          "internalType": "uint256",
          "name": "",
          "type": "uint256"
        }
      ],
      "stateMutability": "view",
      "type": "function"
    },
    {
      "inputs": [],
      "name": "factory",
      "outputs": [
        {
          "internalType": "address",
          "name": "",
          "type": "address"
        }
      ],
      "stateMutability": "view",
      "type": "function"
    },
    {
      "inputs": [
        {
          "internalType": "address",
          "name": "tokenX",
          "type": "address"
        },
        {
          "internalType": "address",
          "name": "tokenY",
          "type": "address"
        },
        {
          "internalType": "uint24",
          "name": "fee",
          "type": "uint24"
        }
      ],
      "name": "pool",
      "outputs": [
        {
          "internalType": "address",
          "name": "",
          "type": "address"
        }
      ],
      "stateMutability": "view",
      "type": "function"
    },
    {
      "inputs": [
        {
          "internalType": "address",
          "name": "tokenX",
          "type": "address"
        },
        {
          "internalType": "address",
          "name": "tokenY",
          "type": "address"
        },
        {
          "internalType": "uint24",
          "name": "fee",
          "type": "uint24"
        },
        {
          "internalType": "uint128",
          "name": "amount",
          "type": "uint128"
        },
        {
          "internalType": "int24",
          "name": "lowPt",
          "type": "int24"
        }
      ],
      "name": "swapX2Y",
      "outputs": [
        {
          "internalType": "uint256",
          "name": "",
          "type": "uint256"
        },
        {
          "internalType": "int24",
          "name": "",
          "type": "int24"
        }
      ],
      "stateMutability": "nonpayable",
      "type": "function"
    },
    {
      "inputs": [
        {
          "internalType": "uint256",
          "name": "x",
          "type": "uint256"
        },
        {
          "internalType": "uint256",
          "name": "y",
          "type": "uint256"
        },
        {
          "internalType": "bytes",
          "name": "data",
          "type": "bytes"
        }
      ],
      "name": "swapX2YCallback",
      "outputs": [],
      "stateMutability": "nonpayable",
      "type": "function"
    },
    {
      "inputs": [
        {
          "internalType": "address",
          "name": "tokenX",
          "type": "address"
        },
        {
          "internalType": "address",
          "name": "tokenY",
          "type": "address"
        },
        {
          "internalType": "uint24",
          "name": "fee",
          "type": "uint24"
        },
        {
          "internalType": "uint128",
          "name": "desireY",
          "type": "uint128"
        },
        {
          "internalType": "int24",
          "name": "highPt",
          "type": "int24"
        }
      ],
      "name": "swapX2YDesireY",
      "outputs": [
        {
          "internalType": "uint256",
          "name": "",
          "type": "uint256"
        },
        {
          "internalType": "int24",
          "name": "",
          "type": "int24"
        }
      ],
      "stateMutability": "nonpayable",
      "type": "function"
    },
    {
      "inputs": [
        {
          "internalType": "address",
          "name": "tokenX",
          "type": "address"
        },
        {
          "internalType": "address",
          "name": "tokenY",
          "type": "address"
        },
        {
          "internalType": "uint24",
          "name": "fee",
          "type": "uint24"
        },
        {
          "internalType": "uint128",
          "name": "amount",
          "type": "uint128"
        },
        {
          "internalType": "int24",
          "name": "highPt",
          "type": "int24"
        }
      ],
      "name": "swapY2X",
      "outputs": [
        {
          "internalType": "uint256",
          "name": "",
          "type": "uint256"
        },
        {
          "internalType": "int24",
          "name": "",
          "type": "int24"
        }
      ],
      "stateMutability": "nonpayable",
      "type": "function"
    },
    {
      "inputs": [
        {
          "internalType": "uint256",
          "name": "x",
          "type": "uint256"
        },
        {
          "internalType": "uint256",
          "name": "y",
          "type": "uint256"
        },
        {
          "internalType": "bytes",
          "name": "data",
          "type": "bytes"
        }
      ],
      "name": "swapY2XCallback",
      "outputs": [],
      "stateMutability": "nonpayable",
      "type": "function"
    },
    {
      "inputs": [
        {
          "internalType": "address",
          "name": "tokenX",
          "type": "address"
        },
        {
          "internalType": "address",
          "name": "tokenY",
          "type": "address"
        },
        {
          "internalType": "uint24",
          "name": "fee",
          "type": "uint24"
        },
        {
          "internalType": "uint128",
          "name": "desireX",
          "type": "uint128"
        },
        {
          "internalType": "int24",
          "name": "highPt",
          "type": "int24"
        }
      ],
      "name": "swapY2XDesireX",
      "outputs": [
        {
          "internalType": "uint256",
          "name": "",
          "type": "uint256"
        },
        {
          "internalType": "int24",
          "name": "",
          "type": "int24"
        }
      ],
      "stateMutability": "nonpayable",
      "type": "function"
    }
  ],
  "bytecode": "0x608060405234801561001057600080fd5b50604051610d91380380610d9183398101604081905261002f9161005e565b600180546001600160a01b039092166301000000026301000000600160b81b031990921691909117905561008c565b60006020828403121561006f578081fd5b81516001600160a01b0381168114610085578182fd5b9392505050565b610cf68061009b6000396000f3fe608060405234801561001057600080fd5b50600436106100935760003560e01c8063becbcc6a11610066578063becbcc6a14610107578063c2ce911814610132578063c45a015514610145578063cdca428a1461015f578063d3e1c284146100c857600080fd5b80630946629b1461009857806318780684146100c85780638501721f146100dd578063aa8c217c146100f0575b600080fd5b6100ab6100a6366004610845565b610172565b6040805192835260029190910b6020830152015b60405180910390f35b6100db6100d6366004610ae4565b6102f5565b005b6100ab6100eb366004610845565b61043f565b6100f960005481565b6040519081526020016100bf565b61011a6101153660046107ff565b6104ea565b6040516001600160a01b0390911681526020016100bf565b6100ab610140366004610845565b61058a565b60015461011a90630100000090046001600160a01b031681565b6100ab61016d366004610845565b610635565b600080856001600160a01b0316876001600160a01b0316106101af5760405162461bcd60e51b81526004016101a690610be1565b60405180910390fd5b60006101bc8888886104ea565b90506000339050816001600160a01b031663f094685a82888860405180608001604052808f6001600160a01b031681526020018e6001600160a01b03168152602001876001600160a01b031681526020018d62ffffff168152506040516020016102269190610bfe565b6040516020818303038152906040526040518563ffffffff1660e01b81526004016102549493929190610b8b565b6040805180830381600087803b15801561026d57600080fd5b505af192505050801561029d575060408051601f3d908101601f1916820190925261029a91810190610ac1565b60015b6102e6573d8080156102cb576040519150601f19603f3d011682016040523d82523d6000602084013e6102d0565b606091505b506102da816106e0565b945094505050506102eb565b505050505b9550959350505050565b60006103038284018461095c565b9050336001600160a01b03166103268260000151836020015184606001516104ea565b6001600160a01b0316146103615760405162461bcd60e51b8152602060048201526002602482015261073760f41b60448201526064016101a6565b600061037a8260000151836020015184606001516104ea565b90506000816001600160a01b031663c19d93fb6040518163ffffffff1660e01b81526004016101406040518083038186803b1580156103b857600080fd5b505afa1580156103cc573d6000803e3d6000fd5b505050506040513d601f19601f820116820180604052508101906103f091906109de565b505050505050505091505082602001516001600160a01b031683600001516001600160a01b0316101561042e57604051868152816020820152604081fd5b604051878152816020820152604081fd5b600080856001600160a01b0316876001600160a01b0316106104735760405162461bcd60e51b81526004016101a690610be1565b60006104808888886104ea565b90506000339050816001600160a01b031663857f812f82888860405180608001604052808f6001600160a01b031681526020018e6001600160a01b03168152602001876001600160a01b031681526020018d62ffffff168152506040516020016102269190610bfe565b600154604051635f65e63560e11b81526001600160a01b038581166004830152848116602483015262ffffff8416604483015260009263010000009004169063becbcc6a9060640160206040518083038186803b15801561054a57600080fd5b505afa15801561055e573d6000803e3d6000fd5b505050506040513d601f19601f8201168201806040525081019061058291906107dc565b949350505050565b600080856001600160a01b0316876001600160a01b0316106105be5760405162461bcd60e51b81526004016101a690610be1565b60006105cb8888886104ea565b90506000339050816001600160a01b0316632c48125282888860405180608001604052808e6001600160a01b031681526020018f6001600160a01b03168152602001876001600160a01b031681526020018d62ffffff168152506040516020016102269190610bfe565b600080856001600160a01b0316876001600160a01b0316106106695760405162461bcd60e51b81526004016101a690610be1565b60006106768888886104ea565b90506000339050816001600160a01b03166359dd143682888860405180608001604052808e6001600160a01b031681526020018f6001600160a01b03168152602001876001600160a01b031681526020018d62ffffff168152506040516020016102269190610bfe565b6000808251604014610764576044835110156107315760405162461bcd60e51b815260206004820152601060248201526f2ab732bc3832b1ba32b21032b93937b960811b60448201526064016101a6565b6004830192508280602001905181019061074b91906108b3565b60405162461bcd60e51b81526004016101a69190610bce565b828060200190518101906107789190610a92565b6001805462ffffff191662ffffff600293840b1617908190556000839055919591900b9350915050565b805180151581146107b257600080fd5b919050565b805161ffff811681146107b257600080fd5b803562ffffff811681146107b257600080fd5b6000602082840312156107ed578081fd5b81516107f881610c84565b9392505050565b600080600060608486031215610813578182fd5b833561081e81610c84565b9250602084013561082e81610c84565b915061083c604085016107c9565b90509250925092565b600080600080600060a0868803121561085c578081fd5b853561086781610c84565b9450602086013561087781610c84565b9350610885604087016107c9565b9250606086013561089581610cab565b915060808601356108a581610c9c565b809150509295509295909350565b6000602082840312156108c4578081fd5b815167ffffffffffffffff808211156108db578283fd5b818401915084601f8301126108ee578283fd5b81518181111561090057610900610c6e565b604051601f8201601f19908116603f0116810190838211818310171561092857610928610c6e565b81604052828152876020848701011115610940578586fd5b610951836020830160208801610c3e565b979650505050505050565b60006080828403121561096d578081fd5b6040516080810181811067ffffffffffffffff8211171561099057610990610c6e565b604052823561099e81610c84565b815260208301356109ae81610c84565b602082015260408301356109c181610c84565b60408201526109d2606084016107c9565b60608201529392505050565b6000806000806000806000806000806101408b8d0312156109fd578485fd5b8a51610a0881610c84565b60208c0151909a50610a1981610c9c565b8099505060408b0151975060608b0151965060808b0151610a3981610cab565b9550610a4760a08c016107a2565b9450610a5560c08c016107b7565b9350610a6360e08c016107b7565b9250610a726101008c016107b7565b9150610a816101208c016107a2565b90509295989b9194979a5092959850565b60008060408385031215610aa4578182fd5b825191506020830151610ab681610c9c565b809150509250929050565b60008060408385031215610ad3578081fd5b505080516020909101519092909150565b60008060008060608587031215610af9578182fd5b8435935060208501359250604085013567ffffffffffffffff80821115610b1e578384fd5b818701915087601f830112610b31578384fd5b813581811115610b3f578485fd5b886020828501011115610b50578485fd5b95989497505060200194505050565b60008151808452610b77816020860160208601610c3e565b601f01601f19169290920160200192915050565b60018060a01b03851681526001600160801b03841660208201528260020b6040820152608060608201526000610bc46080830184610b5f565b9695505050505050565b6020815260006107f86020830184610b5f565b602080825260039082015262783c7960e81b604082015260600190565b81516001600160a01b0390811682526020808401518216908301526040808401519091169082015260609182015162ffffff169181019190915260800190565b60005b83811015610c59578181015183820152602001610c41565b83811115610c68576000848401525b50505050565b634e487b7160e01b600052604160045260246000fd5b6001600160a01b0381168114610c9957600080fd5b50565b8060020b8114610c9957600080fd5b6001600160801b0381168114610c9957600080fdfea264697066735822122058314f12ad07fd996cd4609dc56f443d6411c83babbe3eb2411079c98c27909464736f6c63430008040033",
  "linkReferences": {},
  "deployedLinkReferences": {}
}