{
  "_format": "hh-sol-artifact-1",
  "contractName": "iZiSwapFactory",
  "sourceName": "contracts/iZiSwapFactory.sol",
  "abi": [
    {
      "inputs": [
        {
          "internalType": "address",
          "name": "_swapX2YModule",
          "type": "address"
        },
        {
          "internalType": "address",
          "name": "_swapY2XModule",
          "type": "address"
        },
        {
          "internalType": "address",
          "name": "_mintModule",
          "type": "address"
        }
      ],
      "stateMutability": "nonpayable",
      "type": "constructor"
    },
    {
      "anonymous": false,
      "inputs": [
        {
          "indexed": true,
          "internalType": "address",
          "name": "tokenX",
          "type": "address"
        },
        {
          "indexed": true,
          "internalType": "address",
          "name": "tokenY",
          "type": "address"
        },
        {
          "indexed": true,
          "internalType": "uint24",
          "name": "fee",
          "type": "uint24"
        },
        {
          "indexed": false,
          "internalType": "int24",
          "name": "pointDelta",
          "type": "int24"
        },
        {
          "indexed": false,
          "internalType": "address",
          "name": "pool",
          "type": "address"
        }
      ],
      "name": "NewPool",
      "type": "event"
    },
    {
      "inputs": [
        {
          "internalType": "uint24",
          "name": "fee",
          "type": "uint24"
        },
        {
          "internalType": "uint24",
          "name": "pointDelta",
          "type": "uint24"
        }
      ],
      "name": "enableFeeAmount",
      "outputs": [],
      "stateMutability": "nonpayable",
      "type": "function"
    },
    {
      "inputs": [
        {
          "internalType": "uint24",
          "name": "",
          "type": "uint24"
        }
      ],
      "name": "fee2pointDelta",
      "outputs": [
        {
          "internalType": "int24",
          "name": "",
          "type": "int24"
        }
      ],
      "stateMutability": "view",
      "type": "function"
    },
    {
      "inputs": [],
      "name": "mintModule",
      "outputs": [
        {
          "internalType": "address",
          "name": "",
          "type": "address"
        }
      ],
      "stateMutability": "view",
      "type": "function"
    },
    {
      "inputs": [
        {
          "internalType": "address",
          "name": "tokenX",
          "type": "address"
        },
        {
          "internalType": "address",
          "name": "tokenY",
          "type": "address"
        },
        {
          "internalType": "uint24",
          "name": "fee",
          "type": "uint24"
        },
        {
          "internalType": "int24",
          "name": "currentPoint",
          "type": "int24"
        }
      ],
      "name": "newPool",
      "outputs": [
        {
          "internalType": "address",
          "name": "addr",
          "type": "address"
        }
      ],
      "stateMutability": "nonpayable",
      "type": "function"
    },
    {
      "inputs": [],
      "name": "only_addr_",
      "outputs": [
        {
          "internalType": "address",
          "name": "",
          "type": "address"
        }
      ],
      "stateMutability": "view",
      "type": "function"
    },
    {
      "inputs": [],
      "name": "owner",
      "outputs": [
        {
          "internalType": "address",
          "name": "",
          "type": "address"
        }
      ],
      "stateMutability": "view",
      "type": "function"
    },
    {
      "inputs": [
        {
          "internalType": "address",
          "name": "",
          "type": "address"
        },
        {
          "internalType": "address",
          "name": "",
          "type": "address"
        },
        {
          "internalType": "uint24",
          "name": "",
          "type": "uint24"
        }
      ],
      "name": "pool",
      "outputs": [
        {
          "internalType": "address",
          "name": "",
          "type": "address"
        }
      ],
      "stateMutability": "view",
      "type": "function"
    },
    {
      "inputs": [],
      "name": "swapX2YModule",
      "outputs": [
        {
          "internalType": "address",
          "name": "",
          "type": "address"
        }
      ],
      "stateMutability": "view",
      "type": "function"
    },
    {
      "inputs": [],
      "name": "swapY2XModule",
      "outputs": [
        {
          "internalType": "address",
          "name": "",
          "type": "address"
        }
      ],
      "stateMutability": "view",
      "type": "function"
    }
  ],
  "bytecode": "0x608060405234801561001057600080fd5b5060405161572338038061572383398101604081905261002f91610109565b600380546001600160a01b031990811630179091556000805482163317815560026020527febaffbad3b7fced837389fa2c76ef17bd16e01452243bc801329ba9c392c939f805462ffffff19908116600a17909155610bb89091527f8f2d796c159bb2bb788bc3f1a337a929c07b0cf1d9277451fd5f909c263c02d680549091166032179055600480546001600160a01b0395861690831617905560058054938516938216939093179092556006805491909316911617905561014b565b80516001600160a01b038116811461010457600080fd5b919050565b60008060006060848603121561011d578283fd5b610126846100ed565b9250610134602085016100ed565b9150610142604085016100ed565b90509250925092565b6155c98061015a6000396000f3fe60806040523480156200001157600080fd5b50600436106200009f5760003560e01c806378eda67b116200006e57806378eda67b146200013e57806386df77de14620001555780638da5cb5b1462000169578063becbcc6a146200017d578063dbd3abde14620001ba57600080fd5b806310a17ee814620000a4578063254ace8f14620000bd5780633c08189814620000ee5780633ce8e8db1462000102575b600080fd5b620000bb620000b536600462000657565b620001ce565b005b600454620000d1906001600160a01b031681565b6040516001600160a01b0390911681526020015b60405180910390f35b600354620000d1906001600160a01b031681565b6200012a6200011336600462000633565b600260208190526000918252604090912054900b81565b60405160029190910b8152602001620000e5565b620000d16200014f366004620005d1565b620002e4565b600554620000d1906001600160a01b031681565b600054620000d1906001600160a01b031681565b620000d16200018e36600462000588565b60016020908152600093845260408085208252928452828420905282529020546001600160a01b031681565b600654620000d1906001600160a01b031681565b6003546001600160a01b03163014620001e657600080fd5b6000546001600160a01b031633146200022b5760405162461bcd60e51b815260206004820152600260248201526127a760f11b60448201526064015b60405180910390fd5b60018162ffffff1611620002675760405162461bcd60e51b8152602060048201526002602482015261503160f01b604482015260640162000222565b62ffffff8216600090815260026020819052604090912054810b900b15620002b85760405162461bcd60e51b815260206004820152600360248201526204644360ec1b604482015260640162000222565b62ffffff9182166000908152600260208190526040909120805462ffffff19169290910b909216179055565b6003546000906001600160a01b03163014620002ff57600080fd5b836001600160a01b0316856001600160a01b031614156200034c5760405162461bcd60e51b81526004016200022290602080825260049082015263536d544b60e01b604082015260600190565b836001600160a01b0316856001600160a01b031611156200036b579293925b6001600160a01b0385811660009081526001602090815260408083208885168452825280832062ffffff881684529091529020541615620003ab57600080fd5b62ffffff83166000908152600260208190526040822054810b919082900b13620003d457600080fd5b604080516001600160a01b03808916602083015287169181019190915262ffffff85166060820152600090608001604051602081830303815290604052805190602001209050803088888888876040516200042f9062000549565b6001600160a01b039687168152948616602086015292909416604084015262ffffff166060830152600292830b608083015290910b60a082015260c0018190604051809103906000f59050801580156200048d573d6000803e3d6000fd5b506001600160a01b0388811660008181526001602081815260408084208d871680865290835281852062ffffff8e168087529084528286208054988a166001600160a01b0319998a168117909155828752948452828620878752845282862081875284529482902080549097168417909655805160028a900b81529182019290925294975090937f76996d5b11a176111557912f7553937b9d34bd66c7b04ff81b3c7b3f4b93d864910160405180910390a45050949350505050565b614f05806200068f83390190565b80356001600160a01b03811681146200056f57600080fd5b919050565b803562ffffff811681146200056f57600080fd5b6000806000606084860312156200059d578283fd5b620005a88462000557565b9250620005b86020850162000557565b9150620005c86040850162000574565b90509250925092565b60008060008060808587031215620005e7578081fd5b620005f28562000557565b9350620006026020860162000557565b9250620006126040860162000574565b915060608501358060020b811462000628578182fd5b939692955090935050565b60006020828403121562000645578081fd5b620006508262000574565b9392505050565b600080604083850312156200066a578182fd5b620006758362000574565b9150620006856020840162000574565b9050925092905056fe60806040523480156200001157600080fd5b5060405162004f0538038062004f05833981016040819052620000349162000b7d565b836001600160a01b0316856001600160a01b031610620000815760405162461bcd60e51b8152602060048201526003602482015262783c7960e81b60448201526064015b60405180910390fd5b60018160020b136200009257600080fd5b6201001180546001600160a01b03199081163017909155600180546001600160a01b0389169216821790556040805163254ace8f60e01b8152905163254ace8f916004808201926020929091908290030181600087803b158015620000f657600080fd5b505af11580156200010b573d6000803e3d6000fd5b505050506040513d601f19601f8201168201806040525081019062000131919062000b59565b6201001260006101000a8154816001600160a01b0302191690836001600160a01b03160217905550856001600160a01b03166386df77de6040518163ffffffff1660e01b8152600401602060405180830381600087803b1580156200019557600080fd5b505af1158015620001aa573d6000803e3d6000fd5b505050506040513d601f19601f82011682018060405250810190620001d0919062000b59565b6201001360006101000a8154816001600160a01b0302191690836001600160a01b03160217905550856001600160a01b031663dbd3abde6040518163ffffffff1660e01b8152600401602060405180830381600087803b1580156200023457600080fd5b505af115801562000249573d6000803e3d6000fd5b505050506040513d601f19601f820116820180604052508101906200026f919062000b59565b6201001480546001600160a01b0319166001600160a01b03928316179055604080518082019091526009815268039bbb0b82c192c9d160bd1b6020808301919091526201001254620002cc93169062000538811b62001bcd17901c565b6200031b60405180604001604052806009815260200168039bbb0b82c992c1d160bd1b8152506201001360009054906101000a90046001600160a01b03166200053860201b62001bcd1760201c565b600280546001600160a01b038088166001600160a01b0319909216919091178255600380549284900b62ffffff908116600160b81b0262ffffff60b81b19918816600160a01b026001600160b81b03199095169389169390931793909317929092161790556200038b8162000589565b600054600290810b810b9083900b1215620003ce5760405162461bcd60e51b81526020600482015260026024820152614c4f60f01b604482015260640162000078565b60005463010000009004600290810b810b9083900b1315620004185760405162461bcd60e51b8152602060048201526002602482015261484f60f01b604482015260640162000078565b6007805462ffffff60a01b1916600160a01b62ffffff600286900b16021790556200044f826200066b602090811b62001c1217901c565b600780546001600160a01b0319166001600160a01b0392909216919091179055600a805460006008819055600955600160801b600166ff00000000000160881b0319909116179055620004af60016200066b602090811b62001c1217901c565b600660006101000a8154816001600160a01b0302191690836001600160a01b03160217905550620004f043601262000aca60201b6200202e1790919060201c565b600a805463ffffffff60981b1916600160a81b61ffff9384160261ffff60981b191617600160981b93909216929092021761ffff60881b191690555062000eb9945050505050565b6200058582826040516024016200055192919062000c05565b60408051601f198184030181529190526020810180516001600160e01b0390811663319af33360e01b1790915262000b0816565b5050565b806200059981620c350062000cb1565b620005a5919062000d31565b6000805465ffffff0000001916630100000062ffffff600294850b1681029190911791829055620005da929104900b62000e4c565b6000805462ffffff191662ffffff600293840b1617808255909183916200060e9181810b9163010000009004900b62000de8565b6200061a919062000cb1565b6200062790600162000c6c565b90506200064162ffffff82166001600160801b0362000cf1565b600060066101000a8154816001600160801b0302191690836001600160801b031602179055505050565b60008060008360020b1262000684578260020b62000693565b8260020b620006939062000e70565b9050620006a4620d89e71962000e4c565b60020b811115620006dc5760405162461bcd60e51b81526020600482015260016024820152601560fa1b604482015260640162000078565b600060018216620006f257600160801b62000704565b6ffffcb933bd6fad37aa2d162d1a5940015b6001600160881b0316905060028216156200073c57608062000737826ffff97272373d413259a46990580e213a62000dc6565b901c90505b60048216156200076957608062000764826ffff2e50f5f656932ef12357cf3c7fdcc62000dc6565b901c90505b60088216156200079657608062000791826fffe5caca7e10e4e61c3624eaa0941cd062000dc6565b901c90505b6010821615620007c3576080620007be826fffcb9843d60f6159c9db58835c92664462000dc6565b901c90505b6020821615620007f0576080620007eb826fff973b41fa98c081472e6896dfb254c062000dc6565b901c90505b60408216156200081d57608062000818826fff2ea16466c96a3843ec78b326b5286162000dc6565b901c90505b60808216156200084a57608062000845826ffe5dee046a99a2a811c461f1969c305362000dc6565b901c90505b6101008216156200087857608062000873826ffcbe86c7900a88aedcffc83b479aa3a462000dc6565b901c90505b610200821615620008a6576080620008a1826ff987a7253ac413176f2b074cf7815e5462000dc6565b901c90505b610400821615620008d4576080620008cf826ff3392b0822b70005940c7a398e4b70f362000dc6565b901c90505b61080082161562000902576080620008fd826fe7159475a2c29b7443b29c7fa6e889d962000dc6565b901c90505b611000821615620009305760806200092b826fd097f3bdfd2022b8845ad8f792aa582562000dc6565b901c90505b6120008216156200095e57608062000959826fa9f746462d870fdf8a65dc1f90e061e562000dc6565b901c90505b6140008216156200098c57608062000987826f70d869a156d2a1b890bb3df62baf32f762000dc6565b901c90505b618000821615620009ba576080620009b5826f31be135f97d08fd981231505542fcfa662000dc6565b901c90505b62010000821615620009e9576080620009e4826f09aa508b5b7a84e1c677de54f3e99bc962000dc6565b901c90505b6202000082161562000a1757608062000a12826e5d6af8dedb81196699c329225ee60462000dc6565b901c90505b6204000082161562000a4457608062000a3f826d2216e584f5fa1ea926041bedfe9862000dc6565b901c90505b6208000082161562000a6f57608062000a6a826b048a170391f7dc42444e8fa262000dc6565b901c90505b60008460020b131562000a8d5762000a8a8160001962000d1a565b90505b62000a9e6401000000008262000e35565b1562000aac57600162000aaf565b60005b62000ac29060ff16602083901c62000c96565b949350505050565b6040805160808101825263ffffffff929092168083526000602084018190529183019190915260016060909201829052600160f81b17909155908190565b80516a636f6e736f6c652e6c6f67602083016000808483855afa5050505050565b80516001600160a01b038116811462000b4157600080fd5b919050565b8051600281900b811462000b4157600080fd5b60006020828403121562000b6b578081fd5b62000b768262000b29565b9392505050565b60008060008060008060c0878903121562000b96578182fd5b62000ba18762000b29565b955062000bb16020880162000b29565b945062000bc16040880162000b29565b9350606087015162ffffff8116811462000bd9578283fd5b925062000be96080880162000b46565b915062000bf960a0880162000b46565b90509295509295509295565b6040815260008351806040840152815b8181101562000c34576020818701810151606086840101520162000c15565b8181111562000c465782606083860101525b506001600160a01b0393909316602083015250601f91909101601f191601606001919050565b600062ffffff80831681851680830382111562000c8d5762000c8d62000e8d565b01949350505050565b6000821982111562000cac5762000cac62000e8d565b500190565b60008160020b8360020b8062000ccb5762000ccb62000ea3565b627fffff1982146000198214161562000ce85762000ce862000e8d565b90059392505050565b60006001600160801b038381168062000d0e5762000d0e62000ea3565b92169190910492915050565b60008262000d2c5762000d2c62000ea3565b500490565b60008160020b8360020b627fffff8382138484138383048511828216161562000d5e5762000d5e62000e8d565b627fffff198685128281168783058712161562000d7f5762000d7f62000e8d565b87871292508582058712848416161562000d9d5762000d9d62000e8d565b8585058712818416161562000db65762000db662000e8d565b5050509290910295945050505050565b600081600019048311821515161562000de35762000de362000e8d565b500290565b60008160020b8360020b82811281627fffff190183128115161562000e115762000e1162000e8d565b81627fffff01831381161562000e2b5762000e2b62000e8d565b5090039392505050565b60008262000e475762000e4762000ea3565b500690565b60008160020b627fffff1981141562000e695762000e6962000e8d565b9003919050565b6000600160ff1b82141562000e895762000e8962000e8d565b0390565b634e487b7160e01b600052601160045260246000fd5b634e487b7160e01b600052601260045260246000fd5b61403c8062000ec96000396000f3fe608060405234801561001057600080fd5b506004361061021c5760003560e01c80636d01843b11610125578063b52acf1e116100ad578063d3b168641161007c578063d3b16864146107d6578063ddca3f43146107ea578063edcba3b214610814578063f094685a14610837578063ff12504e1461084a57600080fd5b8063b52acf1e146106c3578063b7d19fc4146106d6578063c19d93fb146106e9578063c45a0155146107c357600080fd5b80638790aca3116100f45780638790aca31461058657806387e7d5fe146105f6578063883bdbfd1461066f57806398a0f72e14610690578063a34123a7146106b057600080fd5b80636d01843b146104c057806375c0e0d5146104dd578063857f812f14610560578063872d1f151461057357600080fd5b80632c481252116101a8578063588e59ae11610177578063588e59ae1461044057806358c51ce61461044957806359dd14361461045d57806362c944ca1461047057806362ccaafd1461048357600080fd5b80632c481252146103af5780633c8a7d8d146103c25780634cd70e91146103f5578063537c2d8e1461042057600080fd5b806316dc165b116101ef57806316dc165b1461030957806317fdacb91461031c5780631aae2e5514610331578063252c09d71461033a5780632be1c2081461038757600080fd5b806309beabc1146102215780630e1552f014610251578063126b73d4146102835780631621835f146102a4575b600080fd5b600654610234906001600160a01b031681565b6040516001600160a01b0390911681526020015b60405180910390f35b61026461025f366004613595565b61085d565b604080516001600160801b039093168352602083019190915201610248565b6102966102913660046137fe565b610c44565b604051908152602001610248565b6102e16102b236600461372f565b601160205260009081526040902080546001820154600283015460038401546004909401549293919290919085565b604080519586526020860194909452928401919091526060830152608082015260a001610248565b600254610234906001600160a01b031681565b61032f61032a3660046138fe565b610ca5565b005b61029660045481565b61034d61034836600461372f565b610d04565b6040805163ffffffff909516855260069390930b60208501526001600160a01b039091169183019190915215156060820152608001610248565b61039a61039536600461360b565b610d49565b60408051928352602083019190915201610248565b61039a6103bd366004613665565b610e28565b6103d56103d03660046134bb565b610f74565b604080516001600160801b03938416815292909116602083015201610248565b6104086104033660046137c8565b6110c3565b6040516001600160801b039091168152602001610248565b60005461042d9060020b81565b60405160029190910b8152602001610248565b61029660055481565b60035461042d90600160b81b900460020b81565b61039a61046b366004613665565b6111fc565b61040861047e3660046137c8565b6112bb565b6102e161049136600461372f565b601060205260009081526040902080546001820154600283015460038401546004909401549293919290919085565b60005461040890660100000000000090046001600160801b031681565b6105296104eb366004613768565b600d6020526000908152604090208054600182015460028301546003909301546001600160801b03831693600160801b909304600f0b929060ff1685565b604080516001600160801b039096168652600f9490940b60208601529284019190915260608301521515608082015260a001610248565b61039a61056e366004613665565b6113a5565b61039a610581366004613541565b611464565b6105c9610594366004613768565b600f60205260009081526040902080546001820154600283015460038401546004850154600590950154939492939192909186565b604080519687526020870195909552938501929092526060840152608083015260a082015260c001610248565b61063d61060436600461372f565b600b60205260009081526040902080546001820154600283015460038401546004909401546001600160801b0390931693919290919085565b604080516001600160801b0390961686526020860194909452928401919091526060830152608082015260a001610248565b61068261067d3660046136a3565b611537565b604051610248929190613a55565b61029661069e366004613747565b600c6020526000908152604090205481565b61039a6106be366004613782565b6115d5565b6102966106d13660046137fe565b61172d565b600354610234906001600160a01b031681565b600754600854600954600a54610756936001600160a01b03811693600160a01b90910460020b9290916001600160801b0381169060ff600160801b820481169161ffff600160881b8204811692600160981b8304821692600160a81b810490921691600160b81b9004168a565b604080516001600160a01b03909b168b5260029990990b60208b01529789019690965260608801949094526001600160801b039092166080870152151560a086015261ffff90811660c086015290811660e085015216610100830152151561012082015261014001610248565b600154610234906001600160a01b031681565b60005461042d906301000000900460020b81565b60035461080090600160a01b900462ffffff1681565b60405162ffffff9091168152602001610248565b61042d610822366004613768565b600e6020526000908152604090205460020b81565b61039a610845366004613665565b61173c565b610264610858366004613595565b6117fb565b600354600090819061087990600160b81b900460020b87613f0c565b60020b156108a25760405162461bcd60e51b815260040161089990613b4b565b60405180910390fd5b600754600160a01b9004600290810b810b9087900b13156108ea5760405162461bcd60e51b8152602060048201526002602482015261141360f21b6044820152606401610899565b600054600290810b810b9087900b121561092b5760405162461bcd60e51b81526020600482015260026024820152614c4f60f01b6044820152606401610899565b6000856001600160801b0316116109695760405162461bcd60e51b8152602060048201526002602482015261059560f41b6044820152606401610899565b5050600284810b900b6000908152600f602052604081208491908161098d88611c12565b60028301548354919250908015610a085760006109ab8a858461206c565b965090506109b98188613e23565b96506109c58683613e6b565b9150806001600160801b031685600301546109e09190613c43565b600386015560058501546109fe906001600160801b03831690613c43565b6005860155508084555b6001600160801b03861615610a3457610a2a6001600160801b03871683613c43565b6002850181905591505b6000610a4260108d8d612112565b60018601546004870154919250610a609183918a9188906000612169565b8560040181905550858160040154610a789190613c43565b600482015581158015610a89575082155b15610b0657600354600090610aa9908d90600160b81b900460020b6121a5565b90508060021660020b600014610b00576003546001821690610ad7908e90600160b81b900460020b836121f2565b8060020b60001415610afe57600354610afe90600c908f90600160b81b900460020b612239565b505b50610b7b565b600354600090610b21908d90600160b81b900460020b6121a5565b90508060021660020b60001415610b7957600354600280831791610b50918f91600160b81b9004900b836121f2565b8160020b60001415610b7757600354610b7790600c908f90600160b81b900460020b6122a2565b505b505b6000610b8561230a565b60405163420077fb60e11b81529091503390638400eff690610bb2906000908f908f908f90600401613adb565b600060405180830381600087803b158015610bcc57600080fd5b505af1158015610be0573d6000803e3d6000fd5b505050508a6001600160801b031681610bf99190613c43565b610c0161230a565b1015610c345760405162461bcd60e51b8152602060048201526002602482015261594560f01b6044820152606401610899565b5050505050509550959350505050565b806000610c5360113386612112565b90508060030154821115610c6957806003015491505b81816003016000828254610c7d9190613e6b565b9250508190555081816004016000828254610c989190613c43565b9091555091949350505050565b62010011546001600160a01b03163014610cbe57600080fd5b600a5461ffff600160a81b9091048116908216811015610d0057610ce4601282846123ea565b50600a805461ffff60a81b1916600160a81b61ffff8516021790555b5050565b60128161ffff8110610d1557600080fd5b015463ffffffff81169150600160201b810460060b90600160581b81046001600160a01b031690600160f81b900460ff1684565b600080600083610d6457610d5f60103389612112565b610d70565b610d7060113389612112565b90508592508060020154831115610d8957806002015492505b828160020154610d999190613e6b565b60028201556004810154859250821115610db557806004015491505b818160040154610dc59190613e6b565b600482015560008085610dd9578385610ddc565b84845b90925090508115610dfe57600254610dfe906001600160a01b03168b846124ab565b8015610e1b57600354610e1b906001600160a01b03168b836124ab565b5050509550959350505050565b620100115460009081906001600160a01b03163014610e4657600080fd5b600a54600160b81b900460ff1615610e705760405162461bcd60e51b815260040161089990613b67565b600a805460ff60b81b1916600160b81b179055620100135460405160009182916001600160a01b0390911690610eb2908b908b908b908b908b90602401613a1b565b60408051601f198184030181529181526020820180516001600160e01b0316631624092960e11b17905251610ee791906139b0565b600060405180830381855af49150503d8060008114610f22576040519150601f19603f3d011682016040523d82523d6000602084013e610f27565b606091505b50915091508115610f505780806020019051810190610f469190613938565b9094509250610f59565b610f59816125ac565b5050600a805460ff60b81b1916905590969095509350505050565b620100115460009081906001600160a01b03163014610f9257600080fd5b600a54600160b81b900460ff1615610fbc5760405162461bcd60e51b815260040161089990613b67565b600a805460ff60b81b1916600160b81b179055620100145460405160009182916001600160a01b0390911690611000908c908c908c908c908c908c906024016139cc565b60408051601f198184030181529181526020820180516001600160e01b0316633c8a7d8d60e01b1790525161103591906139b0565b600060405180830381855af49150503d8060008114611070576040519150601f19603f3d011682016040523d82523d6000602084013e611075565b606091505b5091509150811561109e578080602001905181019061109491906138d0565b90945092506110a7565b6110a7816125ac565b5050600a805460ff60b81b191690559097909650945050505050565b6003546000906110dd90600160b81b900460020b84613f0c565b60020b156110fd5760405162461bcd60e51b815260040161089990613b4b565b600061110b60113386612112565b600285810b900b6000908152600f6020526040812091925061112c86611c12565b6003830154600584015491925061114a91859188918590600161263f565b600584015582549094506001600160801b03851690839060009061116f908490613e6b565b90915550506001600160801b0384161580159061118b57508154155b156111f3576003546000906111ab908890600160b81b900460020b6121a5565b60011690506111ca87600360179054906101000a900460020b836121f2565b8060020b600014156111f1576003546111f190600c908990600160b81b900460020b612239565b505b50505092915050565b620100115460009081906001600160a01b0316301461121a57600080fd5b600a54600160b81b900460ff16156112445760405162461bcd60e51b815260040161089990613b67565b600a805460ff60b81b1916600160b81b179055620100125460405160009182916001600160a01b0390911690611286908b908b908b908b908b90602401613a1b565b60408051601f198184030181529181526020820180516001600160e01b0316632cee8a1b60e11b17905251610ee791906139b0565b6003546000906112d590600160b81b900460020b84613f0c565b60020b156112f55760405162461bcd60e51b815260040161089990613b4b565b600061130360103386612112565b600285810b900b6000908152600f6020526040812091925061132486611c12565b6001830154600484015491925061134291859188918590600061263f565b60048401556002830180549195506001600160801b03861691600090611369908490613e6b565b90915550506001600160801b0384161580159061118b575060028201546111f3576003546000906111ab908890600160b81b900460020b6121a5565b620100115460009081906001600160a01b031630146113c357600080fd5b600a54600160b81b900460ff16156113ed5760405162461bcd60e51b815260040161089990613b67565b600a805460ff60b81b1916600160b81b179055620100125460405160009182916001600160a01b039091169061142f908b908b908b908b908b90602401613a1b565b60408051601f198184030181529181526020820180516001600160e01b031663857f812f60e01b17905251610ee791906139b0565b620100115460009081906001600160a01b0316301461148257600080fd5b600a54600160b81b900460ff16156114ac5760405162461bcd60e51b815260040161089990613b67565b600a805460ff60b81b1916600160b81b17905562010014546040516001600160a01b038981166024830152600289810b604484015288900b60648301526084820187905260a48201869052600092839291169060c40160408051601f198184030181529181526020820180516001600160e01b031663872d1f1560e01b17905251610ee791906139b0565b620100115460609081906001600160a01b0316301461155557600080fd5b6115c94285858080602002602001604051908101604052809392919081815260200183836020028082843760009201919091525050600754600a54601295949350600160a01b90910460020b915061ffff600160881b82048116916001600160801b03811691600160981b909104166126ba565b915091505b9250929050565b620100115460009081906001600160a01b031630146115f357600080fd5b600a54600160b81b900460ff161561161d5760405162461bcd60e51b815260040161089990613b67565b600a805460ff60b81b1916600160b81b1790556201001454604051600287810b602483015286900b60448201526001600160801b038516606482015260009182916001600160a01b039091169060840160408051601f198184030181529181526020820180516001600160e01b031663a34123a760e01b179052516116a291906139b0565b600060405180830381855af49150503d80600081146116dd576040519150601f19603f3d011682016040523d82523d6000602084013e6116e2565b606091505b5091509150811561170b57808060200190518101906117019190613938565b9094509250611714565b611714816125ac565b5050600a805460ff60b81b191690559094909350915050565b806000610c5360103386612112565b620100115460009081906001600160a01b0316301461175a57600080fd5b600a54600160b81b900460ff16156117845760405162461bcd60e51b815260040161089990613b67565b600a805460ff60b81b1916600160b81b179055620100135460405160009182916001600160a01b03909116906117c6908b908b908b908b908b90602401613a1b565b60408051601f198184030181529181526020820180516001600160e01b031663784a342d60e11b17905251610ee791906139b0565b600354600090819061181790600160b81b900460020b87613f0c565b60020b156118375760405162461bcd60e51b815260040161089990613b4b565b600754600160a01b9004600290810b810b9087900b121561187f5760405162461bcd60e51b8152602060048201526002602482015261504760f01b6044820152606401610899565b60005463010000009004600290810b810b9087900b13156118c75760405162461bcd60e51b8152602060048201526002602482015261484f60f01b6044820152606401610899565b6000856001600160801b0316116119055760405162461bcd60e51b8152602060048201526002602482015261058560f41b6044820152606401610899565b5050600284810b900b6000908152600f602052604081208491908161192988611c12565b600283015483549192509081156119a85760006119478a858561286f565b965090506119558188613e23565b96506119618684613e6b565b9250806001600160801b0316856001015461197c9190613c43565b6001860155600485015461199a906001600160801b03831690613c43565b600486015550600284018290555b6001600160801b038616156119d0576119ca6001600160801b03871682613c43565b80855590505b60006119de60118d8d612112565b600386015460058701549192506119fc9183918a9188906001612169565b60058601556004810154611a11908790613c43565b600482015581158015611a22575082155b15611a9f57600354600090611a42908d90600160b81b900460020b6121a5565b90508060021660020b600014611a99576003546001821690611a70908e90600160b81b900460020b836121f2565b8060020b60001415611a9757600354611a9790600c908f90600160b81b900460020b612239565b505b50611b14565b600354600090611aba908d90600160b81b900460020b6121a5565b90508060021660020b60001415611b1257600354600280831791611ae9918f91600160b81b9004900b836121f2565b8160020b60001415611b1057600354611b1090600c908f90600160b81b900460020b6122a2565b505b505b6000611b1e6128f1565b60405163420077fb60e11b81529091503390638400eff690611b4b908e906000908f908f90600401613b84565b600060405180830381600087803b158015611b6557600080fd5b505af1158015611b79573d6000803e3d6000fd5b505050508a6001600160801b031681611b929190613c43565b611b9a6128f1565b1015610c345760405162461bcd60e51b8152602060048201526002602482015261584560f01b6044820152606401610899565b610d008282604051602401611be3929190613b21565b60408051601f198184030181529190526020810180516001600160e01b031663319af33360e01b17905261291f565b60008060008360020b12611c29578260020b611c36565b8260020b611c3690613f84565b9050611c45620d89e719613f63565b60020b811115611c7b5760405162461bcd60e51b81526020600482015260016024820152601560fa1b6044820152606401610899565b600060018216611c8f57600160801b611ca1565b6ffffcb933bd6fad37aa2d162d1a5940015b70ffffffffffffffffffffffffffffffffff1690506002821615611ce0576080611cdb826ffff97272373d413259a46990580e213a613db5565b901c90505b6004821615611d0a576080611d05826ffff2e50f5f656932ef12357cf3c7fdcc613db5565b901c90505b6008821615611d34576080611d2f826fffe5caca7e10e4e61c3624eaa0941cd0613db5565b901c90505b6010821615611d5e576080611d59826fffcb9843d60f6159c9db58835c926644613db5565b901c90505b6020821615611d88576080611d83826fff973b41fa98c081472e6896dfb254c0613db5565b901c90505b6040821615611db2576080611dad826fff2ea16466c96a3843ec78b326b52861613db5565b901c90505b6080821615611ddc576080611dd7826ffe5dee046a99a2a811c461f1969c3053613db5565b901c90505b610100821615611e07576080611e02826ffcbe86c7900a88aedcffc83b479aa3a4613db5565b901c90505b610200821615611e32576080611e2d826ff987a7253ac413176f2b074cf7815e54613db5565b901c90505b610400821615611e5d576080611e58826ff3392b0822b70005940c7a398e4b70f3613db5565b901c90505b610800821615611e88576080611e83826fe7159475a2c29b7443b29c7fa6e889d9613db5565b901c90505b611000821615611eb3576080611eae826fd097f3bdfd2022b8845ad8f792aa5825613db5565b901c90505b612000821615611ede576080611ed9826fa9f746462d870fdf8a65dc1f90e061e5613db5565b901c90505b614000821615611f09576080611f04826f70d869a156d2a1b890bb3df62baf32f7613db5565b901c90505b618000821615611f34576080611f2f826f31be135f97d08fd981231505542fcfa6613db5565b901c90505b62010000821615611f60576080611f5b826f09aa508b5b7a84e1c677de54f3e99bc9613db5565b901c90505b62020000821615611f8b576080611f86826e5d6af8dedb81196699c329225ee604613db5565b901c90505b62040000821615611fb5576080611fb0826d2216e584f5fa1ea926041bedfe98613db5565b901c90505b62080000821615611fdd576080611fd8826b048a170391f7dc42444e8fa2613db5565b901c90505b60008460020b1315611ff857611ff581600019613d10565b90505b612006600160201b82613f4f565b15612012576001612015565b60005b6120269060ff16602083901c613c43565b949350505050565b6040805160808101825263ffffffff929092168083526000602084018190529183019190915260016060909201829052600160f81b17909155908190565b6000806000612092866001600160801b0316600160601b876001600160a01b0316612940565b90506120ac81600160601b876001600160a01b0316612940565b9150838211156120ba578391505b6120d282866001600160a01b0316600160601b6129ed565b905060006120ee82876001600160a01b0316600160601b6129ed565b905080935080846001600160801b03161461210857600080fd5b5050935093915050565b6040805160609390931b6bffffffffffffffffffffffff191660208085019190915260029290920b60e81b603484015280516017818503018152603790930181528251928201929092206000908152929052902090565b60006121788786868686612a44565b9050856001600160801b031687600101546121939190613c43565b87600101819055509695505050505050565b60006121b18284613f0c565b60020b156121c1575060006121ec565b600e60006121cf8486613c7b565b600290810b810b8252602082019290925260400160002054900b90505b92915050565b80600e60006122018587613c7b565b60020b60020b815260200190815260200160002060006101000a81548162ffffff021916908360020b62ffffff160217905550505050565b6122438183613f0c565b60020b1561225057600080fd5b600061225c8284613c7b565b9050600281900b60081d600061227461010084613f0c565b600192830b830b60009081526020979097526040909620805460ff9097169290921b19909516905550505050565b6122ac8183613f0c565b60020b156122b957600080fd5b60006122c58284613c7b565b9050600281900b60081d60006122dd61010084613f0c565b600192830b830b60009081526020979097526040909620805460ff9097169290921b909517905550505050565b600354604051306024820152600091829182916001600160a01b0316906370a0823160e01b906044015b60408051601f198184030181529181526020820180516001600160e01b03166001600160e01b031990941693909317909252905161237291906139b0565b600060405180830381855afa9150503d80600081146123ad576040519150601f19603f3d011682016040523d82523d6000602084013e6123b2565b606091505b50915091508180156123c657506020815110155b6123cf57600080fd5b808060200190518101906123e39190613920565b9250505090565b6000808361ffff16116124255760405162461bcd60e51b81526020600482015260036024820152622622a760e91b6044820152606401610899565b8261ffff168261ffff161161243b5750816124a4565b825b8261ffff168161ffff16101561249f576001858261ffff1661ffff811061247457634e487b7160e01b600052603260045260246000fd5b01805463ffffffff191663ffffffff929092169190911790558061249781613ecf565b91505061243d565b508190505b9392505050565b604080516001600160a01b038481166024830152604480830185905283518084039091018152606490920183526020820180516001600160e01b031663a9059cbb60e01b179052915160009283929087169161250791906139b0565b6000604051808303816000865af19150503d8060008114612544576040519150601f19603f3d011682016040523d82523d6000602084013e612549565b606091505b50915091508180156125735750805115806125735750808060200190518101906125739190613713565b6125a55760405162461bcd60e51b8152602060048201526003602482015262544e5360e81b6044820152606401610899565b5050505050565b805160401461261f576044815110156125ec5760405162461bcd60e51b8152602060048201526002602482015261646360f01b6044820152606401610899565b600481019050808060200190518101906126069190613827565b60405162461bcd60e51b81526004016108999190613b0e565b602081019050805160405181815260208301519150816020820152604081fd5b60008061264f8887878787612a44565b90508691508760010154826001600160801b0316111561267157876001015491505b816001600160801b0316886001015461268a9190613e6b565b600189015560028801546126a8906001600160801b03841690613c43565b60029098019790975596945050505050565b60608060008361ffff16116126f55760405162461bcd60e51b81526020600482015260016024820152604960f81b6044820152606401610899565b865167ffffffffffffffff81111561271d57634e487b7160e01b600052604160045260246000fd5b604051908082528060200260200182016040528015612746578160200160208202803683370190505b509150865167ffffffffffffffff81111561277157634e487b7160e01b600052604160045260246000fd5b60405190808252806020026020018201604052801561279a578160200160208202803683370190505b50905060005b8751811015612862576127df8a8a8a84815181106127ce57634e487b7160e01b600052603260045260246000fd5b60200260200101518a8a8a8a612c09565b8483815181106127ff57634e487b7160e01b600052603260045260246000fd5b6020026020010184848151811061282657634e487b7160e01b600052603260045260246000fd5b60200260200101826001600160a01b03166001600160a01b03168152508260060b60060b8152505050808061285a90613ef1565b9150506127a0565b5097509795505050505050565b6000806000612895866001600160801b0316866001600160a01b0316600160601b612940565b90506128af81866001600160a01b0316600160601b612940565b9150838211156128bd578391505b6128d582600160601b876001600160a01b03166129ed565b905060006120ee82600160601b886001600160a01b03166129ed565b600254604051306024820152600091829182916001600160a01b0316906370a0823160e01b90604401612334565b80516a636f6e736f6c652e6c6f67602083016000808483855afa5050505050565b60008080600019858709858702925082811083820303915050806000141561297a576000841161296f57600080fd5b5082900490506124a4565b80841161298657600080fd5b6000848688096001861981018716968790046003810260029081188083028203028083028203028083028203028083028203028083028203029182029003026000889003889004909101858311909403939093029303949094049190911702949350505050565b60006129fa848484612940565b905060008280612a1a57634e487b7160e01b600052601260045260246000fd5b84860911156124a4576000198110612a3157600080fd5b80612a3b81613ef1565b95945050505050565b6040805160a08101825286548082526001880154602083015260028801549282019290925260038701546060820152600487015460808201526000918290612a8c9088613e6b565b905084811115612a995750835b60008415612add576000612abb83600160601b8a6001600160a01b03166129ed565b9050612ad581600160601b8a6001600160a01b03166129ed565b915050612b15565b6000612af783896001600160a01b0316600160601b6129ed565b9050612b1181896001600160a01b0316600160601b6129ed565b9150505b8260200151811115612ba1575060208201518415612b69576000612b4782896001600160a01b0316600160601b612940565b9050612b6181896001600160a01b0316600160601b612940565b925050612ba1565b6000612b8382600160601b8a6001600160a01b0316612940565b9050612b9d81600160601b8a6001600160a01b0316612940565b9250505b8183606001818151612bb39190613c43565b905250602083018051829190612bca908390613e6b565b9052508789558115612be157606083015160038a01555b8015612bf257602083015160018a01555b612bfc8287613e6b565b9998505050505050505050565b60008063ffffffff8716612cc3576000898661ffff1661ffff8110612c3e57634e487b7160e01b600052603260045260246000fd5b60408051608081018252919092015463ffffffff808216808452600160201b8304600690810b810b900b6020850152600160581b83046001600160a01b031694840194909452600160f81b90910460ff16151560608301529092508a1614612caf57612cac818a8988612e12565b90505b806020015181604001519250925050612e06565b6000612ccf888a613e82565b9050600080612ce38c8c858c8c8c8c612ef3565b91509150816000015163ffffffff168363ffffffff161415612d15578160200151826040015194509450505050612e06565b805163ffffffff84811691161415612d3d578060200151816040015194509450505050612e06565b81518151600091612d4d91613e82565b63ffffffff1690506000836000015185612d679190613e82565b63ffffffff169050808285602001518560200151612d859190613dd4565b612d8f9190613cb5565b612d999190613d24565b8460200151612da89190613bad565b8266ffffffffffffff168266ffffffffffffff1686604001518660400151612dd09190613e4b565b6001600160a01b0316612de39190613db5565b612ded9190613d10565b8560400151612dfc9190613c21565b9650965050505050505b97509795505050505050565b6040805160808101825260008082526020820181905291810182905260608101919091528451600090612e459086613e82565b63ffffffff16905060405180608001604052808663ffffffff168152602001828660020b612e739190613d24565b8860200151612e829190613bad565b60060b81526020016000856001600160801b031611612ea2576001612ea4565b845b612ec7906001600160801b031666ffffffffffffff60801b608086901b16613cea565b8860400151612ed69190613c21565b6001600160a01b0316815260016020909101529695505050505050565b604080516080810182526000808252602082018190529181018290526060810191909152604080516080810182526000808252602082018190529181018290526060810191909152888561ffff1661ffff8110612f6057634e487b7160e01b600052603260045260246000fd5b60408051608081018252919092015463ffffffff8116808352600160201b8204600690810b810b900b6020840152600160581b82046001600160a01b031693830193909352600160f81b900460ff16151560608201529250612fc49089908961314b565b15612ffe578663ffffffff16826000015163ffffffff161415612fe8575080612e06565b81612ff583898988612e12565b91509150612e06565b888361300b876001613bfb565b6130159190613f2e565b61ffff1661ffff811061303857634e487b7160e01b600052603260045260246000fd5b60408051608081018252929091015463ffffffff81168352600160201b8104600690810b810b900b60208401526001600160a01b03600160581b8204169183019190915260ff600160f81b909104161515606082018190529092506130ed57604080516080810182528a5463ffffffff81168252600160201b8104600690810b810b900b6020830152600160581b81046001600160a01b031692820192909252600160f81b90910460ff161515606082015291505b6130fc8883600001518961314b565b61312e5760405162461bcd60e51b815260206004820152600360248201526213d31160ea1b6044820152606401610899565b61313b898989888761321a565b9150915097509795505050505050565b60008363ffffffff168363ffffffff161115801561317557508363ffffffff168263ffffffff1611155b15613191578163ffffffff168363ffffffff16111590506124a4565b60008463ffffffff168463ffffffff16116131bf576131ba63ffffffff8516600160201b613c5b565b6131c7565b8363ffffffff165b64ffffffffff16905060008563ffffffff168463ffffffff16116131fe576131f963ffffffff8516600160201b613c5b565b613206565b8363ffffffff165b64ffffffffff169091111595945050505050565b604080516080810182526000808252602082018190529181018290526060810191909152604080516080810182526000808252602082018190529181018290526060810191909152600083613270866001613bfb565b61327a9190613f2e565b61ffff169050600060018561ffff16836132949190613c43565b61329e9190613e6b565b905060005b60026132af8385613c43565b6132b99190613d10565b9050896132ca61ffff881683613f4f565b61ffff81106132e957634e487b7160e01b600052603260045260246000fd5b60408051608081018252929091015463ffffffff81168352600160201b8104600690810b810b900b60208401526001600160a01b03600160581b8204169183019190915260ff600160f81b9091041615156060820181905290955061335a57613353816001613c43565b92506132a3565b8961ffff871661336b836001613c43565b6133759190613f4f565b61ffff811061339457634e487b7160e01b600052603260045260246000fd5b60408051608081018252929091015463ffffffff81168352600160201b8104600690810b810b900b60208401526001600160a01b03600160581b8204169183019190915260ff600160f81b909104161515606082015285519094506000906133fe908b908b61314b565b905080801561341757506134178a8a876000015161314b565b156134225750610e1b565b8061343957613432600183613e6b565b9250613447565b613444826001613c43565b93505b506132a3565b80356001600160a01b038116811461346457600080fd5b919050565b60008083601f84011261347a578182fd5b50813567ffffffffffffffff811115613491578182fd5b6020830191508360208285010111156115ce57600080fd5b8035600281900b811461346457600080fd5b60008060008060008060a087890312156134d3578182fd5b6134dc8761344d565b95506134ea602088016134a9565b94506134f8604088016134a9565b9350606087013561350881613ff1565b9250608087013567ffffffffffffffff811115613523578283fd5b61352f89828a01613469565b979a9699509497509295939492505050565b600080600080600060a08688031215613558578081fd5b6135618661344d565b945061356f602087016134a9565b935061357d604087016134a9565b94979396509394606081013594506080013592915050565b6000806000806000608086880312156135ac578081fd5b6135b58661344d565b94506135c3602087016134a9565b935060408601356135d381613ff1565b9250606086013567ffffffffffffffff8111156135ee578182fd5b6135fa88828901613469565b969995985093965092949392505050565b600080600080600060a08688031215613622578081fd5b61362b8661344d565b9450613639602087016134a9565b93506040860135925060608601359150608086013561365781613fe0565b809150509295509295909350565b60008060008060006080868803121561367c578081fd5b6136858661344d565b9450602086013561369581613ff1565b93506135d3604087016134a9565b600080602083850312156136b5578182fd5b823567ffffffffffffffff808211156136cc578384fd5b818501915085601f8301126136df578384fd5b8135818111156136ed578485fd5b8660208260051b8501011115613701578485fd5b60209290920196919550909350505050565b600060208284031215613724578081fd5b81516124a481613fe0565b600060208284031215613740578081fd5b5035919050565b600060208284031215613758578081fd5b81358060010b81146124a4578182fd5b600060208284031215613779578081fd5b6124a4826134a9565b600080600060608486031215613796578081fd5b61379f846134a9565b92506137ad602085016134a9565b915060408401356137bd81613ff1565b809150509250925092565b600080604083850312156137da578182fd5b6137e3836134a9565b915060208301356137f381613ff1565b809150509250929050565b60008060408385031215613810578182fd5b613819836134a9565b946020939093013593505050565b600060208284031215613838578081fd5b815167ffffffffffffffff8082111561384f578283fd5b818401915084601f830112613862578283fd5b81518181111561387457613874613fca565b604051601f8201601f19908116603f0116810190838211818310171561389c5761389c613fca565b816040528281528760208487010111156138b4578586fd5b6138c5836020830160208801613e9f565b979650505050505050565b600080604083850312156138e2578182fd5b82516138ed81613ff1565b60208401519092506137f381613ff1565b60006020828403121561390f578081fd5b813561ffff811681146124a4578182fd5b600060208284031215613931578081fd5b5051919050565b6000806040838503121561394a578182fd5b505080516020909101519092909150565b81835281816020850137506000828201602090810191909152601f909101601f19169091010190565b6000815180845261399c816020860160208601613e9f565b601f01601f19169290920160200192915050565b600082516139c2818460208701613e9f565b9190910192915050565b60018060a01b03871681528560020b60208201528460020b60408201526001600160801b038416606082015260a060808201526000613a0f60a08301848661395b565b98975050505050505050565b60018060a01b03861681526001600160801b03851660208201528360020b60408201526080606082015260006138c560808301848661395b565b604080825283519082018190526000906020906060840190828701845b82811015613a9157815160060b84529284019290840190600101613a72565b50505083810382850152845180825285830191830190845b81811015613ace5783516001600160a01b031683529284019291840191600101613aa9565b5090979650505050505050565b8481526001600160801b0384166020820152606060408201526000613b0460608301848661395b565b9695505050505050565b6020815260006124a46020830184613984565b604081526000613b346040830185613984565b905060018060a01b03831660208301529392505050565b602080825260029082015261141160f21b604082015260600190565b6020808252600390820152621312d160ea1b604082015260600190565b6001600160801b0385168152836020820152606060408201526000613b0460608301848661395b565b60008160060b8360060b82821282667fffffffffffff03821381151615613bd657613bd6613f9e565b82667fffffffffffff19038212811615613bf257613bf2613f9e565b50019392505050565b600061ffff808316818516808303821115613c1857613c18613f9e565b01949350505050565b60006001600160a01b03828116848216808303821115613c1857613c18613f9e565b60008219821115613c5657613c56613f9e565b500190565b600064ffffffffff808316818516808303821115613c1857613c18613f9e565b60008160020b8360020b80613c9257613c92613fb4565b627fffff19821460001982141615613cac57613cac613f9e565b90059392505050565b60008160060b8360060b80613ccc57613ccc613fb4565b667fffffffffffff19821460001982141615613cac57613cac613f9e565b60006001600160a01b0383811680613d0457613d04613fb4565b92169190910492915050565b600082613d1f57613d1f613fb4565b500490565b60008160060b8360060b667fffffffffffff83821384841383830485118282161615613d5257613d52613f9e565b667fffffffffffff1986851282811687830587121615613d7457613d74613f9e565b878712925085820587128484161615613d8f57613d8f613f9e565b85850587128184161615613da557613da5613f9e565b5050509290910295945050505050565b6000816000190483118215151615613dcf57613dcf613f9e565b500290565b60008160060b8360060b82811281667fffffffffffff1901831281151615613dfe57613dfe613f9e565b81667fffffffffffff018313811615613e1957613e19613f9e565b5090039392505050565b60006001600160801b0383811690831681811015613e4357613e43613f9e565b039392505050565b60006001600160a01b0383811690831681811015613e4357613e43613f9e565b600082821015613e7d57613e7d613f9e565b500390565b600063ffffffff83811690831681811015613e4357613e43613f9e565b60005b83811015613eba578181015183820152602001613ea2565b83811115613ec9576000848401525b50505050565b600061ffff80831681811415613ee757613ee7613f9e565b6001019392505050565b6000600019821415613f0557613f05613f9e565b5060010190565b60008260020b80613f1f57613f1f613fb4565b808360020b0791505092915050565b600061ffff80841680613f4357613f43613fb4565b92169190910692915050565b600082613f5e57613f5e613fb4565b500690565b60008160020b627fffff19811415613f7d57613f7d613f9e565b9003919050565b6000600160ff1b821415613f9a57613f9a613f9e565b0390565b634e487b7160e01b600052601160045260246000fd5b634e487b7160e01b600052601260045260246000fd5b634e487b7160e01b600052604160045260246000fd5b8015158114613fee57600080fd5b50565b6001600160801b0381168114613fee57600080fdfea264697066735822122092b91ef9353584fe8d8705b66138a82ace9b0fed5269973ebab72c199006503264736f6c63430008040033a26469706673582212200f6463e8f53b8848db365507fd81e842d040903c1f28e22108eee3bef03c648564736f6c63430008040033",
  "linkReferences": {},
  "deployedLinkReferences": {}
}