{
  "_format": "hh-sol-artifact-1",
  "contractName": "LimitOrderModule",
  "sourceName": "contracts/limitOrder.sol",
  "abi": [
    {
      "inputs": [
        {
          "internalType": "address",
          "name": "recipient",
          "type": "address"
        },
        {
          "internalType": "int24",
          "name": "point",
          "type": "int24"
        },
        {
          "internalType": "uint128",
          "name": "amountX",
          "type": "uint128"
        },
        {
          "internalType": "bytes",
          "name": "data",
          "type": "bytes"
        }
      ],
      "name": "addLimOrderWithX",
      "outputs": [
        {
          "internalType": "uint128",
          "name": "orderX",
          "type": "uint128"
        },
        {
          "internalType": "uint128",
          "name": "acquireY",
          "type": "uint128"
        }
      ],
      "stateMutability": "nonpayable",
      "type": "function"
    },
    {
      "inputs": [
        {
          "internalType": "address",
          "name": "recipient",
          "type": "address"
        },
        {
          "internalType": "int24",
          "name": "point",
          "type": "int24"
        },
        {
          "internalType": "uint128",
          "name": "amountY",
          "type": "uint128"
        },
        {
          "internalType": "bytes",
          "name": "data",
          "type": "bytes"
        }
      ],
      "name": "addLimOrderWithY",
      "outputs": [
        {
          "internalType": "uint128",
          "name": "orderY",
          "type": "uint128"
        },
        {
          "internalType": "uint128",
          "name": "acquireX",
          "type": "uint128"
        }
      ],
      "stateMutability": "nonpayable",
      "type": "function"
    },
    {
      "inputs": [
        {
          "internalType": "int24",
          "name": "point",
          "type": "int24"
        },
        {
          "internalType": "uint128",
          "name": "assignX",
          "type": "uint128"
        }
      ],
      "name": "assignLimOrderEarnX",
      "outputs": [
        {
          "internalType": "uint128",
          "name": "actualAssignX",
          "type": "uint128"
        }
      ],
      "stateMutability": "nonpayable",
      "type": "function"
    },
    {
      "inputs": [
        {
          "internalType": "int24",
          "name": "point",
          "type": "int24"
        },
        {
          "internalType": "uint128",
          "name": "assignY",
          "type": "uint128"
        }
      ],
      "name": "assignLimOrderEarnY",
      "outputs": [
        {
          "internalType": "uint128",
          "name": "actualAssignY",
          "type": "uint128"
        }
      ],
      "stateMutability": "nonpayable",
      "type": "function"
    },
    {
      "inputs": [
        {
          "internalType": "address",
          "name": "recipient",
          "type": "address"
        },
        {
          "internalType": "int24",
          "name": "point",
          "type": "int24"
        },
        {
          "internalType": "uint128",
          "name": "collectDec",
          "type": "uint128"
        },
        {
          "internalType": "uint128",
          "name": "collectEarn",
          "type": "uint128"
        },
        {
          "internalType": "bool",
          "name": "isEarnY",
          "type": "bool"
        }
      ],
      "name": "collectLimOrder",
      "outputs": [
        {
          "internalType": "uint128",
          "name": "actualCollectDec",
          "type": "uint128"
        },
        {
          "internalType": "uint128",
          "name": "actualCollectEarn",
          "type": "uint128"
        }
      ],
      "stateMutability": "nonpayable",
      "type": "function"
    },
    {
      "inputs": [
        {
          "internalType": "int24",
          "name": "point",
          "type": "int24"
        },
        {
          "internalType": "uint128",
          "name": "deltaX",
          "type": "uint128"
        }
      ],
      "name": "decLimOrderWithX",
      "outputs": [
        {
          "internalType": "uint128",
          "name": "actualDeltaX",
          "type": "uint128"
        }
      ],
      "stateMutability": "nonpayable",
      "type": "function"
    },
    {
      "inputs": [
        {
          "internalType": "int24",
          "name": "point",
          "type": "int24"
        },
        {
          "internalType": "uint128",
          "name": "deltaY",
          "type": "uint128"
        }
      ],
      "name": "decLimOrderWithY",
      "outputs": [
        {
          "internalType": "uint128",
          "name": "actualDeltaY",
          "type": "uint128"
        }
      ],
      "stateMutability": "nonpayable",
      "type": "function"
    },
    {
      "inputs": [],
      "name": "factory",
      "outputs": [
        {
          "internalType": "address",
          "name": "",
          "type": "address"
        }
      ],
      "stateMutability": "view",
      "type": "function"
    },
    {
      "inputs": [],
      "name": "fee",
      "outputs": [
        {
          "internalType": "uint24",
          "name": "",
          "type": "uint24"
        }
      ],
      "stateMutability": "view",
      "type": "function"
    },
    {
      "inputs": [],
      "name": "feeChargePercent",
      "outputs": [
        {
          "internalType": "uint24",
          "name": "",
          "type": "uint24"
        }
      ],
      "stateMutability": "view",
      "type": "function"
    },
    {
      "inputs": [],
      "name": "feeScaleX_128",
      "outputs": [
        {
          "internalType": "uint256",
          "name": "",
          "type": "uint256"
        }
      ],
      "stateMutability": "view",
      "type": "function"
    },
    {
      "inputs": [],
      "name": "feeScaleY_128",
      "outputs": [
        {
          "internalType": "uint256",
          "name": "",
          "type": "uint256"
        }
      ],
      "stateMutability": "view",
      "type": "function"
    },
    {
      "inputs": [],
      "name": "leftMostPt",
      "outputs": [
        {
          "internalType": "int24",
          "name": "",
          "type": "int24"
        }
      ],
      "stateMutability": "view",
      "type": "function"
    },
    {
      "inputs": [
        {
          "internalType": "int24",
          "name": "",
          "type": "int24"
        }
      ],
      "name": "limitOrderData",
      "outputs": [
        {
          "internalType": "uint128",
          "name": "sellingX",
          "type": "uint128"
        },
        {
          "internalType": "uint128",
          "name": "earnY",
          "type": "uint128"
        },
        {
          "internalType": "uint256",
          "name": "accEarnY",
          "type": "uint256"
        },
        {
          "internalType": "uint128",
          "name": "sellingY",
          "type": "uint128"
        },
        {
          "internalType": "uint128",
          "name": "earnX",
          "type": "uint128"
        },
        {
          "internalType": "uint256",
          "name": "accEarnX",
          "type": "uint256"
        }
      ],
      "stateMutability": "view",
      "type": "function"
    },
    {
      "inputs": [
        {
          "internalType": "bytes32",
          "name": "",
          "type": "bytes32"
        }
      ],
      "name": "liquidities",
      "outputs": [
        {
          "internalType": "uint128",
          "name": "liquidity",
          "type": "uint128"
        },
        {
          "internalType": "uint256",
          "name": "lastFeeScaleX_128",
          "type": "uint256"
        },
        {
          "internalType": "uint256",
          "name": "lastFeeScaleY_128",
          "type": "uint256"
        },
        {
          "internalType": "uint256",
          "name": "tokenOwedX",
          "type": "uint256"
        },
        {
          "internalType": "uint256",
          "name": "tokenOwedY",
          "type": "uint256"
        }
      ],
      "stateMutability": "view",
      "type": "function"
    },
    {
      "inputs": [],
      "name": "maxLiquidPt",
      "outputs": [
        {
          "internalType": "uint128",
          "name": "",
          "type": "uint128"
        }
      ],
      "stateMutability": "view",
      "type": "function"
    },
    {
      "inputs": [
        {
          "internalType": "uint256",
          "name": "",
          "type": "uint256"
        }
      ],
      "name": "observations",
      "outputs": [
        {
          "internalType": "uint32",
          "name": "timestamp",
          "type": "uint32"
        },
        {
          "internalType": "int56",
          "name": "pointCumulative",
          "type": "int56"
        },
        {
          "internalType": "uint160",
          "name": "secondsPerLiquidityCumulative_128",
          "type": "uint160"
        },
        {
          "internalType": "bool",
          "name": "init",
          "type": "bool"
        }
      ],
      "stateMutability": "view",
      "type": "function"
    },
    {
      "inputs": [
        {
          "internalType": "int24",
          "name": "",
          "type": "int24"
        }
      ],
      "name": "orderOrEndpoint",
      "outputs": [
        {
          "internalType": "int24",
          "name": "",
          "type": "int24"
        }
      ],
      "stateMutability": "view",
      "type": "function"
    },
    {
      "inputs": [
        {
          "internalType": "int16",
          "name": "",
          "type": "int16"
        }
      ],
      "name": "pointBitmap",
      "outputs": [
        {
          "internalType": "uint256",
          "name": "",
          "type": "uint256"
        }
      ],
      "stateMutability": "view",
      "type": "function"
    },
    {
      "inputs": [],
      "name": "pointDelta",
      "outputs": [
        {
          "internalType": "int24",
          "name": "",
          "type": "int24"
        }
      ],
      "stateMutability": "view",
      "type": "function"
    },
    {
      "inputs": [
        {
          "internalType": "int24",
          "name": "",
          "type": "int24"
        }
      ],
      "name": "points",
      "outputs": [
        {
          "internalType": "uint128",
          "name": "liquidSum",
          "type": "uint128"
        },
        {
          "internalType": "int128",
          "name": "liquidDelta",
          "type": "int128"
        },
        {
          "internalType": "uint256",
          "name": "accFeeXOut_128",
          "type": "uint256"
        },
        {
          "internalType": "uint256",
          "name": "accFeeYOut_128",
          "type": "uint256"
        },
        {
          "internalType": "bool",
          "name": "isEndpt",
          "type": "bool"
        }
      ],
      "stateMutability": "view",
      "type": "function"
    },
    {
      "inputs": [],
      "name": "rightMostPt",
      "outputs": [
        {
          "internalType": "int24",
          "name": "",
          "type": "int24"
        }
      ],
      "stateMutability": "view",
      "type": "function"
    },
    {
      "inputs": [],
      "name": "state",
      "outputs": [
        {
          "internalType": "uint160",
          "name": "sqrtPrice_96",
          "type": "uint160"
        },
        {
          "internalType": "int24",
          "name": "currentPoint",
          "type": "int24"
        },
        {
          "internalType": "uint16",
          "name": "observationCurrentIndex",
          "type": "uint16"
        },
        {
          "internalType": "uint16",
          "name": "observationQueueLen",
          "type": "uint16"
        },
        {
          "internalType": "uint16",
          "name": "observationNextQueueLen",
          "type": "uint16"
        },
        {
          "internalType": "bool",
          "name": "locked",
          "type": "bool"
        },
        {
          "internalType": "uint128",
          "name": "liquidity",
          "type": "uint128"
        },
        {
          "internalType": "uint128",
          "name": "liquidityX",
          "type": "uint128"
        }
      ],
      "stateMutability": "view",
      "type": "function"
    },
    {
      "inputs": [],
      "name": "tokenX",
      "outputs": [
        {
          "internalType": "address",
          "name": "",
          "type": "address"
        }
      ],
      "stateMutability": "view",
      "type": "function"
    },
    {
      "inputs": [],
      "name": "tokenY",
      "outputs": [
        {
          "internalType": "address",
          "name": "",
          "type": "address"
        }
      ],
      "stateMutability": "view",
      "type": "function"
    },
    {
      "inputs": [],
      "name": "totalFeeXCharged",
      "outputs": [
        {
          "internalType": "uint256",
          "name": "",
          "type": "uint256"
        }
      ],
      "stateMutability": "view",
      "type": "function"
    },
    {
      "inputs": [],
      "name": "totalFeeYCharged",
      "outputs": [
        {
          "internalType": "uint256",
          "name": "",
          "type": "uint256"
        }
      ],
      "stateMutability": "view",
      "type": "function"
    },
    {
      "inputs": [
        {
          "internalType": "bytes32",
          "name": "",
          "type": "bytes32"
        }
      ],
      "name": "userEarnX",
      "outputs": [
        {
          "internalType": "uint256",
          "name": "lastAccEarn",
          "type": "uint256"
        },
        {
          "internalType": "uint128",
          "name": "sellingRemain",
          "type": "uint128"
        },
        {
          "internalType": "uint128",
          "name": "sellingDec",
          "type": "uint128"
        },
        {
          "internalType": "uint128",
          "name": "earn",
          "type": "uint128"
        },
        {
          "internalType": "uint128",
          "name": "earnAssign",
          "type": "uint128"
        }
      ],
      "stateMutability": "view",
      "type": "function"
    },
    {
      "inputs": [
        {
          "internalType": "bytes32",
          "name": "",
          "type": "bytes32"
        }
      ],
      "name": "userEarnY",
      "outputs": [
        {
          "internalType": "uint256",
          "name": "lastAccEarn",
          "type": "uint256"
        },
        {
          "internalType": "uint128",
          "name": "sellingRemain",
          "type": "uint128"
        },
        {
          "internalType": "uint128",
          "name": "sellingDec",
          "type": "uint128"
        },
        {
          "internalType": "uint128",
          "name": "earn",
          "type": "uint128"
        },
        {
          "internalType": "uint128",
          "name": "earnAssign",
          "type": "uint128"
        }
      ],
      "stateMutability": "view",
      "type": "function"
    }
  ],
  "bytecode": "0x60a0604052600560ea1b60805234801561001857600080fd5b5060805160e81c6128bc610037600039600061042b01526128bc6000f3fe608060405234801561001057600080fd5b506004361061015f5760003560e01c80630e1552f0146101645780631621835f1461019c57806316dc165b1461021f5780631aae2e551461023f578063252c09d71461025657806333005cd5146102a35780634cd70e91146102ae578063537c2d8e146102d9578063588e59ae146102f957806358c51ce61461030257806362c944ca1461031657806362ccaafd146103295780636ad1718f146103765780636d01843b1461038957806375c0e0d5146103a357806381794fba146104265780638790aca31461046157806387e7d5fe146104f357806398a0f72e1461056c578063b7d19fc41461058c578063c19d93fb1461059f578063c45a015514610663578063cedb2a6c14610676578063d3b1686414610689578063d88a74d21461069d578063ddca3f43146106b0578063e556289f146106c6578063edcba3b2146106d1578063ff12504e146106f4575b600080fd5b610177610172366004612404565b610707565b604080516001600160801b039384168152929091166020830152015b60405180910390f35b6101e96101aa366004612525565b600f6020526000908152604090208054600182015460029092015490916001600160801b0380821692600160801b928390048216928183169291041685565b604080519586526001600160801b039485166020870152928416928501929092528216606084015216608082015260a001610193565b600254610232906001600160a01b031681565b6040516101939190612624565b61024860045481565b604051908152602001610193565b610269610264366004612525565b610bf4565b6040805163ffffffff909516855260069390930b60208501526001600160a01b039091169183019190915215156060820152608001610193565b610248620100105481565b6102c16102bc366004612578565b610c39565b6040516001600160801b039091168152602001610193565b6000546102e69060020b81565b60405160029190910b8152602001610193565b61024860055481565b6003546102e690600160b81b900460020b81565b6102c1610324366004612578565b610dc2565b6101e9610337366004612525565b600e6020526000908152604090208054600182015460029092015490916001600160801b0380821692600160801b928390048216928183169291041685565b6101776103843660046124a1565b610ef7565b6000546102c190600160301b90046001600160801b031681565b6103ef6103b136600461255e565b600b6020526000908152604090208054600182015460028301546003909301546001600160801b03831693600160801b909304600f0b929060ff1685565b604080516001600160801b039096168652600f9490940b60208601529284019190915260608301521515608082015260a001610193565b61044d7f000000000000000000000000000000000000000000000000000000000000000081565b60405162ffffff9091168152602001610193565b6104b461046f36600461255e565b600d6020526000908152604090208054600182015460028301546003909301546001600160801b0380841694600160801b948590048216948183169391049091169086565b604080516001600160801b03978816815295871660208701528501939093529084166060840152909216608082015260a081019190915260c001610193565b61053a610501366004612525565b600960205260009081526040902080546001820154600283015460038401546004909401546001600160801b0390931693919290919085565b604080516001600160801b0390961686526020860194909452928401919091526060830152608082015260a001610193565b61024861057a36600461253d565b600a6020526000908152604090205481565b600354610232906001600160a01b031681565b600754600854610604916001600160a01b03811691600160a01b820460020b9161ffff600160b81b8204811692600160c81b8304821692600160d81b81049092169160ff600160e81b90910416906001600160801b0380821691600160801b90041688565b604080516001600160a01b03909916895260029790970b602089015261ffff9586169688019690965292841660608701529216608085015290151560a08401526001600160801b0390811660c08401521660e082015261010001610193565b600154610232906001600160a01b031681565b6102c1610684366004612578565b611072565b6000546102e6906301000000900460020b81565b6102c16106ab366004612578565b611143565b60035461044d90600160a01b900462ffffff1681565b6102486201000f5481565b6102e66106df36600461255e565b600c6020526000908152604090205460020b81565b610177610702366004612404565b611152565b600354600090819061072390600160b81b900460020b876127d8565b60020b1561074c5760405162461bcd60e51b81526004016107439061266d565b60405180910390fd5b600754600160a01b9004600290810b810b9087900b13156107945760405162461bcd60e51b8152602060048201526002602482015261141360f21b6044820152606401610743565b600054600290810b810b9087900b12156107d55760405162461bcd60e51b81526020600482015260026024820152614c4f60f01b6044820152606401610743565b6000856001600160801b0316116108135760405162461bcd60e51b8152602060048201526002602482015261059560f41b6044820152606401610743565b5050600284810b900b6000908152600d602052604081208491908161083788611628565b600283015483549192506001600160801b039081169116600081156108e3576108618a8584611a3a565b9650905061086f818861277e565b965061087b868361277e565b9150806001600160801b0316856001015461089691906126f9565b600186015584546108b8908290600160801b90046001600160801b03166126ce565b6001600160801b038381169116600160801b026001600160801b03191681178655156108e357600096505b6001600160801b0387161561091c576108fc87846126ce565b6002860180546001600160801b0319166001600160801b03831617905592505b600061092a600e8e8e611afb565b600387015460028801549192506109589183918b918990600160801b90046001600160801b03166000611b4d565b600287810180546001600160801b03908116600160801b9482168502179091559083015461098a928a929104166126ce565b6002820180546001600160801b03928316600160801b0290831617905583161580156109bd57506001600160801b038416155b15610a49576003546000906109e090600c908f90600160b81b900460020b611baa565b90506000816001169050610a118e600360179054906101000a900460020b83600c611bf7909392919063ffffffff16565b8060020b60001415610a4257610a428e600360179054906101000a900460020b600a611c3e9092919063ffffffff16565b5050610adc565b600354600090610a6790600c908f90600160b81b900460020b611baa565b90508060021660020b60001415610ada576000816002179050610aa78e600360179054906101000a900460020b83600c611bf7909392919063ffffffff16565b8160020b60001415610ad857610ad88e600360179054906101000a900460020b600a611ca79092919063ffffffff16565b505b505b6000610ae8838a6126ce565b6001600160801b031611610b0e5760405162461bcd60e51b815260040161074390612689565b6000610b18611d0f565b905033638400eff66000610b2c868d6126ce565b8e8e6040518563ffffffff1660e01b8152600401610b4d9493929190612638565b600060405180830381600087803b158015610b6757600080fd5b505af1158015610b7b573d6000803e3d6000fd5b50505050826001600160801b0316896001600160801b031682610b9e91906126f9565b610ba891906126f9565b610bb0611d0f565b1015610be35760405162461bcd60e51b8152602060048201526002602482015261594560f01b6044820152606401610743565b505050505050509550959350505050565b60108161ffff8110610c0557600080fd5b015463ffffffff81169150600160201b810460060b90600160581b81046001600160a01b031690600160f81b900460ff1684565b600354600090610c5390600160b81b900460020b846127d8565b60020b15610c735760405162461bcd60e51b81526004016107439061266d565b6000610c81600f3386611afb565b600285810b900b6000908152600d60205260408120919250610ca286611628565b6001838101548454929350610ccf9286928992918691600160801b9091046001600160801b031690611df3565b83546001600160801b03918216600160801b02908216818117865592965086928592600092610d04928692919091161761277e565b92506101000a8154816001600160801b0302191690836001600160801b031602179055506000846001600160801b0316118015610d49575081546001600160801b0316155b15610db957600354600090610d6c90600c908990600160b81b900460020b611baa565b6003546001919091169150610d9090600c908990600160b81b900460020b84611bf7565b8060020b60001415610db757600354610db790600a908990600160b81b900460020b611c3e565b505b50505092915050565b600354600090610ddc90600160b81b900460020b846127d8565b60020b15610dfc5760405162461bcd60e51b81526004016107439061266d565b6000610e0a600e3386611afb565b600285810b900b6000908152600d60205260408120919250610e2b86611628565b60038301546002840154919250610e5991859188918590600160801b90046001600160801b03166000611df3565b6002840180546001600160801b03928316600160801b02908316818117835593975087939192600092610e8f928692161761277e565b92506101000a8154816001600160801b0302191690836001600160801b031602179055506000846001600160801b0316118015610d49575060028201546001600160801b0316610db957600354600090610d6c90600c908990600160b81b900460020b611baa565b600080600083610f1257610f0d600e3389611afb565b610f1e565b610f1e600f3389611afb565b60018101548794509091506001600160801b03600160801b90910481169084161115610f5c576001810154600160801b90046001600160801b031692505b6001810154610f7c908490600160801b90046001600160801b031661277e565b6001820180546001600160801b03908116600160801b93821684021790915560028301548794509190910481169083161115610fca576002810154600160801b90046001600160801b031691505b6002810154610fea908390600160801b90046001600160801b031661277e565b6002820180546001600160801b03928316600160801b0292169190911790556000808561101857838561101b565b84845b6001600160801b039182169350169050811561104857600254611048906001600160a01b03168b84611ea9565b801561106557600354611065906001600160a01b03168b83611ea9565b5050509550959350505050565b806000611081600e3386611afb565b60028101549091506001600160801b0390811690831611156110ae5760028101546001600160801b031691505b6002810180548391906000906110ce9084906001600160801b031661277e565b92506101000a8154816001600160801b0302191690836001600160801b03160217905550818160020160108282829054906101000a90046001600160801b031661111891906126ce565b92506101000a8154816001600160801b0302191690836001600160801b031602179055505092915050565b806000611081600f3386611afb565b600354600090819061116e90600160b81b900460020b876127d8565b60020b1561118e5760405162461bcd60e51b81526004016107439061266d565b600754600160a01b9004600290810b810b9087900b12156111d65760405162461bcd60e51b8152602060048201526002602482015261504760f01b6044820152606401610743565b60005463010000009004600290810b810b9087900b131561121e5760405162461bcd60e51b8152602060048201526002602482015261484f60f01b6044820152606401610743565b6000856001600160801b03161161125c5760405162461bcd60e51b8152602060048201526002602482015261058560f41b6044820152606401610743565b5050600284810b900b6000908152600d602052604081208491908161128088611628565b600283015483549192506001600160801b03908116911660008215611332576112aa8a8585611faa565b965090506112b8818861277e565b96506112c4868461277e565b9250806001600160801b031685600301546112df91906126f9565b60038601556002850154611304908290600160801b90046001600160801b03166126ce565b6001600160801b038481169116600160801b026001600160801b031916811760028701551561133257600096505b6001600160801b038716156113675761134b87836126ce565b85546001600160801b0319166001600160801b03821617865591505b6000611375600f8e8e611afb565b60018781015488549293506113a29284928c92918a91600160801b9091046001600160801b031690611b4d565b86546001600160801b03908116600160801b928216830217885560028301546113cf928a929104166126ce565b6002820180546001600160801b03928316600160801b02908316179055831615801561140257506001600160801b038416155b1561148e5760035460009061142590600c908f90600160b81b900460020b611baa565b905060008160011690506114568e600360179054906101000a900460020b83600c611bf7909392919063ffffffff16565b8060020b60001415611487576114878e600360179054906101000a900460020b600a611c3e9092919063ffffffff16565b5050611521565b6003546000906114ac90600c908f90600160b81b900460020b611baa565b90508060021660020b6000141561151f5760008160021790506114ec8e600360179054906101000a900460020b83600c611bf7909392919063ffffffff16565b8160020b6000141561151d5761151d8e600360179054906101000a900460020b600a611ca79092919063ffffffff16565b505b505b600061152d838a6126ce565b6001600160801b0316116115535760405162461bcd60e51b815260040161074390612689565b600061155d612047565b905033638400eff661156f858c6126ce565b60008e8e6040518563ffffffff1660e01b815260040161159294939291906126a6565b600060405180830381600087803b1580156115ac57600080fd5b505af11580156115c0573d6000803e3d6000fd5b50505050826001600160801b0316896001600160801b0316826115e391906126f9565b6115ed91906126f9565b6115f5612047565b1015610be35760405162461bcd60e51b8152602060048201526002602482015261584560f01b6044820152606401610743565b60008060008360020b1261163f578260020b61164c565b8260020b61164c9061282f565b905061165b620d89e71961280e565b60020b8111156116915760405162461bcd60e51b81526020600482015260016024820152601560fa1b6044820152606401610743565b6000600182166116a557600160801b6116b7565b6ffffcb933bd6fad37aa2d162d1a5940015b6001600160881b0316905060028216156116ec5760806116e7826ffff97272373d413259a46990580e213a61275f565b901c90505b6004821615611716576080611711826ffff2e50f5f656932ef12357cf3c7fdcc61275f565b901c90505b600882161561174057608061173b826fffe5caca7e10e4e61c3624eaa0941cd061275f565b901c90505b601082161561176a576080611765826fffcb9843d60f6159c9db58835c92664461275f565b901c90505b602082161561179457608061178f826fff973b41fa98c081472e6896dfb254c061275f565b901c90505b60408216156117be5760806117b9826fff2ea16466c96a3843ec78b326b5286161275f565b901c90505b60808216156117e85760806117e3826ffe5dee046a99a2a811c461f1969c305361275f565b901c90505b61010082161561181357608061180e826ffcbe86c7900a88aedcffc83b479aa3a461275f565b901c90505b61020082161561183e576080611839826ff987a7253ac413176f2b074cf7815e5461275f565b901c90505b610400821615611869576080611864826ff3392b0822b70005940c7a398e4b70f361275f565b901c90505b61080082161561189457608061188f826fe7159475a2c29b7443b29c7fa6e889d961275f565b901c90505b6110008216156118bf5760806118ba826fd097f3bdfd2022b8845ad8f792aa582561275f565b901c90505b6120008216156118ea5760806118e5826fa9f746462d870fdf8a65dc1f90e061e561275f565b901c90505b614000821615611915576080611910826f70d869a156d2a1b890bb3df62baf32f761275f565b901c90505b61800082161561194057608061193b826f31be135f97d08fd981231505542fcfa661275f565b901c90505b6201000082161561196c576080611967826f09aa508b5b7a84e1c677de54f3e99bc961275f565b901c90505b62020000821615611997576080611992826e5d6af8dedb81196699c329225ee60461275f565b901c90505b620400008216156119c15760806119bc826d2216e584f5fa1ea926041bedfe9861275f565b901c90505b620800008216156119e95760806119e4826b048a170391f7dc42444e8fa261275f565b901c90505b60008460020b1315611a0457611a018160001961274b565b90505b611a12600160201b826127fa565b15611a1e576001611a21565b60005b611a329060ff16602083901c6126f9565b949350505050565b6000806000611a60866001600160801b0316600160601b876001600160a01b0316612075565b9050611a7a81600160601b876001600160a01b0316612075565b9150836001600160801b0316826001600160801b03161115611a9a578391505b611abb826001600160801b0316866001600160a01b0316600160601b612122565b90506000611ad782876001600160a01b0316600160601b612122565b905080935080846001600160801b031614611af157600080fd5b5050935093915050565b6040805160609390931b6001600160601b03191660208085019190915260029290920b60e81b603484015280516017818503018152603790930181528251928201929092206000908152929052902090565b6000611b5c8786868686612179565b6001880154909150611b789087906001600160801b03166126ce565b8760010160006101000a8154816001600160801b0302191690836001600160801b031602179055509695505050505050565b6000611bb682846127d8565b60020b15611bc657506000611bf0565b836000611bd38486612711565b600290810b810b8252602082019290925260400160002054900b90505b9392505050565b80846000611c058587612711565b60020b60020b815260200190815260200160002060006101000a81548162ffffff021916908360020b62ffffff16021790555050505050565b611c4881836127d8565b60020b15611c5557600080fd5b6000611c618284612711565b9050600281900b60081d6000611c79610100846127d8565b600192830b830b60009081526020979097526040909620805460ff9097169290921b19909516905550505050565b611cb181836127d8565b60020b15611cbe57600080fd5b6000611cca8284612711565b9050600281900b60081d6000611ce2610100846127d8565b600192830b830b60009081526020979097526040909620805460ff9097169290921b909517905550505050565b600354604051600091829182916001600160a01b0316906370a0823160e01b90611d3d903090602401612624565b60408051601f198184030181529181526020820180516001600160e01b03166001600160e01b0319909416939093179092529051611d7b91906125eb565b600060405180830381855afa9150503d8060008114611db6576040519150601f19603f3d011682016040523d82523d6000602084013e611dbb565b606091505b5091509150818015611dcf57506020815110155b611dd857600080fd5b80806020019051810190611dec91906125aa565b9250505090565b600080611e038887878787612179565b60018901548893509091506001600160801b039081169083161115611e335760018801546001600160801b031691505b6001880154611e4c9083906001600160801b031661277e565b6001890180546001600160801b0319166001600160801b039283161790819055611e7f918491600160801b9004166126ce565b600190980180546001600160801b03998a16600160801b0299169890981790975596945050505050565b604080516001600160a01b038481166024830152604480830185905283518084039091018152606490920183526020820180516001600160e01b031663a9059cbb60e01b1790529151600092839290871691611f0591906125eb565b6000604051808303816000865af19150503d8060008114611f42576040519150601f19603f3d011682016040523d82523d6000602084013e611f47565b606091505b5091509150818015611f71575080511580611f71575080806020019051810190611f719190612509565b611fa35760405162461bcd60e51b8152602060048201526003602482015262544e5360e81b6044820152606401610743565b5050505050565b6000806000611fd0866001600160801b0316866001600160a01b0316600160601b612075565b9050611fea81866001600160a01b0316600160601b612075565b9150836001600160801b0316826001600160801b0316111561200a578391505b61202b826001600160801b0316600160601b876001600160a01b0316612122565b90506000611ad782600160601b886001600160a01b0316612122565b600254604051600091829182916001600160a01b0316906370a0823160e01b90611d3d903090602401612624565b6000808060001985870985870292508281108382030391505080600014156120af57600084116120a457600080fd5b508290049050611bf0565b8084116120bb57600080fd5b6000848688096001861981018716968790046003810260029081188083028203028083028203028083028203028083028203028083028203029182029003026000889003889004909101858311909403939093029303949094049190911702949350505050565b600061212f848484612075565b90506000828061214f57634e487b7160e01b600052601260045260246000fd5b8486091115611bf057600019811061216657600080fd5b80612170816127bd565b95945050505050565b6040805160a081018252865480825260018801546001600160801b038082166020850152600160801b918290048116948401949094526002890154808516606085015204909216608082015260009182906121d490886127a6565b9050846001600160801b03168111156121f357506001600160801b0384165b6000841561223757600061221583600160601b8a6001600160a01b0316612122565b905061222f81600160601b8a6001600160a01b0316612122565b91505061226f565b600061225183896001600160a01b0316600160601b612122565b905061226b81896001600160a01b0316600160601b612122565b9150505b82602001516001600160801b031681111561230d575060208201516001600160801b031684156122d55760006122b382896001600160a01b0316600160601b612075565b90506122cd81896001600160a01b0316600160601b612075565b92505061230d565b60006122ef82600160601b8a6001600160a01b0316612075565b905061230981600160601b8a6001600160a01b0316612075565b9250505b818360600181815161231f91906126ce565b6001600160801b031690525060208301805182919061233f90839061277e565b6001600160801b0316905250878955811561237b57606083015160028a0180546001600160801b0319166001600160801b039092169190911790555b80156123a857602083015160018a0180546001600160801b0319166001600160801b039092169190911790555b6123b2828761277e565b9998505050505050505050565b80356001600160a01b03811681146123d657600080fd5b919050565b8035600281900b81146123d657600080fd5b80356001600160801b03811681146123d657600080fd5b60008060008060006080868803121561241b578081fd5b612424866123bf565b9450612432602087016123db565b9350612440604087016123ed565b9250606086013567ffffffffffffffff8082111561245c578283fd5b818801915088601f83011261246f578283fd5b81358181111561247d578384fd5b89602082850101111561248e578384fd5b9699959850939650602001949392505050565b600080600080600060a086880312156124b8578081fd5b6124c1866123bf565b94506124cf602087016123db565b93506124dd604087016123ed565b92506124eb606087016123ed565b915060808601356124fb81612875565b809150509295509295909350565b60006020828403121561251a578081fd5b8151611bf081612875565b600060208284031215612536578081fd5b5035919050565b60006020828403121561254e578081fd5b81358060010b8114611bf0578182fd5b60006020828403121561256f578081fd5b611bf0826123db565b6000806040838503121561258a578182fd5b612593836123db565b91506125a1602084016123ed565b90509250929050565b6000602082840312156125bb578081fd5b5051919050565b81835281816020850137506000828201602090810191909152601f909101601f19169091010190565b60008251815b8181101561260b57602081860181015185830152016125f1565b818111156126195782828501525b509190910192915050565b6001600160a01b0391909116815260200190565b8481526001600160801b038416602082015260606040820181905260009061266390830184866125c2565b9695505050505050565b602080825260029082015261141160f21b604082015260600190565b6020808252600390820152620703e360ec1b604082015260600190565b60018060801b03851681528360208201526060604082015260006126636060830184866125c2565b60006001600160801b038281168482168083038211156126f0576126f0612849565b01949350505050565b6000821982111561270c5761270c612849565b500190565b60008160020b8360020b806127285761272861285f565b627fffff1982146000198214161561274257612742612849565b90059392505050565b60008261275a5761275a61285f565b500490565b600081600019048311821515161561277957612779612849565b500290565b60006001600160801b038381169083168181101561279e5761279e612849565b039392505050565b6000828210156127b8576127b8612849565b500390565b60006000198214156127d1576127d1612849565b5060010190565b60008260020b806127eb576127eb61285f565b808360020b0791505092915050565b6000826128095761280961285f565b500690565b60008160020b627fffff1981141561282857612828612849565b9003919050565b6000600160ff1b82141561284557612845612849565b0390565b634e487b7160e01b600052601160045260246000fd5b634e487b7160e01b600052601260045260246000fd5b801515811461288357600080fd5b5056fea2646970667358221220d08bfa44321ea771b72c226d14fd20871d2b155a49b85830dc9af457a3a4f16f64736f6c63430008040033",
  "linkReferences": {},
  "deployedLinkReferences": {}
}