{
  "_format": "hh-sol-artifact-1",
  "contractName": "LiquidityModule",
  "sourceName": "contracts/liquidity.sol",
  "abi": [
    {
      "inputs": [
        {
          "internalType": "int24",
          "name": "leftPt",
          "type": "int24"
        },
        {
          "internalType": "int24",
          "name": "rightPt",
          "type": "int24"
        },
        {
          "internalType": "uint128",
          "name": "liquidDelta",
          "type": "uint128"
        }
      ],
      "name": "burn",
      "outputs": [
        {
          "internalType": "uint256",
          "name": "amountX",
          "type": "uint256"
        },
        {
          "internalType": "uint256",
          "name": "amountY",
          "type": "uint256"
        }
      ],
      "stateMutability": "nonpayable",
      "type": "function"
    },
    {
      "inputs": [
        {
          "internalType": "address",
          "name": "recipient",
          "type": "address"
        },
        {
          "internalType": "int24",
          "name": "leftPt",
          "type": "int24"
        },
        {
          "internalType": "int24",
          "name": "rightPt",
          "type": "int24"
        },
        {
          "internalType": "uint256",
          "name": "amountXLim",
          "type": "uint256"
        },
        {
          "internalType": "uint256",
          "name": "amountYLim",
          "type": "uint256"
        }
      ],
      "name": "collect",
      "outputs": [
        {
          "internalType": "uint256",
          "name": "actualAmountX",
          "type": "uint256"
        },
        {
          "internalType": "uint256",
          "name": "actualAmountY",
          "type": "uint256"
        }
      ],
      "stateMutability": "nonpayable",
      "type": "function"
    },
    {
      "inputs": [],
      "name": "factory",
      "outputs": [
        {
          "internalType": "address",
          "name": "",
          "type": "address"
        }
      ],
      "stateMutability": "view",
      "type": "function"
    },
    {
      "inputs": [],
      "name": "fee",
      "outputs": [
        {
          "internalType": "uint24",
          "name": "",
          "type": "uint24"
        }
      ],
      "stateMutability": "view",
      "type": "function"
    },
    {
      "inputs": [],
      "name": "feeChargePercent",
      "outputs": [
        {
          "internalType": "uint24",
          "name": "",
          "type": "uint24"
        }
      ],
      "stateMutability": "view",
      "type": "function"
    },
    {
      "inputs": [],
      "name": "feeScaleX_128",
      "outputs": [
        {
          "internalType": "uint256",
          "name": "",
          "type": "uint256"
        }
      ],
      "stateMutability": "view",
      "type": "function"
    },
    {
      "inputs": [],
      "name": "feeScaleY_128",
      "outputs": [
        {
          "internalType": "uint256",
          "name": "",
          "type": "uint256"
        }
      ],
      "stateMutability": "view",
      "type": "function"
    },
    {
      "inputs": [],
      "name": "leftMostPt",
      "outputs": [
        {
          "internalType": "int24",
          "name": "",
          "type": "int24"
        }
      ],
      "stateMutability": "view",
      "type": "function"
    },
    {
      "inputs": [
        {
          "internalType": "int24",
          "name": "",
          "type": "int24"
        }
      ],
      "name": "limitOrderData",
      "outputs": [
        {
          "internalType": "uint128",
          "name": "sellingX",
          "type": "uint128"
        },
        {
          "internalType": "uint128",
          "name": "earnY",
          "type": "uint128"
        },
        {
          "internalType": "uint256",
          "name": "accEarnY",
          "type": "uint256"
        },
        {
          "internalType": "uint128",
          "name": "sellingY",
          "type": "uint128"
        },
        {
          "internalType": "uint128",
          "name": "earnX",
          "type": "uint128"
        },
        {
          "internalType": "uint256",
          "name": "accEarnX",
          "type": "uint256"
        }
      ],
      "stateMutability": "view",
      "type": "function"
    },
    {
      "inputs": [
        {
          "internalType": "bytes32",
          "name": "",
          "type": "bytes32"
        }
      ],
      "name": "liquidities",
      "outputs": [
        {
          "internalType": "uint128",
          "name": "liquidity",
          "type": "uint128"
        },
        {
          "internalType": "uint256",
          "name": "lastFeeScaleX_128",
          "type": "uint256"
        },
        {
          "internalType": "uint256",
          "name": "lastFeeScaleY_128",
          "type": "uint256"
        },
        {
          "internalType": "uint256",
          "name": "tokenOwedX",
          "type": "uint256"
        },
        {
          "internalType": "uint256",
          "name": "tokenOwedY",
          "type": "uint256"
        }
      ],
      "stateMutability": "view",
      "type": "function"
    },
    {
      "inputs": [],
      "name": "maxLiquidPt",
      "outputs": [
        {
          "internalType": "uint128",
          "name": "",
          "type": "uint128"
        }
      ],
      "stateMutability": "view",
      "type": "function"
    },
    {
      "inputs": [
        {
          "internalType": "address",
          "name": "recipient",
          "type": "address"
        },
        {
          "internalType": "int24",
          "name": "leftPt",
          "type": "int24"
        },
        {
          "internalType": "int24",
          "name": "rightPt",
          "type": "int24"
        },
        {
          "internalType": "uint128",
          "name": "liquidDelta",
          "type": "uint128"
        },
        {
          "internalType": "bytes",
          "name": "data",
          "type": "bytes"
        }
      ],
      "name": "mint",
      "outputs": [
        {
          "internalType": "uint256",
          "name": "amountX",
          "type": "uint256"
        },
        {
          "internalType": "uint256",
          "name": "amountY",
          "type": "uint256"
        }
      ],
      "stateMutability": "nonpayable",
      "type": "function"
    },
    {
      "inputs": [
        {
          "internalType": "uint256",
          "name": "",
          "type": "uint256"
        }
      ],
      "name": "observations",
      "outputs": [
        {
          "internalType": "uint32",
          "name": "timestamp",
          "type": "uint32"
        },
        {
          "internalType": "int56",
          "name": "pointCumulative",
          "type": "int56"
        },
        {
          "internalType": "uint160",
          "name": "secondsPerLiquidityCumulative_128",
          "type": "uint160"
        },
        {
          "internalType": "bool",
          "name": "init",
          "type": "bool"
        }
      ],
      "stateMutability": "view",
      "type": "function"
    },
    {
      "inputs": [
        {
          "internalType": "int24",
          "name": "",
          "type": "int24"
        }
      ],
      "name": "orderOrEndpoint",
      "outputs": [
        {
          "internalType": "int24",
          "name": "",
          "type": "int24"
        }
      ],
      "stateMutability": "view",
      "type": "function"
    },
    {
      "inputs": [
        {
          "internalType": "int16",
          "name": "",
          "type": "int16"
        }
      ],
      "name": "pointBitmap",
      "outputs": [
        {
          "internalType": "uint256",
          "name": "",
          "type": "uint256"
        }
      ],
      "stateMutability": "view",
      "type": "function"
    },
    {
      "inputs": [],
      "name": "pointDelta",
      "outputs": [
        {
          "internalType": "int24",
          "name": "",
          "type": "int24"
        }
      ],
      "stateMutability": "view",
      "type": "function"
    },
    {
      "inputs": [
        {
          "internalType": "int24",
          "name": "",
          "type": "int24"
        }
      ],
      "name": "points",
      "outputs": [
        {
          "internalType": "uint128",
          "name": "liquidSum",
          "type": "uint128"
        },
        {
          "internalType": "int128",
          "name": "liquidDelta",
          "type": "int128"
        },
        {
          "internalType": "uint256",
          "name": "accFeeXOut_128",
          "type": "uint256"
        },
        {
          "internalType": "uint256",
          "name": "accFeeYOut_128",
          "type": "uint256"
        },
        {
          "internalType": "bool",
          "name": "isEndpt",
          "type": "bool"
        }
      ],
      "stateMutability": "view",
      "type": "function"
    },
    {
      "inputs": [],
      "name": "rightMostPt",
      "outputs": [
        {
          "internalType": "int24",
          "name": "",
          "type": "int24"
        }
      ],
      "stateMutability": "view",
      "type": "function"
    },
    {
      "inputs": [],
      "name": "state",
      "outputs": [
        {
          "internalType": "uint160",
          "name": "sqrtPrice_96",
          "type": "uint160"
        },
        {
          "internalType": "int24",
          "name": "currentPoint",
          "type": "int24"
        },
        {
          "internalType": "uint16",
          "name": "observationCurrentIndex",
          "type": "uint16"
        },
        {
          "internalType": "uint16",
          "name": "observationQueueLen",
          "type": "uint16"
        },
        {
          "internalType": "uint16",
          "name": "observationNextQueueLen",
          "type": "uint16"
        },
        {
          "internalType": "bool",
          "name": "locked",
          "type": "bool"
        },
        {
          "internalType": "uint128",
          "name": "liquidity",
          "type": "uint128"
        },
        {
          "internalType": "uint128",
          "name": "liquidityX",
          "type": "uint128"
        }
      ],
      "stateMutability": "view",
      "type": "function"
    },
    {
      "inputs": [],
      "name": "tokenX",
      "outputs": [
        {
          "internalType": "address",
          "name": "",
          "type": "address"
        }
      ],
      "stateMutability": "view",
      "type": "function"
    },
    {
      "inputs": [],
      "name": "tokenY",
      "outputs": [
        {
          "internalType": "address",
          "name": "",
          "type": "address"
        }
      ],
      "stateMutability": "view",
      "type": "function"
    },
    {
      "inputs": [],
      "name": "totalFeeXCharged",
      "outputs": [
        {
          "internalType": "uint256",
          "name": "",
          "type": "uint256"
        }
      ],
      "stateMutability": "view",
      "type": "function"
    },
    {
      "inputs": [],
      "name": "totalFeeYCharged",
      "outputs": [
        {
          "internalType": "uint256",
          "name": "",
          "type": "uint256"
        }
      ],
      "stateMutability": "view",
      "type": "function"
    },
    {
      "inputs": [
        {
          "internalType": "bytes32",
          "name": "",
          "type": "bytes32"
        }
      ],
      "name": "userEarnX",
      "outputs": [
        {
          "internalType": "uint256",
          "name": "lastAccEarn",
          "type": "uint256"
        },
        {
          "internalType": "uint128",
          "name": "sellingRemain",
          "type": "uint128"
        },
        {
          "internalType": "uint128",
          "name": "sellingDec",
          "type": "uint128"
        },
        {
          "internalType": "uint128",
          "name": "earn",
          "type": "uint128"
        },
        {
          "internalType": "uint128",
          "name": "earnAssign",
          "type": "uint128"
        }
      ],
      "stateMutability": "view",
      "type": "function"
    },
    {
      "inputs": [
        {
          "internalType": "bytes32",
          "name": "",
          "type": "bytes32"
        }
      ],
      "name": "userEarnY",
      "outputs": [
        {
          "internalType": "uint256",
          "name": "lastAccEarn",
          "type": "uint256"
        },
        {
          "internalType": "uint128",
          "name": "sellingRemain",
          "type": "uint128"
        },
        {
          "internalType": "uint128",
          "name": "sellingDec",
          "type": "uint128"
        },
        {
          "internalType": "uint128",
          "name": "earn",
          "type": "uint128"
        },
        {
          "internalType": "uint128",
          "name": "earnAssign",
          "type": "uint128"
        }
      ],
      "stateMutability": "view",
      "type": "function"
    }
  ],
  "bytecode": "0x60a0604052600560ea1b60805234801561001857600080fd5b5060805160e81c612aa561003760003960006103bb0152612aa56000f3fe608060405234801561001057600080fd5b50600436106101335760003560e01c80631621835f1461013857806316dc165b146101c05780631aae2e55146101e0578063252c09d7146101f757806333005cd5146102445780633c8a7d8d1461024f578063537c2d8e14610277578063588e59ae1461029757806358c51ce6146102a057806362ccaafd146102b45780636d01843b1461030157806375c0e0d51461033357806381794fba146103b6578063872d1f15146103f15780638790aca31461040457806387e7d5fe1461049657806398a0f72e1461050f578063a34123a71461052f578063b7d19fc414610542578063c19d93fb14610555578063c45a015514610619578063d3b168641461062c578063ddca3f4314610640578063e556289f14610656578063edcba3b214610661575b600080fd5b610185610146366004612566565b600f6020526000908152604090208054600182015460029092015490916001600160801b0380821692600160801b928390048216928183169291041685565b604080519586526001600160801b039485166020870152928416928501929092528216606084015216608082015260a0015b60405180910390f35b6002546101d3906001600160a01b031681565b6040516101b7919061264c565b6101e960045481565b6040519081526020016101b7565b61020a610205366004612566565b610684565b6040805163ffffffff909516855260069390930b60208501526001600160a01b0390911691830191909152151560608201526080016101b7565b6101e9620100105481565b61026261025d366004612443565b6106c9565b604080519283526020830191909152016101b7565b6000546102849060020b81565b60405160029190910b81526020016101b7565b6101e960055481565b60035461028490600160b81b900460020b81565b6101856102c2366004612566565b600e6020526000908152604090208054600182015460029092015490916001600160801b0380821692600160801b928390048216928183169291041685565b60005461031b90600160301b90046001600160801b031681565b6040516001600160801b0390911681526020016101b7565b61037f61034136600461259f565b600b6020526000908152604090208054600182015460028301546003909301546001600160801b03831693600160801b909304600f0b929060ff1685565b604080516001600160801b039096168652600f9490940b60208601529284019190915260608301521515608082015260a0016101b7565b6103dd7f000000000000000000000000000000000000000000000000000000000000000081565b60405162ffffff90911681526020016101b7565b6102626103ff3660046124f2565b610ad5565b61045761041236600461259f565b600d6020526000908152604090208054600182015460028301546003909301546001600160801b0380841694600160801b948590048216948183169391049091169086565b604080516001600160801b03978816815295871660208701528501939093529084166060840152909216608082015260a081019190915260c0016101b7565b6104dd6104a4366004612566565b600960205260009081526040902080546001820154600283015460038401546004909401546001600160801b0390931693919290919085565b604080516001600160801b0390961686526020860194909452928401919091526060830152608082015260a0016101b7565b6101e961051d36600461257e565b600a6020526000908152604090205481565b61026261053d3660046125b9565b610bd3565b6003546101d3906001600160a01b031681565b6007546008546105ba916001600160a01b03811691600160a01b820460020b9161ffff600160b81b8204811692600160c81b8304821692600160d81b81049092169160ff600160e81b90910416906001600160801b0380821691600160801b90041688565b604080516001600160a01b03909916895260029790970b602089015261ffff9586169688019690965292841660608701529216608085015290151560a08401526001600160801b0390811660c08401521660e0820152610100016101b7565b6001546101d3906001600160a01b031681565b600054610284906301000000900460020b81565b6003546103dd90600160a01b900462ffffff1681565b6101e96201000f5481565b61028461066f36600461259f565b600c6020526000908152604090205460020b81565b60108161ffff811061069557600080fd5b015463ffffffff81169150600160201b810460060b90600160581b81046001600160a01b031690600160f81b900460ff1684565b6000808560020b8760020b126106fa5760405162461bcd60e51b81526004016106f19061269a565b60405180910390fd5b600054600290810b810b9088900b121561073b5760405162461bcd60e51b81526020600482015260026024820152614c4f60f01b60448201526064016106f1565b60005463010000009004600290810b810b9087900b13156107835760405162461bcd60e51b8152602060048201526002602482015261484f60f01b60448201526064016106f1565b620c3500610798600289810b9089900b6128fa565b126107ca5760405162461bcd60e51b8152602060048201526002602482015261151360f21b60448201526064016106f1565b600354600160b81b900460020b6107e181896129b3565b60020b156108015760405162461bcd60e51b81526004016106f190612660565b61080b81886129b3565b60020b1561082b5760405162461bcd60e51b81526004016106f19061267d565b856000600f82900b136108655760405162461bcd60e51b815260206004820152600260248201526104c560f41b60448201526064016106f1565b6001600160a01b038a16610877573399505b60408051610100810182526007546001600160a01b0381168252600160a01b8104600290810b810b900b6020830181905261ffff600160b81b8304811694840194909452600160c81b820484166060840152600160d81b8204909316608083015260ff600160e81b90910416151560a08201526008546001600160801b0380821660c0840152600160801b9091041660e08201529061091d908c908c908c908690610e1b565b600080600061092e8b8e8e8761102c565b6001600160801b031692506001600160801b031692506001600160801b031692506000811115610989578a8460c0015161096891906127bd565b600880546001600160801b0319166001600160801b03929092169190911790555b600080841561099d5761099a6111ad565b91505b83156109ae576109ab611291565b90505b60008511806109bd5750600084115b15610a2757336001600160a01b03166384fe2b3d86868f8f6040518563ffffffff1660e01b81526004016109f494939291906126f2565b600060405180830381600087803b158015610a0e57600080fd5b505af1158015610a22573d6000803e3d6000fd5b505050505b8415610a7357610a356111ad565b610a3f86846127e8565b1115610a735760405162461bcd60e51b815260206004820152600360248201526209c8ab60eb1b60448201526064016106f1565b8315610abf57610a81611291565b610a8b85836127e8565b1115610abf5760405162461bcd60e51b81526020600482015260036024820152624e455960e81b60448201526064016106f1565b50929e919d50909b505050505050505050505050565b6000806000841180610ae75750600083115b610b1b5760405162461bcd60e51b81526020600482015260056024820152640582b593e360dc1b60448201526064016106f1565b6000610b2a60093389896112bf565b90508492508060030154831115610b4357806003015492505b8391508060040154821115610b5a57806004015491505b82816003016000828254610b6e9190612981565b9250508190555081816004016000828254610b899190612981565b90915550508215610bab57600254610bab906001600160a01b0316898561131e565b8115610bc857600354610bc8906001600160a01b0316898461131e565b509550959350505050565b6000808360020b8560020b12610bfb5760405162461bcd60e51b81526004016106f19061269a565b600354600160b81b900460020b610c1281876129b3565b60020b15610c325760405162461bcd60e51b81526004016106f190612660565b610c3c81866129b3565b60020b15610c5c5760405162461bcd60e51b81526004016106f19061267d565b60408051610100810182526007546001600160a01b0381168252600160a01b8104600290810b810b900b6020830152600160b81b810461ffff90811693830193909352600160c81b810483166060830152600160d81b81049092166080820152600160e81b90910460ff16151560a08201526008546001600160801b0380821660c08401819052600160801b909204811660e0840152600090610d00908816612a29565b90508081600f0b14610d395760405162461bcd60e51b8152602060048201526002602482015261444f60f01b60448201526064016106f1565b610d4a338a8a848760200151610e1b565b6000610d58888b8b8761141f565b9050600081606001511180610d71575060008160400151115b15610d9d57610d808884612939565b60808201516001600160801b03908116600160801b029116176008555b8051151580610db0575060008160200151115b15610e03576000610dc46009338d8d6112bf565b90508160000151816003016000828254610dde91906127e8565b90915550506020820151600482018054600090610dfc9084906127e8565b9091555050505b8051602090910151909a909950975050505050505050565b600354600160b81b900460020b6000610e3760098888886112bf565b60045460055491925090600080600f88900b15610ea657600054610e7890600b908c906001908b908d90600160301b90046001600160801b03168a8a6116c7565b60008054919350610ea391600b918c918b908d90600160301b90046001600160801b03168a8a6116c7565b90505b600080610eb8600b8d8d8c8a8a611933565b9092509050610ec9878b84846119c6565b8315610f73576000610edd600c8e8b611b4a565b905060008b600f0b1315610f1857610efb600c8e8b60018517611b97565b8060020b60001415610f1357610f13600a8e8b611bde565b610f71565b60028116610f29600c8f8c84611b97565b8060020b60001415610f4157610f41600a8f8c611c46565b5060028d810b810b6000908152600b602052604081208181556001810182905591820155600301805460ff191690555b505b821561101d576000610f87600c8d8b611b4a565b905060008b600f0b1315610fc257610fa5600c8d8b60018517611b97565b8060020b60001415610fbd57610fbd600a8d8b611bde565b61101b565b60028116610fd3600c8e8c84611b97565b8060020b60001415610feb57610feb600a8e8c611c46565b5060028c810b810b6000908152600b602052604081208181556001810182905591820155600301805460ff191690555b505b50505050505050505050505050565b602081015181516000918291829182918261104689611caf565b6006549091506001600160a01b0316600284810b908c900b12156110b657600061106f8c611caf565b905060008560020b8c60020b12156110965761108f8e83868660016120c1565b90506110a7565b6110a48e83878660016120c1565b90505b6110b181886127e8565b965050505b8360020b8a60020b13156111285760008460020b8c60020b136110e3576110de856001612780565b6110e5565b8b5b905060006110f88e838e87876001612148565b9050809950808a6001600160801b0316146111255760405162461bcd60e51b81526004016106f1906126d4565b50505b8360020b8b60020b1315801561114357508360020b8a60020b135b1561116e576111528c84612219565b95506111676001600160801b038716866127e8565b9450611173565b600095505b84965084876001600160801b03161461119e5760405162461bcd60e51b81526004016106f1906126b6565b50505050509450945094915050565b600254604051600091829182916001600160a01b0316906370a0823160e01b906111db90309060240161264c565b60408051601f198184030181529181526020820180516001600160e01b03166001600160e01b03199094169390931790925290516112199190612613565b600060405180830381855afa9150503d8060008114611254576040519150601f19603f3d011682016040523d82523d6000602084013e611259565b606091505b509150915081801561126d57506020815110155b61127657600080fd5b8080602001905181019061128a91906125fb565b9250505090565b600354604051600091829182916001600160a01b0316906370a0823160e01b906111db90309060240161264c565b6040805160609490941b6001600160601b031916602080860191909152600293840b60e890811b60348701529290930b90911b60378401528051601a818503018152603a90930181528251928201929092206000908152929052902090565b604080516001600160a01b038481166024830152604480830185905283518084039091018152606490920183526020820180516001600160e01b031663a9059cbb60e01b179052915160009283929087169161137a9190612613565b6000604051808303816000865af19150503d80600081146113b7576040519150601f19603f3d011682016040523d82523d6000602084013e6113bc565b606091505b50915091508180156113e65750805115806113e65750808060200190518101906113e69190612546565b6114185760405162461bcd60e51b8152602060048201526003602482015262544e5360e81b60448201526064016106f1565b5050505050565b61145a6040518060a001604052806000815260200160008152602001600081526020016000815260200160006001600160801b031681525090565b6020820151825160009182918261147088611caf565b6006549091506001600160a01b0316600284810b908b900b12156114e05760006114998b611caf565b905060008560020b8b60020b12156114c0576114b98d83868660006120c1565b90506114d1565b6114ce8d83878660006120c1565b90505b6114db81896127e8565b975050505b8360020b8960020b13156115335760008460020b8b60020b1361150d57611508856001612780565b61150f565b8a5b905060006115228d838d87876000612148565b905061152e81886127e8565b965050505b8360020b8a60020b1315801561154e57508360020b8960020b135b1561163d5760008860e001518960c001516115699190612939565b905060008c6001600160801b0316826001600160801b03161061158c578c61158e565b815b9050600061159c828f612939565b90506115bf826001600160801b0316876001600160a01b0316600160601b61228a565b60608b01526001600160a01b0386166115e5600160601b6001600160801b03841661284e565b6115ef919061283a565b60408b015260e08b0151611604908290612939565b6001600160801b031660808b015260608a0151611621908a6127e8565b985089604001518861163391906127e8565b975050505061165f565b600060608801819052604088015260e08801516001600160801b031660808801525b6001600160801b03861660208801819052861461168e5760405162461bcd60e51b81526004016106f1906126b6565b6001600160801b03851680885285146116b95760405162461bcd60e51b81526004016106f1906126d4565b505050505050949350505050565b600287810b900b600090815260208990526040812080546001600160801b0316600f87900b61171d5760405162461bcd60e51b8152602060048201526002602482015261044360f41b60448201526064016106f1565b60008088600f0b13156117855761173488836127bd565b9050816001600160801b0316816001600160801b0316116117805760405162461bcd60e51b81526004016106f1906020808252600490820152634c41414f60e01b604082015260600190565b6117e4565b61178e886129e9565b6117989083612939565b9050816001600160801b0316816001600160801b0316106117e45760405162461bcd60e51b81526004016106f1906020808252600490820152634c41534f60e01b604082015260600190565b866001600160801b0316816001600160801b031611156118315760405162461bcd60e51b8152602060048201526008602482015267130813125348141560c21b60448201526064016106f1565b82546001600160801b0319166001600160801b038216178355891561188a578254611867908990600160801b9004600f0b61272f565b8354600f9190910b6001600160801b03908116600160801b0291161783556118c0565b82546118a1908990600160801b9004600f0b61286d565b8354600f9190910b6001600160801b03908116600160801b0291161783555b60006001600160801b038316611905575060038301805460ff1916600190811790915560028a810b908d900b126119005760018401879055600284018690555b611923565b6001600160801b038216611923575060038301805460ff1916905560015b9c9b505050505050505050505050565b600285810b810b60009081526020889052604080822087840b90930b825281206001830154919283929091908390611970908b908a908a90612337565b905060006119848a8a8a8660010154612356565b905060006119988c8b8a8860020154612337565b905060006119ac8c8c8b8860020154612356565b93909903919091039c960303995093975050505050505050565b6040805160a08101825285546001600160801b031681526001860154602082015260028601549181019190915260038501546060820152600485015460808201526000600f85900b611a575781516001600160801b0316611a4f5760405162461bcd60e51b815260206004820152600360248201526204c3e360ec1b60448201526064016106f1565b508051611a66565b8151611a63908661236d565b90505b6020820151604083015183519186039190850390600090611a969084906001600160801b0316600160801b61228a565b90506000611ab68387600001516001600160801b0316600160801b61228a565b6001600160801b03861687529050600f89900b15611ae85789546001600160801b0319166001600160801b038616178a555b60018a0188905560028a0187905581151580611b045750600081115b15611b3e57818a6003016000828254611b1d91906127e8565b92505081905550808a6004016000828254611b3891906127e8565b90915550505b50505050505050505050565b6000611b5682846129b3565b60020b15611b6657506000611b90565b836000611b738486612800565b600290810b810b8252602082019290925260400160002054900b90505b9392505050565b80846000611ba58587612800565b60020b60020b815260200190815260200160002060006101000a81548162ffffff021916908360020b62ffffff16021790555050505050565b611be881836129b3565b60020b15611bf557600080fd5b6000611c018284612800565b9050600281900b60081d6000611c19610100846129b3565b600192830b830b60009081526020979097526040909620805460ff9097169290921b909517905550505050565b611c5081836129b3565b60020b15611c5d57600080fd5b6000611c698284612800565b9050600281900b60081d6000611c81610100846129b3565b600192830b830b60009081526020979097526040909620805460ff9097169290921b19909516905550505050565b60008060008360020b12611cc6578260020b611cd3565b8260020b611cd390612a29565b9050611ce2620d89e719612a0f565b60020b811115611d185760405162461bcd60e51b81526020600482015260016024820152601560fa1b60448201526064016106f1565b600060018216611d2c57600160801b611d3e565b6ffffcb933bd6fad37aa2d162d1a5940015b6001600160881b031690506002821615611d73576080611d6e826ffff97272373d413259a46990580e213a61284e565b901c90505b6004821615611d9d576080611d98826ffff2e50f5f656932ef12357cf3c7fdcc61284e565b901c90505b6008821615611dc7576080611dc2826fffe5caca7e10e4e61c3624eaa0941cd061284e565b901c90505b6010821615611df1576080611dec826fffcb9843d60f6159c9db58835c92664461284e565b901c90505b6020821615611e1b576080611e16826fff973b41fa98c081472e6896dfb254c061284e565b901c90505b6040821615611e45576080611e40826fff2ea16466c96a3843ec78b326b5286161284e565b901c90505b6080821615611e6f576080611e6a826ffe5dee046a99a2a811c461f1969c305361284e565b901c90505b610100821615611e9a576080611e95826ffcbe86c7900a88aedcffc83b479aa3a461284e565b901c90505b610200821615611ec5576080611ec0826ff987a7253ac413176f2b074cf7815e5461284e565b901c90505b610400821615611ef0576080611eeb826ff3392b0822b70005940c7a398e4b70f361284e565b901c90505b610800821615611f1b576080611f16826fe7159475a2c29b7443b29c7fa6e889d961284e565b901c90505b611000821615611f46576080611f41826fd097f3bdfd2022b8845ad8f792aa582561284e565b901c90505b612000821615611f71576080611f6c826fa9f746462d870fdf8a65dc1f90e061e561284e565b901c90505b614000821615611f9c576080611f97826f70d869a156d2a1b890bb3df62baf32f761284e565b901c90505b618000821615611fc7576080611fc2826f31be135f97d08fd981231505542fcfa661284e565b901c90505b62010000821615611ff3576080611fee826f09aa508b5b7a84e1c677de54f3e99bc961284e565b901c90505b6202000082161561201e576080612019826e5d6af8dedb81196699c329225ee60461284e565b901c90505b62040000821615612048576080612043826d2216e584f5fa1ea926041bedfe9861284e565b901c90505b6208000082161561207057608061206b826b048a170391f7dc42444e8fa261284e565b901c90505b60008460020b131561208b576120888160001961283a565b90505b612099600160201b826129d5565b156120a55760016120a8565b60005b6120b99060ff16602083901c6127e8565b949350505050565b6000806120ce8686612961565b905060006120e0600160601b86612961565b9050836121145761210d886001600160801b0316836001600160a01b0316836001600160a01b031661228a565b925061213d565b61213a886001600160801b0316836001600160a01b0316836001600160a01b03166123a7565b92505b505095945050505050565b60008061215d61215888886128bd565b611caf565b90506000846001600160a01b0316600160601b876001600160a01b0316612184919061284e565b61218e919061283a565b905060006121a0600160601b84612961565b905060006121ae8389612961565b9050856121e2576121db8b6001600160801b0316836001600160a01b0316836001600160a01b031661228a565b945061220b565b6122088b6001600160801b0316836001600160a01b0316836001600160a01b03166123a7565b94505b505050509695505050505050565b60008061223d846001600160801b0316846001600160a01b0316600160601b6123a7565b905080915080826001600160801b0316146122835760405162461bcd60e51b81526020600482015260066024820152651650c813d19360d21b60448201526064016106f1565b5092915050565b6000808060001985870985870292508281108382030391505080600014156122c457600084116122b957600080fd5b508290049050611b90565b8084116122d057600080fd5b6000848688096001861981018716968790046003810260029081188083028203028083028203028083028203028083028203028083028203029182029003026000889003889004909101858311909403939093029303949094049190911702949350505050565b60008360020b8560020b1361234d5750806120b9565b50900392915050565b60008360020b8560020b131561234d5750806120b9565b60008082600f0b121561239457612383826129e9565b61238d9084612939565b90506123a1565b61239e82846127bd565b90505b92915050565b60006123b484848461228a565b9050600082806123d457634e487b7160e01b600052601260045260246000fd5b8486091115611b905760001981106123eb57600080fd5b806123f581612998565b95945050505050565b80356001600160a01b038116811461241557600080fd5b919050565b8035600281900b811461241557600080fd5b80356001600160801b038116811461241557600080fd5b60008060008060008060a0878903121561245b578182fd5b612464876123fe565b95506124726020880161241a565b94506124806040880161241a565b935061248e6060880161242c565b9250608087013567ffffffffffffffff808211156124aa578384fd5b818901915089601f8301126124bd578384fd5b8135818111156124cb578485fd5b8a60208285010111156124dc578485fd5b6020830194508093505050509295509295509295565b600080600080600060a08688031215612509578081fd5b612512866123fe565b94506125206020870161241a565b935061252e6040870161241a565b94979396509394606081013594506080013592915050565b600060208284031215612557578081fd5b81518015158114611b90578182fd5b600060208284031215612577578081fd5b5035919050565b60006020828403121561258f578081fd5b81358060010b8114611b90578182fd5b6000602082840312156125b0578081fd5b61239e8261241a565b6000806000606084860312156125cd578283fd5b6125d68461241a565b92506125e46020850161241a565b91506125f26040850161242c565b90509250925092565b60006020828403121561260c578081fd5b5051919050565b60008251815b818110156126335760208186018101518583015201612619565b818111156126415782828501525b509190910192915050565b6001600160a01b0391909116815260200190565b60208082526003908201526213141160ea1b604082015260600190565b60208082526003908201526214941160ea1b604082015260600190565b602080825260029082015261262960f11b604082015260600190565b6020808252600490820152631653d19360e21b604082015260600190565b6020808252600490820152631613d19360e21b604082015260600190565b84815283602082015260606040820152816060820152818360808301376000818301608090810191909152601f909201601f191601019392505050565b6000600f82810b9084900b828212801560016001607f1b038490038313161561275a5761275a612a43565b60016001607f1b0319839003821281161561277757612777612a43565b50019392505050565b60008160020b8360020b82821282627fffff038213811516156127a5576127a5612a43565b82627fffff1903821281161561277757612777612a43565b60006001600160801b038281168482168083038211156127df576127df612a43565b01949350505050565b600082198211156127fb576127fb612a43565b500190565b60008160020b8360020b8061281757612817612a59565b627fffff1982146000198214161561283157612831612a43565b90059392505050565b60008261284957612849612a59565b500490565b600081600019048311821515161561286857612868612a43565b500290565b6000600f82810b9084900b828112801560016001607f1b031983018412161561289857612898612a43565b60016001607f1b03820183138116156128b3576128b3612a43565b5090039392505050565b60008160020b8360020b82811281627fffff19018312811516156128e3576128e3612a43565b81627fffff0183138116156128b3576128b3612a43565b60008083128015600160ff1b85018412161561291857612918612a43565b6001600160ff1b038401831381161561293357612933612a43565b50500390565b60006001600160801b038381169083168181101561295957612959612a43565b039392505050565b60006001600160a01b038381169083168181101561295957612959612a43565b60008282101561299357612993612a43565b500390565b60006000198214156129ac576129ac612a43565b5060010190565b60008260020b806129c6576129c6612a59565b808360020b0791505092915050565b6000826129e4576129e4612a59565b500690565b6000600f82900b60016001607f1b0319811415612a0857612a08612a43565b9003919050565b60008160020b627fffff19811415612a0857612a08612a43565b6000600160ff1b821415612a3f57612a3f612a43565b0390565b634e487b7160e01b600052601160045260246000fd5b634e487b7160e01b600052601260045260246000fdfea26469706673582212208a08a5958f8c27c0674aac7c6fc5ba2ddba97cae1de60d328eddad4fa215828a64736f6c63430008040033",
  "linkReferences": {},
  "deployedLinkReferences": {}
}