{
  "_format": "hh-sol-artifact-1",
  "contractName": "SwapX2YModule",
  "sourceName": "contracts/swapX2Y.sol",
  "abi": [
    {
      "inputs": [],
      "name": "factory",
      "outputs": [
        {
          "internalType": "address",
          "name": "",
          "type": "address"
        }
      ],
      "stateMutability": "view",
      "type": "function"
    },
    {
      "inputs": [],
      "name": "fee",
      "outputs": [
        {
          "internalType": "uint24",
          "name": "",
          "type": "uint24"
        }
      ],
      "stateMutability": "view",
      "type": "function"
    },
    {
      "inputs": [],
      "name": "feeChargePercent",
      "outputs": [
        {
          "internalType": "uint24",
          "name": "",
          "type": "uint24"
        }
      ],
      "stateMutability": "view",
      "type": "function"
    },
    {
      "inputs": [],
      "name": "feeScaleX_128",
      "outputs": [
        {
          "internalType": "uint256",
          "name": "",
          "type": "uint256"
        }
      ],
      "stateMutability": "view",
      "type": "function"
    },
    {
      "inputs": [],
      "name": "feeScaleY_128",
      "outputs": [
        {
          "internalType": "uint256",
          "name": "",
          "type": "uint256"
        }
      ],
      "stateMutability": "view",
      "type": "function"
    },
    {
      "inputs": [],
      "name": "leftMostPt",
      "outputs": [
        {
          "internalType": "int24",
          "name": "",
          "type": "int24"
        }
      ],
      "stateMutability": "view",
      "type": "function"
    },
    {
      "inputs": [
        {
          "internalType": "int24",
          "name": "",
          "type": "int24"
        }
      ],
      "name": "limitOrderData",
      "outputs": [
        {
          "internalType": "uint128",
          "name": "sellingX",
          "type": "uint128"
        },
        {
          "internalType": "uint128",
          "name": "earnY",
          "type": "uint128"
        },
        {
          "internalType": "uint256",
          "name": "accEarnY",
          "type": "uint256"
        },
        {
          "internalType": "uint128",
          "name": "sellingY",
          "type": "uint128"
        },
        {
          "internalType": "uint128",
          "name": "earnX",
          "type": "uint128"
        },
        {
          "internalType": "uint256",
          "name": "accEarnX",
          "type": "uint256"
        }
      ],
      "stateMutability": "view",
      "type": "function"
    },
    {
      "inputs": [
        {
          "internalType": "bytes32",
          "name": "",
          "type": "bytes32"
        }
      ],
      "name": "liquidities",
      "outputs": [
        {
          "internalType": "uint128",
          "name": "liquidity",
          "type": "uint128"
        },
        {
          "internalType": "uint256",
          "name": "lastFeeScaleX_128",
          "type": "uint256"
        },
        {
          "internalType": "uint256",
          "name": "lastFeeScaleY_128",
          "type": "uint256"
        },
        {
          "internalType": "uint256",
          "name": "tokenOwedX",
          "type": "uint256"
        },
        {
          "internalType": "uint256",
          "name": "tokenOwedY",
          "type": "uint256"
        }
      ],
      "stateMutability": "view",
      "type": "function"
    },
    {
      "inputs": [],
      "name": "maxLiquidPt",
      "outputs": [
        {
          "internalType": "uint128",
          "name": "",
          "type": "uint128"
        }
      ],
      "stateMutability": "view",
      "type": "function"
    },
    {
      "inputs": [
        {
          "internalType": "uint256",
          "name": "",
          "type": "uint256"
        }
      ],
      "name": "observations",
      "outputs": [
        {
          "internalType": "uint32",
          "name": "timestamp",
          "type": "uint32"
        },
        {
          "internalType": "int56",
          "name": "pointCumulative",
          "type": "int56"
        },
        {
          "internalType": "uint160",
          "name": "secondsPerLiquidityCumulative_128",
          "type": "uint160"
        },
        {
          "internalType": "bool",
          "name": "init",
          "type": "bool"
        }
      ],
      "stateMutability": "view",
      "type": "function"
    },
    {
      "inputs": [
        {
          "internalType": "int24",
          "name": "",
          "type": "int24"
        }
      ],
      "name": "orderOrEndpoint",
      "outputs": [
        {
          "internalType": "int24",
          "name": "",
          "type": "int24"
        }
      ],
      "stateMutability": "view",
      "type": "function"
    },
    {
      "inputs": [
        {
          "internalType": "int16",
          "name": "",
          "type": "int16"
        }
      ],
      "name": "pointBitmap",
      "outputs": [
        {
          "internalType": "uint256",
          "name": "",
          "type": "uint256"
        }
      ],
      "stateMutability": "view",
      "type": "function"
    },
    {
      "inputs": [],
      "name": "pointDelta",
      "outputs": [
        {
          "internalType": "int24",
          "name": "",
          "type": "int24"
        }
      ],
      "stateMutability": "view",
      "type": "function"
    },
    {
      "inputs": [
        {
          "internalType": "int24",
          "name": "",
          "type": "int24"
        }
      ],
      "name": "points",
      "outputs": [
        {
          "internalType": "uint128",
          "name": "liquidSum",
          "type": "uint128"
        },
        {
          "internalType": "int128",
          "name": "liquidDelta",
          "type": "int128"
        },
        {
          "internalType": "uint256",
          "name": "accFeeXOut_128",
          "type": "uint256"
        },
        {
          "internalType": "uint256",
          "name": "accFeeYOut_128",
          "type": "uint256"
        },
        {
          "internalType": "bool",
          "name": "isEndpt",
          "type": "bool"
        }
      ],
      "stateMutability": "view",
      "type": "function"
    },
    {
      "inputs": [],
      "name": "rightMostPt",
      "outputs": [
        {
          "internalType": "int24",
          "name": "",
          "type": "int24"
        }
      ],
      "stateMutability": "view",
      "type": "function"
    },
    {
      "inputs": [],
      "name": "state",
      "outputs": [
        {
          "internalType": "uint160",
          "name": "sqrtPrice_96",
          "type": "uint160"
        },
        {
          "internalType": "int24",
          "name": "currentPoint",
          "type": "int24"
        },
        {
          "internalType": "uint16",
          "name": "observationCurrentIndex",
          "type": "uint16"
        },
        {
          "internalType": "uint16",
          "name": "observationQueueLen",
          "type": "uint16"
        },
        {
          "internalType": "uint16",
          "name": "observationNextQueueLen",
          "type": "uint16"
        },
        {
          "internalType": "bool",
          "name": "locked",
          "type": "bool"
        },
        {
          "internalType": "uint128",
          "name": "liquidity",
          "type": "uint128"
        },
        {
          "internalType": "uint128",
          "name": "liquidityX",
          "type": "uint128"
        }
      ],
      "stateMutability": "view",
      "type": "function"
    },
    {
      "inputs": [
        {
          "internalType": "address",
          "name": "recipient",
          "type": "address"
        },
        {
          "internalType": "uint128",
          "name": "amount",
          "type": "uint128"
        },
        {
          "internalType": "int24",
          "name": "lowPt",
          "type": "int24"
        },
        {
          "internalType": "bytes",
          "name": "data",
          "type": "bytes"
        }
      ],
      "name": "swapX2Y",
      "outputs": [
        {
          "internalType": "uint256",
          "name": "amountX",
          "type": "uint256"
        },
        {
          "internalType": "uint256",
          "name": "amountY",
          "type": "uint256"
        }
      ],
      "stateMutability": "nonpayable",
      "type": "function"
    },
    {
      "inputs": [
        {
          "internalType": "address",
          "name": "recipient",
          "type": "address"
        },
        {
          "internalType": "uint128",
          "name": "desireY",
          "type": "uint128"
        },
        {
          "internalType": "int24",
          "name": "lowPt",
          "type": "int24"
        },
        {
          "internalType": "bytes",
          "name": "data",
          "type": "bytes"
        }
      ],
      "name": "swapX2YDesireY",
      "outputs": [
        {
          "internalType": "uint256",
          "name": "amountX",
          "type": "uint256"
        },
        {
          "internalType": "uint256",
          "name": "amountY",
          "type": "uint256"
        }
      ],
      "stateMutability": "nonpayable",
      "type": "function"
    },
    {
      "inputs": [],
      "name": "tokenX",
      "outputs": [
        {
          "internalType": "address",
          "name": "",
          "type": "address"
        }
      ],
      "stateMutability": "view",
      "type": "function"
    },
    {
      "inputs": [],
      "name": "tokenY",
      "outputs": [
        {
          "internalType": "address",
          "name": "",
          "type": "address"
        }
      ],
      "stateMutability": "view",
      "type": "function"
    },
    {
      "inputs": [],
      "name": "totalFeeXCharged",
      "outputs": [
        {
          "internalType": "uint256",
          "name": "",
          "type": "uint256"
        }
      ],
      "stateMutability": "view",
      "type": "function"
    },
    {
      "inputs": [],
      "name": "totalFeeYCharged",
      "outputs": [
        {
          "internalType": "uint256",
          "name": "",
          "type": "uint256"
        }
      ],
      "stateMutability": "view",
      "type": "function"
    },
    {
      "inputs": [
        {
          "internalType": "bytes32",
          "name": "",
          "type": "bytes32"
        }
      ],
      "name": "userEarnX",
      "outputs": [
        {
          "internalType": "uint256",
          "name": "lastAccEarn",
          "type": "uint256"
        },
        {
          "internalType": "uint128",
          "name": "sellingRemain",
          "type": "uint128"
        },
        {
          "internalType": "uint128",
          "name": "sellingDec",
          "type": "uint128"
        },
        {
          "internalType": "uint128",
          "name": "earn",
          "type": "uint128"
        },
        {
          "internalType": "uint128",
          "name": "earnAssign",
          "type": "uint128"
        }
      ],
      "stateMutability": "view",
      "type": "function"
    },
    {
      "inputs": [
        {
          "internalType": "bytes32",
          "name": "",
          "type": "bytes32"
        }
      ],
      "name": "userEarnY",
      "outputs": [
        {
          "internalType": "uint256",
          "name": "lastAccEarn",
          "type": "uint256"
        },
        {
          "internalType": "uint128",
          "name": "sellingRemain",
          "type": "uint128"
        },
        {
          "internalType": "uint128",
          "name": "sellingDec",
          "type": "uint128"
        },
        {
          "internalType": "uint128",
          "name": "earn",
          "type": "uint128"
        },
        {
          "internalType": "uint128",
          "name": "earnAssign",
          "type": "uint128"
        }
      ],
      "stateMutability": "view",
      "type": "function"
    }
  ],
  "bytecode": "0x60a0604052601960e91b60805234801561001857600080fd5b5060805160e81c6148e9610053600039600081816103b001528181610b0e01528181610dcc015281816118260152611c7a01526148e96000f3fe608060405234801561001057600080fd5b50600436106101285760003560e01c80631621835f1461012d57806316dc165b146101b55780631aae2e55146101d5578063252c09d7146101ec57806333005cd514610239578063537c2d8e14610244578063588e59ae1461026457806358c51ce61461026d57806359dd14361461028157806362ccaafd146102a95780636d01843b146102f657806375c0e0d51461032857806381794fba146103ab578063857f812f146103e65780638790aca3146103f957806387e7d5fe1461048b57806398a0f72e14610504578063b7d19fc414610524578063c19d93fb14610537578063c45a0155146105fb578063d3b168641461060e578063ddca3f4314610622578063e556289f14610638578063edcba3b214610643575b600080fd5b61017a61013b36600461414b565b600f6020526000908152604090208054600182015460029092015490916001600160801b0380821692600160801b928390048216928183169291041685565b604080519586526001600160801b039485166020870152928416928501929092528216606084015216608082015260a0015b60405180910390f35b6002546101c8906001600160a01b031681565b6040516101ac91906141d2565b6101de60045481565b6040519081526020016101ac565b6101ff6101fa36600461414b565b610666565b6040805163ffffffff909516855260069390930b60208501526001600160a01b0390911691830191909152151560608201526080016101ac565b6101de620100105481565b6000546102519060020b81565b60405160029190910b81526020016101ac565b6101de60055481565b60035461025190600160b81b900460020b81565b61029461028f366004614075565b6106ab565b604080519283526020830191909152016101ac565b61017a6102b736600461414b565b600e6020526000908152604090208054600182015460029092015490916001600160801b0380821692600160801b928390048216928183169291041685565b60005461031090600160301b90046001600160801b031681565b6040516001600160801b0390911681526020016101ac565b610374610336366004614184565b600b6020526000908152604090208054600182015460028301546003909301546001600160801b03831693600160801b909304600f0b929060ff1685565b604080516001600160801b039096168652600f9490940b60208601529284019190915260608301521515608082015260a0016101ac565b6103d27f000000000000000000000000000000000000000000000000000000000000000081565b60405162ffffff90911681526020016101ac565b6102946103f4366004614075565b611187565b61044c610407366004614184565b600d6020526000908152604090208054600182015460028301546003909301546001600160801b0380841694600160801b948590048216948183169391049091169086565b604080516001600160801b03978816815295871660208701528501939093529084166060840152909216608082015260a081019190915260c0016101ac565b6104d261049936600461414b565b600960205260009081526040902080546001820154600283015460038401546004909401546001600160801b0390931693919290919085565b604080516001600160801b0390961686526020860194909452928401919091526060830152608082015260a0016101ac565b6101de610512366004614163565b600a6020526000908152604090205481565b6003546101c8906001600160a01b031681565b60075460085461059c916001600160a01b03811691600160a01b820460020b9161ffff600160b81b8204811692600160c81b8304821692600160d81b81049092169160ff600160e81b90910416906001600160801b0380821691600160801b90041688565b604080516001600160a01b03909916895260029790970b602089015261ffff9586169688019690965292841660608701529216608085015290151560a08401526001600160801b0390811660c08401521660e0820152610100016101ac565b6001546101c8906001600160a01b031681565b600054610251906301000000900460020b81565b6003546103d290600160a01b900462ffffff1681565b6101de6201000f5481565b610251610651366004614184565b600c6020526000908152604090205460020b81565b60108161ffff811061067757600080fd5b015463ffffffff81169150600160201b810460060b90600160581b81046001600160a01b031690600160f81b900460ff1684565b6000806000866001600160801b0316116106e05760405162461bcd60e51b81526004016106d790614221565b60405180910390fd5b6000546106f190869060020b611d9b565b60408051610100810182526007546001600160a01b0381168252600160a01b8104600290810b810b900b6020830152600160b81b810461ffff90811693830193909352600160c81b810483166060830152600160d81b81049092166080820152600160e81b90910460ff16151560a08201526008546001600160801b0380821660c0840152600160801b9091041660e082015290955060009250829150610796614017565b6004548152600554602080830191909152600060408301526006546001600160a01b03166060830152600354600160b81b9004600290810b810b900b60808301819052908301516107ea91600c9190611dbb565b600290810b810b60a08301526020830151810b900b60c0808301919091528201516001600160801b031660e082015263ffffffff43166101008201525b816020015160020b8760020b1315801561084357508060400151155b15610f195760008160a0015160021660020b1315610a6a57602080830151600290810b810b6000908152600d9092526040822090810154845191926001600160801b03909116918190610898908d9085611e08565b915091508b6001600160801b0316816001600160801b0316106108bd57600160408601525b6003546000906108f5906001600160801b03851690600160a01b900462ffffff166108eb81620f42406146f4565b62ffffff16611e6a565b9050806201000f600082825461090b91906143b0565b90915550506001600160801b03808316908e1611156109335761092e828e614691565b610936565b60005b9c5061094b816001600160801b0385166143b0565b610955908a6143b0565b985061096a6001600160801b038316896143b0565b97506109768285614691565b6002860180546001600160801b0319166001600160801b038381169190911780835592965085926010916109b4918591600160801b90910416614346565b92506101000a8154816001600160801b0302191690836001600160801b03160217905550826001600160801b03168560030160008282546109f591906143b0565b909155505084546001600160801b0316158015610a1957506001600160801b038416155b15610a645760a086015160208801516080880151600190921691610a4091600c9184611ec1565b8060020b60001415610a625760208801516080880151610a6291600a91611f08565b505b50505050505b806040015115610a7957610f19565b600060018360200151610a8c919061460b565b905060008260a0015160011660020b1315610cbc5760c08301516001600160801b031615610c17576000610aca84856020015185606001518d611f71565b8051151560408501526020810151600354919250600091610aff9190600160a01b900462ffffff166108eb81620f42406146f4565b905060006064610b3462ffffff7f000000000000000000000000000000000000000000000000000000000000000016846145ec565b610b3e919061444d565b9050806201000f6000828254610b5491906143b0565b90915550610b7f9050610b678284614710565b600160801b8860c001516001600160801b0316612313565b8551610b8b91906143b0565b85526020830151610b9d9083906143b0565b610ba790896143b0565b975082604001516001600160801b031687610bc291906143b0565b9650610bd28c84604001516123c0565b610bdc908d614691565b6060840151600290810b900b602088015260808401516001600160a01b0316875260a0909301516001600160801b031660e087015250909950505b8160400151610cbc57602080840151600290810b900b6000908152600b8252604090208351918401519091610c4e918391906123e3565b60c08401518154610c729190610c6d90600160801b9004600f0b61482d565b6123fe565b6001600160801b031660c08501526020840151610c919060019061460b565b600290810b900b60208501819052610ca89061242f565b6001600160a01b0316845250600060e08401525b816040015180610cd557508760020b836020015160020b125b15610ce05750610f19565b6000610cfc828460800151600a6128399092919063ffffffff16565b90508860020b8160020b1215610d0f5750875b6000610d2b828560800151600c611dbb9092919063ffffffff16565b90508460c001516001600160801b031660001415610d7657600282810b900b60208601819052610d5a9061242f565b6001600160a01b03168552600281810b900b60a0850152610ef8565b6000610d88868487606001518f611f71565b8051151560408701526020810151600354919250600091610dbd9190600160a01b900462ffffff166108eb81620f42406146f4565b905060006064610df262ffffff7f000000000000000000000000000000000000000000000000000000000000000016846145ec565b610dfc919061444d565b9050806201000f6000828254610e1291906143b0565b90915550506040830151610e2f906001600160801b03168a6143b0565b9850818360200151610e4191906143b0565b610e4b908b6143b0565b9950610e5b8e84604001516123c0565b610e65908f614691565b9d50610e8c610e748284614710565b600160801b8a60c001516001600160801b0316612313565b8751610e9891906143b0565b87526060830151600290810b810b60208a0181905260808501516001600160a01b03168a5260a08501516001600160801b031660e08b015286820b910b1415610eec57600284810b900b60a0880152610ef4565b600060a08801525b5050505b8960020b856020015160020b13610f1157505050610f19565b505050610827565b816020015160020b8160c0015160020b14610f7757610f6582604001518261010001518360c001518460e00151866060015187608001516010612923909695949392919063ffffffff16565b61ffff90811660608501521660408301525b8051600455815160078054602085015160408601516060870151608088015160a08901511515600160e81b0260ff60e81b1961ffff928316600160d81b021662ffffff60d81b19938316600160c81b0261ffff60c81b1993909516600160b81b029290921663ffffffff60b81b1960029690960b62ffffff16600160a01b026001600160b81b03199097166001600160a01b039099169890981795909517939093169590951717939093169290921791909117905560c082015160e08301516001600160801b03908116600160801b029116176008558261107f5760405162461bcd60e51b8152602060048201526002602482015261282960f11b60448201526064016106d7565b600354611096906001600160a01b03168a85612acb565b600084116110cb5760405162461bcd60e51b8152602060048201526002602482015261050560f41b60448201526064016106d7565b60006110d5612bcc565b60405163061e01a160e21b8152909150339063187806849061110190889088908c908c9060040161423d565b600060405180830381600087803b15801561111b57600080fd5b505af115801561112f573d6000803e3d6000fd5b50505050848161113f91906143b0565b611147612bcc565b101561117a5760405162461bcd60e51b8152602060048201526002602482015261584560f01b60448201526064016106d7565b5050509550959350505050565b6000806000866001600160801b0316116111b35760405162461bcd60e51b81526004016106d790614221565b6000546111c490869060020b611d9b565b60408051610100810182526007546001600160a01b0381168252600160a01b8104600290810b810b900b6020830152600160b81b810461ffff90811693830193909352600160c81b810483166060830152600160d81b81049092166080820152600160e81b90910460ff16151560a08201526008546001600160801b0380821660c0840152600160801b9091041660e082015290955060009250829150611269614017565b6004548152600554602080830191909152600060408301526006546001600160a01b03166060830152600354600160b81b9004600290810b810b900b60808301819052908301516112bd91600c9190611dbb565b600290810b810b60a08301526020830151810b900b60c0808301919091528201516001600160801b031660e082015263ffffffff43166101008201525b816020015160020b8760020b1315801561131657508060400151155b15610f195760008160a0015160021660020b131561166957600354600090620f42409061134f90600160a01b900462ffffff16826146f4565b6113679062ffffff166001600160801b038c166145ec565b611371919061444d565b90506001600160801b0381161561165f57602080840151600290810b810b6000908152600d9092526040822090810154855191926001600160801b039091169181906113bf90869085612cb0565b91509150826001600160801b0316816001600160801b031610806113f55750846001600160801b0316826001600160801b031610155b1561140257600160408701525b6000856001600160801b0316836001600160801b03161061142e57611427838f614691565b90506114e4565b60035461144a90600160a01b900462ffffff16620f42406146f4565b60035462ffffff9182169161147091600160a01b9004166001600160801b0386166145ec565b61147a919061444d565b60035490915060009061149c90600160a01b900462ffffff16620f42406146f4565b60035462ffffff918216916114c291600160a01b9004166001600160801b0387166145ec565b6114cc9190614819565b905080156114e2576114df600183614346565b91505b505b806001600160801b03166201000f600082825461150191906143b0565b9091555061151190508184614346565b61151b908f614691565b9d50806001600160801b0316836001600160801b03168b61153c91906143b0565b61154691906143b0565b995061155b6001600160801b0383168a6143b0565b98506115678285614691565b6002860180546001600160801b0319166001600160801b038381169190911780835592965085926010916115a5918591600160801b90910416614346565b92506101000a8154816001600160801b0302191690836001600160801b03160217905550826001600160801b03168560030160008282546115e691906143b0565b909155505084546001600160801b031615801561160a57506001600160801b038416155b156116555760a08701516020890151608089015160019092169161163191600c9184611ec1565b8060020b60001415611653576020890151608089015161165391600a91611f08565b505b5050505050611667565b600160408301525b505b80604001511561167857610f19565b60006001836020015161168b919061460b565b905060008260a0015160011660020b13156119f557600354600090620f4240906116c190600160a01b900462ffffff16826146f4565b6116d99062ffffff166001600160801b038d166145ec565b6116e3919061444d565b90506001600160801b038116156119eb5760c08401516001600160801b03161561194657600061171d858660200151866060015185612d71565b80511515604086015260208101519091506000906001600160801b03808516911610611759576020820151611752908d614691565b9050611819565b60035461177590600160a01b900462ffffff16620f42406146f4565b600354602084015162ffffff928316926117a092600160a01b900416906001600160801b03166145ec565b6117aa919061444d565b6003549091506000906117cc90600160a01b900462ffffff16620f42406146f4565b600354602085015162ffffff928316926117f792600160a01b900416906001600160801b03166145ec565b6118019190614819565b9050801561181757611814600183614346565b91505b505b6000606461185562ffffff7f0000000000000000000000000000000000000000000000000000000000000000166001600160801b0385166145ec565b61185f919061444d565b9050806201000f600082825461187591906143b0565b909155506118a99050611891826001600160801b038516614710565b600160801b8960c001516001600160801b0316612313565b86516118b591906143b0565b865260208301516001600160801b03808416916118d391168b6143b0565b6118dd91906143b0565b98508260400151886118ef91906143b0565b97508183602001516119019190614346565b61190b908e614691565b6060840151600290810b900b602089015260808401516001600160a01b0316885260a0909301516001600160801b031660e088015250909a50505b82604001516119e657602080850151600290810b900b6000908152600b825260409020845191850151909161197d918391906123e3565b60c0850151815461199c9190610c6d90600160801b9004600f0b61482d565b6001600160801b031660c086015260208501516119bb9060019061460b565b600290810b900b602086018190526119d29061242f565b6001600160a01b0316855250600060e08501525b6119f3565b600160408401525b505b816040015180611a0e57508760020b836020015160020b125b15611a195750610f19565b6000611a35828460800151600a6128399092919063ffffffff16565b90508860020b8160020b1215611a485750875b6000611a64828560800151600c611dbb9092919063ffffffff16565b90508460c001516001600160801b031660001415611aaf57600282810b900b60208601819052611a939061242f565b6001600160a01b03168552600281810b900b60a0850152611d7a565b600354600090620f424090611ad090600160a01b900462ffffff16826146f4565b611ae89062ffffff166001600160801b038f166145ec565b611af2919061444d565b90506001600160801b03811615611d45576000611b158785886060015185612d71565b80511515604088015260208101519091506000906001600160801b03808516911610611b51576020820151611b4a908f614691565b9050611c11565b600354611b6d90600160a01b900462ffffff16620f42406146f4565b600354602084015162ffffff92831692611b9892600160a01b900416906001600160801b03166145ec565b611ba2919061444d565b600354909150600090611bc490600160a01b900462ffffff16620f42406146f4565b600354602085015162ffffff92831692611bef92600160a01b900416906001600160801b03166145ec565b611bf99190614819565b90508015611c0f57611c0c600183614346565b91505b505b6040820151611c20908a6143b0565b9850806001600160801b031682602001516001600160801b03168b611c4591906143b0565b611c4f91906143b0565b9950808260200151611c619190614346565b611c6b908f614691565b9d5060006064611ca962ffffff7f0000000000000000000000000000000000000000000000000000000000000000166001600160801b0385166145ec565b611cb3919061444d565b9050806201000f6000828254611cc991906143b0565b90915550611cfd9050611ce5826001600160801b038516614710565b600160801b8b60c001516001600160801b0316612313565b8851611d0991906143b0565b885250506060810151600290810b900b602088015260808101516001600160a01b0316875260a001516001600160801b031660e0870152611d4d565b600160408601525b8260020b866020015160020b1415611d7057600282810b900b60a0860152611d78565b600060a08601525b505b8960020b856020015160020b13611d9357505050610f19565b5050506112fa565b60008160020b8360020b1315611db2575081611db5565b50805b92915050565b6000611dc782846147d6565b60020b15611dd757506000611e01565b836000611de484866143ed565b600290810b810b8252602082019290925260400160002054900b90505b9392505050565b6000836001600160801b038084169082161115611e225750815b6000611e45826001600160801b0316600160601b876001600160a01b0316611e6a565b9050611e5f81600160601b876001600160a01b0316611e6a565b925050935093915050565b6000611e77848484612313565b905060008280611e9757634e487b7160e01b600052601260045260246000fd5b8486091115611e01576000198110611eae57600080fd5b80611eb8816147bb565b95945050505050565b80846000611ecf85876143ed565b60020b60020b815260200190815260200160002060006101000a81548162ffffff021916908360020b62ffffff16021790555050505050565b611f1281836147d6565b60020b15611f1f57600080fd5b6000611f2b82846143ed565b9050600281900b60081d6000611f43610100846147d6565b600192830b830b60009081526020979097526040909620805460ff9097169290921b19909516905550505050565b6040805160c08082018352600080835260208301819052928201839052606082018390526080820183905260a08201929092529085015160e08601516001600160801b03918216911610808015611fe8575060008660e001516001600160801b03161180611fe85750856020015160020b8560020b145b15612096576120058387600001518860c001518960e001516130e2565b6001600160801b0390811660a086018190529181166040860152602085019290925260c088015190911611806120515750826001600160801b031682604001516001600160801b031610155b1561208057600182526020860151600290810b900b606083015285516001600160a01b03166080830152612128565b604082015161208f9084614691565b9250612128565b80156121145760208601516120ac90600161427a565b600290810b900b6020870152600160601b6120d0816001600160a01b038716614710565b87516120e591906001600160a01b03166145ec565b6120ef919061444d565b865161210491906001600160a01b03166143b0565b6001600160a01b03168652612128565b60e08601516001600160801b031660a08301525b815115612135575061230b565b856020015160020b8560020b12156122e75760006121528661242f565b905060006121c26040518060c001604052808a60c001516001600160801b03168152602001846001600160a01b031681526020018960020b81526020018a600001516001600160a01b031681526020018a6020015160020b8152602001886001600160a01b0316815250866131dd565b90508060000151846020018181516121da91906143b0565b90525060208101516121ec9086614691565b94508060200151846040018181516122049190614346565b6001600160801b0316905250604081015115612253576001600160801b03808616158552600288810b900b60608601526001600160a01b038316608086015260c08901511660a08501526122e0565b60008061226b8784608001518c60c0015160006130e2565b6001600160801b031660a089015260208801805192945090925083916122929083906143b0565b9052506040860180518291906122a9908390614346565b6001600160801b03169052505060018552506080808201516001600160a01b031690850152606080820151600290810b900b908501525b5050612309565b6020860151600290810b900b606083015285516001600160a01b031660808301525b505b949350505050565b60008080600019858709858702925082811083820303915050806000141561234d576000841161234257600080fd5b508290049050611e01565b80841161235957600080fd5b6000848688096001861981018716968790046003810260029081188083028203028083028203028083028203028083028203028083028203029182029003026000889003889004909101858311909403939093029303949094049190911702949350505050565b6000816001600160801b0316836001600160801b03161015611db2575081611db5565b60018301805460029094018054949093039055919091039055565b60008082600f0b1215612425576124148261482d565b61241e9084614691565b9050611db5565b611e018284614346565b60008060008360020b12612446578260020b612453565b8260020b6124539061486d565b9050612462620d89e719614853565b60020b8111156124985760405162461bcd60e51b81526020600482015260016024820152601560fa1b60448201526064016106d7565b6000600182166124ac57600160801b6124be565b6ffffcb933bd6fad37aa2d162d1a5940015b6001600160881b0316905060028216156124f35760806124ee826ffff97272373d413259a46990580e213a6145ec565b901c90505b600482161561251d576080612518826ffff2e50f5f656932ef12357cf3c7fdcc6145ec565b901c90505b6008821615612547576080612542826fffe5caca7e10e4e61c3624eaa0941cd06145ec565b901c90505b601082161561257157608061256c826fffcb9843d60f6159c9db58835c9266446145ec565b901c90505b602082161561259b576080612596826fff973b41fa98c081472e6896dfb254c06145ec565b901c90505b60408216156125c55760806125c0826fff2ea16466c96a3843ec78b326b528616145ec565b901c90505b60808216156125ef5760806125ea826ffe5dee046a99a2a811c461f1969c30536145ec565b901c90505b61010082161561261a576080612615826ffcbe86c7900a88aedcffc83b479aa3a46145ec565b901c90505b610200821615612645576080612640826ff987a7253ac413176f2b074cf7815e546145ec565b901c90505b61040082161561267057608061266b826ff3392b0822b70005940c7a398e4b70f36145ec565b901c90505b61080082161561269b576080612696826fe7159475a2c29b7443b29c7fa6e889d96145ec565b901c90505b6110008216156126c65760806126c1826fd097f3bdfd2022b8845ad8f792aa58256145ec565b901c90505b6120008216156126f15760806126ec826fa9f746462d870fdf8a65dc1f90e061e56145ec565b901c90505b61400082161561271c576080612717826f70d869a156d2a1b890bb3df62baf32f76145ec565b901c90505b618000821615612747576080612742826f31be135f97d08fd981231505542fcfa66145ec565b901c90505b6201000082161561277357608061276e826f09aa508b5b7a84e1c677de54f3e99bc96145ec565b901c90505b6202000082161561279e576080612799826e5d6af8dedb81196699c329225ee6046145ec565b901c90505b620400008216156127c85760806127c3826d2216e584f5fa1ea926041bedfe986145ec565b901c90505b620800008216156127f05760806127eb826b048a170391f7dc42444e8fa26145ec565b901c90505b60008460020b131561280b576128088160001961444d565b90505b612819600160201b82614819565b15612825576001612828565b60005b61230b9060ff16602083901c6143b0565b60008061284683856143ed565b905060008460020b128015612866575061286083856147d6565b60020b15155b15612879578061287581614797565b9150505b600281900b60081d600061288f610100846147d6565b90506000600160ff831681901b906128a79082614710565b6128b191906143b0565b600184810b900b600090815260208a90526040902054169050806128ec57856128dd60ff84168661460b565b6128e79190614461565b612917565b856128f682613502565b6129009084614744565b61290d9060ff168661460b565b6129179190614461565b98975050505050505050565b6000806000898961ffff1661ffff811061294d57634e487b7160e01b600052603260045260246000fd5b60408051608081018252919092015463ffffffff808216808452600160201b8304600690810b810b900b6020850152600160581b83046001600160a01b031694840194909452600160f81b90910460ff1615156060830152909250891614156129bc5788859250925050612abf565b8461ffff168461ffff161180156129e457506129d96001866146b9565b61ffff168961ffff16145b156129f1578391506129f5565b8491505b81612a018a6001614371565b612a0b91906147f8565b9250612a19818989896135f4565b8a8461ffff1661ffff8110612a3e57634e487b7160e01b600052603260045260246000fd5b825191018054602084015160408501516060909501511515600160f81b026001600160f81b036001600160a01b03909616600160581b02959095166001600160581b0360069290920b66ffffffffffffff16600160201b026001600160581b031990931663ffffffff90951694909417919091171691909117919091179055505b97509795505050505050565b604080516001600160a01b038481166024830152604480830185905283518084039091018152606490920183526020820180516001600160e01b031663a9059cbb60e01b1790529151600092839290871691612b2791906141b6565b6000604051808303816000865af19150503d8060008114612b64576040519150601f19603f3d011682016040523d82523d6000602084013e612b69565b606091505b5091509150818015612b93575080511580612b93575080806020019051810190612b93919061412b565b612bc55760405162461bcd60e51b8152602060048201526003602482015262544e5360e81b60448201526064016106d7565b5050505050565b600254604051600091829182916001600160a01b0316906370a0823160e01b90612bfa9030906024016141d2565b60408051601f198184030181529181526020820180516001600160e01b03166001600160e01b0319909416939093179092529051612c3891906141b6565b600060405180830381855afa9150503d8060008114612c73576040519150601f19603f3d011682016040523d82523d6000602084013e612c78565b606091505b5091509150818015612c8c57506020815110155b612c9557600080fd5b80806020019051810190612ca9919061419e565b9250505090565b6000806000612cd6866001600160801b0316866001600160a01b0316600160601b612313565b9050612cf081866001600160a01b0316600160601b612313565b9150836001600160801b0316826001600160801b03161115612d10578391505b612d31826001600160801b0316600160601b876001600160a01b0316611e6a565b90506000612d4d82600160601b886001600160a01b0316611e6a565b905080935080846001600160801b031614612d6757600080fd5b5050935093915050565b6040805160c08082018352600080835260208301819052928201839052606082018390526080820183905260a08201929092529085015160e08601516001600160801b03918216911610808015612de8575060008660e001516001600160801b03161180612de85750856020015160020b8560020b145b15612e9657612e058387600001518860c001518960e001516136d5565b6001600160801b0390811660a086018190526040860192909252918216602085015260c08801519091161180612e515750826001600160801b031682602001516001600160801b031610155b15612e8057600182526020860151600290810b900b606083015285516001600160a01b03166080830152612f28565b6020820151612e8f9084614691565b9250612f28565b8015612f14576020860151612eac90600161427a565b600290810b900b6020870152600160601b612ed0816001600160a01b038716614710565b8751612ee591906001600160a01b03166145ec565b612eef919061444d565b8651612f0491906001600160a01b03166143b0565b6001600160a01b03168652612f28565b60e08601516001600160801b031660a08301525b815115612f35575061230b565b856020015160020b8560020b12156122e7576000612f528661242f565b90506000612fc26040518060c001604052808a60c001516001600160801b03168152602001846001600160a01b031681526020018960020b81526020018a600001516001600160a01b031681526020018a6020015160020b8152602001886001600160a01b031681525086613777565b9050806000015184602001818151612fda9190614346565b6001600160801b03169052508051612ff29086614691565b945080602001518460400181815161300a91906143b0565b905250604081015115613050576001600160801b03808616158552600288810b900b60608601526001600160a01b038316608086015260c08901511660a08501526122e0565b6000806130688784608001518c60c0015160006136d5565b6001600160801b031660a0890152602088018051929450909250839161308f908390614346565b6001600160801b03169052506040860180518291906130af9083906143b0565b9052505060018552506080818101516001600160a01b031690850152606090810151600290810b900b9084015250612309565b60008080806130f18587614691565b6001600160801b03169050600061311f896001600160801b0316600160601b8a6001600160a01b0316613ac7565b905060008282116131305781613132565b825b9050613155816001600160801b0316600160601b8b6001600160a01b0316613ac7565b955061318b600160601b6131728b6001600160801b0385166145bd565b6001600160a01b0316613185919061444d565b8b6123c0565b94506131c46040518060400160405280600c81526020016b1858dc5d5a5c99564e88095960a21b815250866001600160801b0316613b0b565b6131ce8188614346565b93505050509450945094915050565b6040805160a08101825260008082526020820181905291810182905260608101829052608081019190915260006132288460000151856020015186606001518760a001516000613b54565b9050826001600160801b0316811161327d576001600160801b0381166020830152835160408501516080860151606087015160a088015161326e94939291906001613bdb565b82525060016040820152611db5565b600084600001516001600160801b0316600160601b8660a001516001600160a01b03166132aa9190614710565b6132bd906001600160801b0387166145ec565b6132c7919061444d565b85606001516001600160a01b03166132df9190614710565b90506132ea81613ca7565b6132f590600161427a565b600290810b900b6060840181905260808601516133129190613fdf565b600290810b900b60608401819052604086015161333a919061333590600161427a565b611d9b565b600290810b810b60608501819052600060408601526080870151820b910b14156133a3576000808452602084015260608301516133799060019061460b565b600290810b900b606084018190526133909061242f565b6001600160a01b031660808401526134fa565b60006133c1846060015187608001516133bc919061460b565b61242f565b905060006133ee87606001516001600160a01b0316600160601b8960a001516001600160a01b0316613ac7565b8751909150613435906001600160801b0316613417600160601b6001600160a01b038616614710565b838a6060015161342791906146d4565b6001600160a01b0316613ac7565b855260608501516134489060019061460b565b600290810b900b6060860181905261345f9061242f565b6001600160a01b03908116608087015260a0880151600091600160601b9161348991839116614710565b87608001516001600160a01b03166134a191906145ec565b6134ab919061444d565b86608001516001600160a01b03166134c391906143b0565b90506134e86134e28960000151838b606001518c60a001516000613b54565b886123c0565b6001600160801b031660208701525050505b505092915050565b600080821161351057600080fd5b600160801b821061352e57608091821c9161352b90826143c8565b90505b600160401b821061354c57604091821c9161354990826143c8565b90505b600160201b821061356a57602091821c9161356790826143c8565b90505b62010000821061358757601091821c9161358490826143c8565b90505b61010082106135a357600891821c916135a090826143c8565b90505b601082106135be57600491821c916135bb90826143c8565b90505b600482106135d957600291821c916135d690826143c8565b90505b600282106135ef576135ec6001826143c8565b90505b919050565b60408051608081018252600080825260208201819052918101829052606081019190915284516000906136279086614727565b63ffffffff16905060405180608001604052808663ffffffff168152602001828660020b613655919061456d565b88602001516136649190614301565b60060b81526020016000856001600160801b031611613684576001613686565b845b6136a9906001600160801b031666ffffffffffffff60801b608086901b16614427565b88604001516136b8919061438e565b6001600160a01b0316815260016020909101529695505050505050565b60008080806136e48587614691565b6001600160801b031690506000613712896001600160801b0316896001600160a01b0316600160601b612313565b905060008282116137235781613725565b825b9050613748816001600160801b0316600160601b8b6001600160a01b0316613ac7565b955061376b816001600160801b03168a6001600160a01b0316600160601b612313565b94506131ce8188614346565b6040805160a08101825260008082526020820181905291810182905260608101829052608081019190915260006137cd84606001516001600160a01b0316600160601b8660a001516001600160a01b0316613ac7565b905060006137e8856040015186608001516133bc919061460b565b8551909150600090613824906001600160801b0316613814600160601b6001600160a01b038616614710565b85896060015161342791906146d4565b9050846001600160801b03168111613872576001600160801b038116845285516020870151606088015160a0890151613861939291906000613b54565b602085015260016040850152613abe565b6000600160601b87600001516001600160801b0316856001600160a01b031689606001516001600160a01b03166138a99190614710565b6138bc906001600160801b038a166145ec565b6138c6919061444d565b6138d091906143b0565b905060006138dd82613ca7565b90508088608001516138ef919061460b565b600290810b900b60608701819052608089015161390c9190613fdf565b600290810b900b60608701819052604089015161392f919061333590600161427a565b600290810b810b606088018190526000604089015260808a0151820b910b14156139985760008087526020870152606086015161396e9060019061460b565b600290810b900b606087018190526139859061242f565b6001600160a01b03166080870152613abb565b60006139b187606001518a608001516133bc919061460b565b89519091506139ea906001600160801b03166139da600160601b6001600160a01b038516614710565b888c6060015161342791906146d4565b6001600160801b0316808852613a0090896123c0565b6001600160801b031687526060870151613a1c9060019061460b565b600290810b900b60608801819052613a339061242f565b6001600160a01b03908116608089015260a08a0151600091600160601b91613a5d91839116614710565b89608001516001600160a01b0316613a7591906145ec565b613a7f919061444d565b88608001516001600160a01b0316613a9791906143b0565b9050613ab38a60000151828c606001518d60a001516000613b54565b602089015250505b50505b50505092915050565b600080613ad484866145ec565b9050613ae08382614819565b613af657613aee838261444d565b915050611e01565b613b00838261444d565b611eb89060016143b0565b613b508282604051602401613b219291906141e6565b60408051601f198184030181529190526020810180516001600160e01b03166309710a9d60e41b179052613ff6565b5050565b600080613b6186866146d4565b90506000613b73600160601b866146d4565b905083613ba757613ba0886001600160801b0316836001600160a01b0316836001600160a01b0316612313565b9250613bd0565b613bcd886001600160801b0316836001600160a01b0316836001600160a01b0316611e6a565b92505b505095945050505050565b600080613beb6133bc888861460b565b90506000846001600160a01b0316600160601b876001600160a01b0316613c1291906145ec565b613c1c919061444d565b90506000613c2e600160601b846146d4565b90506000613c3c83896146d4565b905085613c7057613c698b6001600160801b0316836001600160a01b0316836001600160a01b0316612313565b9450613c99565b613c968b6001600160801b0316836001600160a01b0316836001600160a01b0316611e6a565b94505b505050509695505050505050565b60006401000276a36001600160a01b03831610801590613ce3575073fffd8963efd1fc6a506488495d951d5263988d266001600160a01b038316105b613d135760405162461bcd60e51b81526020600482015260016024820152602960f91b60448201526064016106d7565b600160201b600160c01b03602083901b166001600160801b03811160071b81811c6001600160401b03811160061b90811c63ffffffff811160051b90811c61ffff811160041b90811c60ff8111600390811b91821c600f811160021b90811c918211600190811b92831c97908811961790941790921717909117171760808110613dac57613da2607f82614710565b83901c9150613dbd565b613db781607f614710565b83901b91505b60006040613dcc608084614652565b901b9050828302607f1c92508260801c80603f1b8217915083811c935050828302607f1c92508260801c80603e1b8217915083811c935050828302607f1c92508260801c80603d1b8217915083811c935050828302607f1c92508260801c80603c1b8217915083811c935050828302607f1c92508260801c80603b1b8217915083811c935050828302607f1c92508260801c80603a1b8217915083811c935050828302607f1c92508260801c8060391b8217915083811c935050828302607f1c92508260801c8060381b8217915083811c935050828302607f1c92508260801c8060371b8217915083811c935050828302607f1c92508260801c8060361b8217915083811c935050828302607f1c92508260801c8060351b8217915083811c935050828302607f1c92508260801c8060341b8217915083811c935050828302607f1c92508260801c8060331b8217915083811c935050828302607f1c92508260801c8060321b8217915050600081693627a301d71055774c85613f4f91906144ea565b905060006080613f6f6f028f6481ab7f045a5af012a19d003aaa84614652565b901d905060006080613f91846fdb2df09e81959a81455e260799a0632f6142c0565b901d90508060020b8260020b14613fd057886001600160a01b0316613fb58261242f565b6001600160a01b03161115613fca5781613fd2565b80613fd2565b815b9998505050505050505050565b60008160020b8360020b1215611db2575081611db5565b80516a636f6e736f6c652e6c6f67602083016000808483855afa5050505050565b6040805161012081018252600080825260208201819052918101829052606081018290526080810182905260a0810182905260c0810182905260e0810182905261010081019190915290565b8035600281900b81146135ef57600080fd5b60008060008060006080868803121561408c578081fd5b85356001600160a01b03811681146140a2578182fd5b945060208601356001600160801b03811681146140bd578182fd5b93506140cb60408701614063565b925060608601356001600160401b03808211156140e6578283fd5b818801915088601f8301126140f9578283fd5b813581811115614107578384fd5b896020828501011115614118578384fd5b9699959850939650602001949392505050565b60006020828403121561413c578081fd5b81518015158114611e01578182fd5b60006020828403121561415c578081fd5b5035919050565b600060208284031215614174578081fd5b81358060010b8114611e01578182fd5b600060208284031215614195578081fd5b611e0182614063565b6000602082840312156141af578081fd5b5051919050565b600082516141c8818460208701614767565b9190910192915050565b6001600160a01b0391909116815260200190565b6040815260008351806040840152614205816060850160208801614767565b602083019390935250601f91909101601f191601606001919050565b602080825260029082015261041560f41b604082015260600190565b84815283602082015260606040820152816060820152818360808301376000818301608090810191909152601f909201601f191601019392505050565b60008160020b8360020b82821282627fffff0382138115161561429f5761429f614887565b82627fffff190382128116156142b7576142b7614887565b50019392505050565b600080821280156001600160ff1b03849003851316156142e2576142e2614887565b600160ff1b83900384128116156142fb576142fb614887565b50500190565b60008160060b8360060b82821282667fffffffffffff0382138115161561432a5761432a614887565b82667fffffffffffff190382128116156142b7576142b7614887565b60006001600160801b0382811684821680830382111561436857614368614887565b01949350505050565b600061ffff80831681851680830382111561436857614368614887565b60006001600160a01b0382811684821680830382111561436857614368614887565b600082198211156143c3576143c3614887565b500190565b600060ff821660ff84168060ff038211156143e5576143e5614887565b019392505050565b60008160020b8360020b806144045761440461489d565b627fffff1982146000198214161561441e5761441e614887565b90059392505050565b60006001600160a01b03838116806144415761444161489d565b92169190910492915050565b60008261445c5761445c61489d565b500490565b60008160020b8360020b627fffff8382138484138383048511828216161561448b5761448b614887565b627fffff19868512828116878305871216156144a9576144a9614887565b8787129250858205871284841616156144c4576144c4614887565b858505871281841616156144da576144da614887565b5050509290910295945050505050565b60006001600160ff1b038184138284138082168684048611161561451057614510614887565b600160ff1b8487128281168783058912161561452e5761452e614887565b85871292508782058712848416161561454957614549614887565b8785058712818416161561455f5761455f614887565b505050929093029392505050565b60008160060b8360060b667fffffffffffff8382138484138383048511828216161561459b5761459b614887565b667fffffffffffff19868512828116878305871216156144a9576144a9614887565b60006001600160a01b03828116848216811515828404821116156145e3576145e3614887565b02949350505050565b600081600019048311821515161561460657614606614887565b500290565b60008160020b8360020b82811281627fffff190183128115161561463157614631614887565b81627fffff01831381161561464857614648614887565b5090039392505050565b60008083128015600160ff1b85018412161561467057614670614887565b6001600160ff1b038401831381161561468b5761468b614887565b50500390565b60006001600160801b03838116908316818110156146b1576146b1614887565b039392505050565b600061ffff838116908316818110156146b1576146b1614887565b60006001600160a01b03838116908316818110156146b1576146b1614887565b600062ffffff838116908316818110156146b1576146b1614887565b60008282101561472257614722614887565b500390565b600063ffffffff838116908316818110156146b1576146b1614887565b600060ff821660ff84168082101561475e5761475e614887565b90039392505050565b60005b8381101561478257818101518382015260200161476a565b83811115614791576000848401525b50505050565b60008160020b627fffff198114156147b1576147b1614887565b6000190192915050565b60006000198214156147cf576147cf614887565b5060010190565b60008260020b806147e9576147e961489d565b808360020b0791505092915050565b600061ffff8084168061480d5761480d61489d565b92169190910692915050565b6000826148285761482861489d565b500690565b6000600f82900b60016001607f1b031981141561484c5761484c614887565b9003919050565b60008160020b627fffff1981141561484c5761484c614887565b6000600160ff1b82141561488357614883614887565b0390565b634e487b7160e01b600052601160045260246000fd5b634e487b7160e01b600052601260045260246000fdfea2646970667358221220a087a81ff01ecf7fa385aafd86d218f7c4f4b908027645869cfe1bae39a10b0b64736f6c63430008040033",
  "linkReferences": {},
  "deployedLinkReferences": {}
}