{
  "_format": "hh-sol-artifact-1",
  "contractName": "SwapY2XModule",
  "sourceName": "contracts/swapY2X.sol",
  "abi": [
    {
      "inputs": [],
      "name": "factory",
      "outputs": [
        {
          "internalType": "address",
          "name": "",
          "type": "address"
        }
      ],
      "stateMutability": "view",
      "type": "function"
    },
    {
      "inputs": [],
      "name": "fee",
      "outputs": [
        {
          "internalType": "uint24",
          "name": "",
          "type": "uint24"
        }
      ],
      "stateMutability": "view",
      "type": "function"
    },
    {
      "inputs": [],
      "name": "feeChargePercent",
      "outputs": [
        {
          "internalType": "uint24",
          "name": "",
          "type": "uint24"
        }
      ],
      "stateMutability": "view",
      "type": "function"
    },
    {
      "inputs": [],
      "name": "feeScaleX_128",
      "outputs": [
        {
          "internalType": "uint256",
          "name": "",
          "type": "uint256"
        }
      ],
      "stateMutability": "view",
      "type": "function"
    },
    {
      "inputs": [],
      "name": "feeScaleY_128",
      "outputs": [
        {
          "internalType": "uint256",
          "name": "",
          "type": "uint256"
        }
      ],
      "stateMutability": "view",
      "type": "function"
    },
    {
      "inputs": [],
      "name": "leftMostPt",
      "outputs": [
        {
          "internalType": "int24",
          "name": "",
          "type": "int24"
        }
      ],
      "stateMutability": "view",
      "type": "function"
    },
    {
      "inputs": [
        {
          "internalType": "int24",
          "name": "",
          "type": "int24"
        }
      ],
      "name": "limitOrderData",
      "outputs": [
        {
          "internalType": "uint128",
          "name": "sellingX",
          "type": "uint128"
        },
        {
          "internalType": "uint128",
          "name": "earnY",
          "type": "uint128"
        },
        {
          "internalType": "uint256",
          "name": "accEarnY",
          "type": "uint256"
        },
        {
          "internalType": "uint128",
          "name": "sellingY",
          "type": "uint128"
        },
        {
          "internalType": "uint128",
          "name": "earnX",
          "type": "uint128"
        },
        {
          "internalType": "uint256",
          "name": "accEarnX",
          "type": "uint256"
        }
      ],
      "stateMutability": "view",
      "type": "function"
    },
    {
      "inputs": [
        {
          "internalType": "bytes32",
          "name": "",
          "type": "bytes32"
        }
      ],
      "name": "liquidities",
      "outputs": [
        {
          "internalType": "uint128",
          "name": "liquidity",
          "type": "uint128"
        },
        {
          "internalType": "uint256",
          "name": "lastFeeScaleX_128",
          "type": "uint256"
        },
        {
          "internalType": "uint256",
          "name": "lastFeeScaleY_128",
          "type": "uint256"
        },
        {
          "internalType": "uint256",
          "name": "tokenOwedX",
          "type": "uint256"
        },
        {
          "internalType": "uint256",
          "name": "tokenOwedY",
          "type": "uint256"
        }
      ],
      "stateMutability": "view",
      "type": "function"
    },
    {
      "inputs": [],
      "name": "maxLiquidPt",
      "outputs": [
        {
          "internalType": "uint128",
          "name": "",
          "type": "uint128"
        }
      ],
      "stateMutability": "view",
      "type": "function"
    },
    {
      "inputs": [
        {
          "internalType": "uint256",
          "name": "",
          "type": "uint256"
        }
      ],
      "name": "observations",
      "outputs": [
        {
          "internalType": "uint32",
          "name": "timestamp",
          "type": "uint32"
        },
        {
          "internalType": "int56",
          "name": "pointCumulative",
          "type": "int56"
        },
        {
          "internalType": "uint160",
          "name": "secondsPerLiquidityCumulative_128",
          "type": "uint160"
        },
        {
          "internalType": "bool",
          "name": "init",
          "type": "bool"
        }
      ],
      "stateMutability": "view",
      "type": "function"
    },
    {
      "inputs": [
        {
          "internalType": "int24",
          "name": "",
          "type": "int24"
        }
      ],
      "name": "orderOrEndpoint",
      "outputs": [
        {
          "internalType": "int24",
          "name": "",
          "type": "int24"
        }
      ],
      "stateMutability": "view",
      "type": "function"
    },
    {
      "inputs": [
        {
          "internalType": "int16",
          "name": "",
          "type": "int16"
        }
      ],
      "name": "pointBitmap",
      "outputs": [
        {
          "internalType": "uint256",
          "name": "",
          "type": "uint256"
        }
      ],
      "stateMutability": "view",
      "type": "function"
    },
    {
      "inputs": [],
      "name": "pointDelta",
      "outputs": [
        {
          "internalType": "int24",
          "name": "",
          "type": "int24"
        }
      ],
      "stateMutability": "view",
      "type": "function"
    },
    {
      "inputs": [
        {
          "internalType": "int24",
          "name": "",
          "type": "int24"
        }
      ],
      "name": "points",
      "outputs": [
        {
          "internalType": "uint128",
          "name": "liquidSum",
          "type": "uint128"
        },
        {
          "internalType": "int128",
          "name": "liquidDelta",
          "type": "int128"
        },
        {
          "internalType": "uint256",
          "name": "accFeeXOut_128",
          "type": "uint256"
        },
        {
          "internalType": "uint256",
          "name": "accFeeYOut_128",
          "type": "uint256"
        },
        {
          "internalType": "bool",
          "name": "isEndpt",
          "type": "bool"
        }
      ],
      "stateMutability": "view",
      "type": "function"
    },
    {
      "inputs": [],
      "name": "rightMostPt",
      "outputs": [
        {
          "internalType": "int24",
          "name": "",
          "type": "int24"
        }
      ],
      "stateMutability": "view",
      "type": "function"
    },
    {
      "inputs": [],
      "name": "state",
      "outputs": [
        {
          "internalType": "uint160",
          "name": "sqrtPrice_96",
          "type": "uint160"
        },
        {
          "internalType": "int24",
          "name": "currentPoint",
          "type": "int24"
        },
        {
          "internalType": "uint16",
          "name": "observationCurrentIndex",
          "type": "uint16"
        },
        {
          "internalType": "uint16",
          "name": "observationQueueLen",
          "type": "uint16"
        },
        {
          "internalType": "uint16",
          "name": "observationNextQueueLen",
          "type": "uint16"
        },
        {
          "internalType": "bool",
          "name": "locked",
          "type": "bool"
        },
        {
          "internalType": "uint128",
          "name": "liquidity",
          "type": "uint128"
        },
        {
          "internalType": "uint128",
          "name": "liquidityX",
          "type": "uint128"
        }
      ],
      "stateMutability": "view",
      "type": "function"
    },
    {
      "inputs": [
        {
          "internalType": "address",
          "name": "recipient",
          "type": "address"
        },
        {
          "internalType": "uint128",
          "name": "amount",
          "type": "uint128"
        },
        {
          "internalType": "int24",
          "name": "highPt",
          "type": "int24"
        },
        {
          "internalType": "bytes",
          "name": "data",
          "type": "bytes"
        }
      ],
      "name": "swapY2X",
      "outputs": [
        {
          "internalType": "uint256",
          "name": "amountX",
          "type": "uint256"
        },
        {
          "internalType": "uint256",
          "name": "amountY",
          "type": "uint256"
        }
      ],
      "stateMutability": "nonpayable",
      "type": "function"
    },
    {
      "inputs": [
        {
          "internalType": "address",
          "name": "recipient",
          "type": "address"
        },
        {
          "internalType": "uint128",
          "name": "desireX",
          "type": "uint128"
        },
        {
          "internalType": "int24",
          "name": "highPt",
          "type": "int24"
        },
        {
          "internalType": "bytes",
          "name": "data",
          "type": "bytes"
        }
      ],
      "name": "swapY2XDesireX",
      "outputs": [
        {
          "internalType": "uint256",
          "name": "amountX",
          "type": "uint256"
        },
        {
          "internalType": "uint256",
          "name": "amountY",
          "type": "uint256"
        }
      ],
      "stateMutability": "nonpayable",
      "type": "function"
    },
    {
      "inputs": [],
      "name": "tokenX",
      "outputs": [
        {
          "internalType": "address",
          "name": "",
          "type": "address"
        }
      ],
      "stateMutability": "view",
      "type": "function"
    },
    {
      "inputs": [],
      "name": "tokenY",
      "outputs": [
        {
          "internalType": "address",
          "name": "",
          "type": "address"
        }
      ],
      "stateMutability": "view",
      "type": "function"
    },
    {
      "inputs": [],
      "name": "totalFeeXCharged",
      "outputs": [
        {
          "internalType": "uint256",
          "name": "",
          "type": "uint256"
        }
      ],
      "stateMutability": "view",
      "type": "function"
    },
    {
      "inputs": [],
      "name": "totalFeeYCharged",
      "outputs": [
        {
          "internalType": "uint256",
          "name": "",
          "type": "uint256"
        }
      ],
      "stateMutability": "view",
      "type": "function"
    },
    {
      "inputs": [
        {
          "internalType": "bytes32",
          "name": "",
          "type": "bytes32"
        }
      ],
      "name": "userEarnX",
      "outputs": [
        {
          "internalType": "uint256",
          "name": "lastAccEarn",
          "type": "uint256"
        },
        {
          "internalType": "uint128",
          "name": "sellingRemain",
          "type": "uint128"
        },
        {
          "internalType": "uint128",
          "name": "sellingDec",
          "type": "uint128"
        },
        {
          "internalType": "uint128",
          "name": "earn",
          "type": "uint128"
        },
        {
          "internalType": "uint128",
          "name": "earnAssign",
          "type": "uint128"
        }
      ],
      "stateMutability": "view",
      "type": "function"
    },
    {
      "inputs": [
        {
          "internalType": "bytes32",
          "name": "",
          "type": "bytes32"
        }
      ],
      "name": "userEarnY",
      "outputs": [
        {
          "internalType": "uint256",
          "name": "lastAccEarn",
          "type": "uint256"
        },
        {
          "internalType": "uint128",
          "name": "sellingRemain",
          "type": "uint128"
        },
        {
          "internalType": "uint128",
          "name": "sellingDec",
          "type": "uint128"
        },
        {
          "internalType": "uint128",
          "name": "earn",
          "type": "uint128"
        },
        {
          "internalType": "uint128",
          "name": "earnAssign",
          "type": "uint128"
        }
      ],
      "stateMutability": "view",
      "type": "function"
    }
  ],
  "bytecode": "0x60a0604052601960e91b60805234801561001857600080fd5b5060805160e81c61409a610045600039600081816103b001528181610e8f01526117e9015261409a6000f3fe608060405234801561001057600080fd5b50600436106101285760003560e01c80631621835f1461012d57806316dc165b146101b55780631aae2e55146101d5578063252c09d7146101ec5780632c4812521461023957806333005cd514610261578063537c2d8e1461026c578063588e59ae1461028c57806358c51ce61461029557806362ccaafd146102a95780636d01843b146102f657806375c0e0d51461032857806381794fba146103ab5780638790aca3146103e657806387e7d5fe1461047857806398a0f72e146104f1578063b7d19fc414610511578063c19d93fb14610524578063c45a0155146105e8578063d3b16864146105fb578063ddca3f431461060f578063e556289f14610625578063edcba3b214610630578063f094685a14610653575b600080fd5b61017a61013b3660046139ba565b600f6020526000908152604090208054600182015460029092015490916001600160801b0380821692600160801b928390048216928183169291041685565b604080519586526001600160801b039485166020870152928416928501929092528216606084015216608082015260a0015b60405180910390f35b6002546101c8906001600160a01b031681565b6040516101ac9190613a5e565b6101de60045481565b6040519081526020016101ac565b6101ff6101fa3660046139ba565b610666565b6040805163ffffffff909516855260069390930b60208501526001600160a01b0390911691830191909152151560608201526080016101ac565b61024c6102473660046138e4565b6106ab565b604080519283526020830191909152016101ac565b6101de620100105481565b6000546102799060020b81565b60405160029190910b81526020016101ac565b6101de60055481565b60035461027990600160b81b900460020b81565b61017a6102b73660046139ba565b600e6020526000908152604090208054600182015460029092015490916001600160801b0380821692600160801b928390048216928183169291041685565b60005461031090600160301b90046001600160801b031681565b6040516001600160801b0390911681526020016101ac565b6103746103363660046139f3565b600b6020526000908152604090208054600182015460028301546003909301546001600160801b03831693600160801b909304600f0b929060ff1685565b604080516001600160801b039096168652600f9490940b60208601529284019190915260608301521515608082015260a0016101ac565b6103d27f000000000000000000000000000000000000000000000000000000000000000081565b60405162ffffff90911681526020016101ac565b6104396103f43660046139f3565b600d6020526000908152604090208054600182015460028301546003909301546001600160801b0380841694600160801b948590048216948183169391049091169086565b604080516001600160801b03978816815295871660208701528501939093529084166060840152909216608082015260a081019190915260c0016101ac565b6104bf6104863660046139ba565b600960205260009081526040902080546001820154600283015460038401546004909401546001600160801b0390931693919290919085565b604080516001600160801b0390961686526020860194909452928401919091526060830152608082015260a0016101ac565b6101de6104ff3660046139d2565b600a6020526000908152604090205481565b6003546101c8906001600160a01b031681565b600754600854610589916001600160a01b03811691600160a01b820460020b9161ffff600160b81b8204811692600160c81b8304821692600160d81b81049092169160ff600160e81b90910416906001600160801b0380821691600160801b90041688565b604080516001600160a01b03909916895260029790970b602089015261ffff9586169688019690965292841660608701529216608085015290151560a08401526001600160801b0390811660c08401521660e0820152610100016101ac565b6001546101c8906001600160a01b031681565b600054610279906301000000900460020b81565b6003546103d290600160a01b900462ffffff1681565b6101de6201000f5481565b61027961063e3660046139f3565b600c6020526000908152604090205460020b81565b61024c6106613660046138e4565b61129c565b60108161ffff811061067757600080fd5b015463ffffffff81169150600160201b810460060b90600160581b81046001600160a01b031690600160f81b900460ff1684565b6000806000866001600160801b0316116106f15760405162461bcd60e51b8152602060048201526002602482015261041560f41b60448201526064015b60405180910390fd5b6000546107099086906301000000900460020b6119c0565b60408051610100810182526007546001600160a01b0381168252600160a01b8104600290810b810b900b6020830152600160b81b810461ffff90811693830193909352600160c81b810483166060830152600160d81b81049092166080820152600160e81b90910460ff16151560a08201526008546001600160801b0380821660c0840152600160801b9091041660e0820152909550600092508291506107ae613886565b6004548152600554602080830191909152600060408301526006546001600160a01b03166060830152600354600160b81b9004600290810b810b900b608083018190529083015161080291600c91906119e0565b600290810b810b60a08301526020830151810b900b60c0808301919091528201516001600160801b031660e082015263ffffffff43166101008201525b8660020b826020015160020b12801561085a57508060400151155b1561102b5760008160a0015160021660020b1315610bab57600354600090620f42409061089390600160a01b900462ffffff1682613ed5565b6108ab9062ffffff166001600160801b038c16613dcd565b6108b59190613c5d565b90506001600160801b03811615610ba157602080840151600290810b900b6000908152600d909152604081208054855191926001600160801b0390911691819061090190869085611a2d565b91509150826001600160801b0316816001600160801b031610806109375750846001600160801b0316826001600160801b031610155b1561094457600160408701525b6000856001600160801b0316836001600160801b03161061097057610969838f613e72565b9050610a26565b60035461098c90600160a01b900462ffffff16620f4240613ed5565b60035462ffffff918216916109b291600160a01b9004166001600160801b038616613dcd565b6109bc9190613c5d565b6003549091506000906109de90600160a01b900462ffffff16620f4240613ed5565b60035462ffffff91821691610a0491600160a01b9004166001600160801b038716613dcd565b610a0e9190613fca565b90508015610a2457610a21600183613b7b565b91505b505b806001600160801b0316620100106000828254610a439190613be5565b90915550610a5390508184613b7b565b610a5d908f613e72565b9d50806001600160801b0316836001600160801b03168a610a7e9190613be5565b610a889190613be5565b9850610a9d6001600160801b0383168b613be5565b9950610aa98285613e72565b85546001600160801b0319166001600160801b038281169190911780885591955084918791601091610ae4918591600160801b900416613b7b565b92506101000a8154816001600160801b0302191690836001600160801b03160217905550826001600160801b0316856001016000828254610b259190613be5565b909155505060028501546001600160801b0316158015610b4c57506001600160801b038416155b15610b975760a087015160208901516080890151600190921691610b7391600c9184611aee565b8060020b60001415610b955760208901516080890151610b9591600a91611b35565b505b5050505050610ba9565b600160408301525b505b806040015115610bba5761102b565b6000610bda83602001518360800151600a611b9e9092919063ffffffff16565b90506000610bf8828460800151600c6119e09092919063ffffffff16565b90508860020b8260020b1315610c0f575087905060005b60c08401516001600160801b0316610cc457600282810b900b60208501819052610c3890611c96565b6001600160a01b0316845260006001821660020b1315610cb357600282810b900b6000908152600b602090815260409091208451918501519091610c7e918391906120a8565b805460c0860151600160801b909104600f0b90610c9b90826120c3565b6001600160801b031660c0870181905260e087015250505b600281810b900b60a0840152611024565b600354600090620f424090610ce590600160a01b900462ffffff1682613ed5565b610cfd9062ffffff166001600160801b038e16613dcd565b610d079190613c5d565b90506001600160801b03811615610f63576000610d2a86858760600151856120f4565b80511515604087015260208101519091506000906001600160801b03808516911610610d66576020820151610d5f908e613e72565b9050610e26565b600354610d8290600160a01b900462ffffff16620f4240613ed5565b600354602084015162ffffff92831692610dad92600160a01b900416906001600160801b0316613dcd565b610db79190613c5d565b600354909150600090610dd990600160a01b900462ffffff16620f4240613ed5565b600354602085015162ffffff92831692610e0492600160a01b900416906001600160801b0316613dcd565b610e0e9190613fca565b90508015610e2457610e21600183613b7b565b91505b505b6040820151610e35908a613be5565b9850806001600160801b031682602001516001600160801b031689610e5a9190613be5565b610e649190613be5565b9750808260200151610e769190613b7b565b610e80908e613e72565b9c5060006064610ebe62ffffff7f0000000000000000000000000000000000000000000000000000000000000000166001600160801b038516613dcd565b610ec89190613c5d565b905080620100106000828254610ede9190613be5565b90915550610f129050610efa826001600160801b038516613ef1565b600160801b8a60c001516001600160801b0316612426565b8760200151610f219190613be5565b6020808901919091526060840151600290810b900b90890152505060808101516001600160a01b0316865260a001516001600160801b031660e0860152610f6b565b600160408501525b8260020b856020015160020b1415610ff75760008260011660020b1315610fe357600283810b900b6000908152600b602090815260409091208551918601519091610fb8918391906120a8565b60c08601518154610fd39190600160801b9004600f0b6120c3565b6001600160801b031660c0870152505b60c08501516001600160801b031660e08601525b8260020b856020015160020b141561101a57600282810b900b60a0850152611022565b600060a08501525b505b505061083f565b816020015160020b8160c0015160020b146110895761107782604001518261010001518360c001518460e001518660600151876080015160106124d3909695949392919063ffffffff16565b61ffff90811660608501521660408301525b6020808201516005558251600780549285015160408601516060870151608088015160a08901511515600160e81b0260ff60e81b1961ffff928316600160d81b021662ffffff60d81b19938316600160c81b0261ffff60c81b1993909516600160b81b029290921663ffffffff60b81b1960029690960b62ffffff16600160a01b026001600160b81b03199099166001600160a01b039098169790971797909717939093169490941717929092169190911791909117905560c082015160e08301516001600160801b03908116600160801b02911617600855836111945760405162461bcd60e51b8152602060048201526002602482015261282960f11b60448201526064016106e8565b6002546111ab906001600160a01b03168a8661267b565b600083116111e05760405162461bcd60e51b8152602060048201526002602482015261050560f41b60448201526064016106e8565b60006111ea61277c565b6040516334f870a160e21b8152909150339063d3e1c2849061121690889088908c908c90600401613a72565b600060405180830381600087803b15801561123057600080fd5b505af1158015611244573d6000803e3d6000fd5b5050505083816112549190613be5565b61125c61277c565b101561128f5760405162461bcd60e51b8152602060048201526002602482015261594560f01b60448201526064016106e8565b5050509550959350505050565b6000806000866001600160801b0316116112dd5760405162461bcd60e51b8152602060048201526002602482015261058560f41b60448201526064016106e8565b6000546112f59086906301000000900460020b6119c0565b60408051610100810182526007546001600160a01b0381168252600160a01b8104600290810b810b900b6020830152600160b81b810461ffff90811693830193909352600160c81b810483166060830152600160d81b81049092166080820152600160e81b90910460ff16151560a08201526008546001600160801b0380821660c0840152600160801b9091041660e08201529095506000925082915061139a613886565b6004548152600554602080830191909152600060408301526006546001600160a01b03166060830152600354600160b81b9004600290810b810b900b60808301819052908301516113ee91600c91906119e0565b600290810b810b60a08301526020830151810b900b60c0808301919091528201516001600160801b031660e082015263ffffffff43166101008201525b8660020b826020015160020b12801561144657508060400151155b1561102b5760008160a0015160021660020b131561166b57602080830151600290810b900b6000908152600d909152604081208054845191926001600160801b03909116918190611499908d9085612860565b915091508b6001600160801b0316816001600160801b0316106114be57600160408601525b6003546000906114f6906001600160801b03851690600160a01b900462ffffff166114ec81620f4240613ed5565b62ffffff166128c2565b90508062010010600082825461150c9190613be5565b90915550506001600160801b03808316908e1611156115345761152f828e613e72565b611537565b60005b9c5061154c816001600160801b038516613be5565b6115569089613be5565b975061156b6001600160801b0383168a613be5565b98506115778285613e72565b85546001600160801b0319166001600160801b0382811691909117808855919550849187916010916115b2918591600160801b900416613b7b565b92506101000a8154816001600160801b0302191690836001600160801b03160217905550826001600160801b03168560010160008282546115f39190613be5565b909155505060028501546001600160801b031615801561161a57506001600160801b038416155b156116655760a08601516020880151608088015160019092169161164191600c9184611aee565b8060020b60001415611663576020880151608088015161166391600a91611b35565b505b50505050505b80604001511561167a5761102b565b600061169a83602001518360800151600a611b9e9092919063ffffffff16565b905060006116b8828460800151600c6119e09092919063ffffffff16565b90508860020b8260020b13156116cf575087905060005b60c08401516001600160801b031661178457600282810b900b602085018190526116f890611c96565b6001600160a01b0316845260006001821660020b131561177357600282810b900b6000908152600b60209081526040909120845191850151909161173e918391906120a8565b805460c0860151600160801b909104600f0b9061175b90826120c3565b6001600160801b031660c0870181905260e087015250505b600281810b900b60a08401526119b9565b6001600160801b038a16156118fa5760006117a5858486606001518e612919565b80511515604086015260208101516003549192506000916117da9190600160a01b900462ffffff166114ec81620f4240613ed5565b90506000606461180f62ffffff7f00000000000000000000000000000000000000000000000000000000000000001684613dcd565b6118199190613c5d565b90508062010010600082825461182f9190613be5565b9091555050604083015161184c906001600160801b03168a613be5565b985081836020015161185e9190613be5565b6118689089613be5565b97506118788d8460400151612c37565b611882908e613e72565b9c506118a96118918284613ef1565b600160801b8960c001516001600160801b0316612426565b86602001516118b89190613be5565b6020808801919091526060840151600290810b900b90880152505060808101516001600160a01b0316855260a001516001600160801b031660e0850152611902565b600160408401525b8160020b846020015160020b141561198e5760008160011660020b131561197a57600282810b900b6000908152600b60209081526040909120845191850151909161194f918391906120a8565b60c0850151815461196a9190600160801b9004600f0b6120c3565b6001600160801b031660c0860152505b60c08401516001600160801b031660e08501525b8160020b846020015160020b14156119b157600281810b900b60a08401526119b9565b600060a08401525b505061142b565b60008160020b8360020b12156119d75750816119da565b50805b92915050565b60006119ec8284613f87565b60020b156119fc57506000611a26565b836000611a098486613bfd565b600290810b810b8252602082019290925260400160002054900b90505b9392505050565b6000806000611a53866001600160801b0316600160601b876001600160a01b0316612426565b9050611a6d81600160601b876001600160a01b0316612426565b9150836001600160801b0316826001600160801b03161115611a8d578391505b611aae826001600160801b0316866001600160a01b0316600160601b6128c2565b90506000611aca82876001600160a01b0316600160601b6128c2565b905080935080846001600160801b031614611ae457600080fd5b5050935093915050565b80846000611afc8587613bfd565b60020b60020b815260200190815260200160002060006101000a81548162ffffff021916908360020b62ffffff16021790555050505050565b611b3f8183613f87565b60020b15611b4c57600080fd5b6000611b588284613bfd565b9050600281900b60081d6000611b7061010084613f87565b600192830b830b60009081526020979097526040909620805460ff9097169290921b19909516905550505050565b600080611bab8385613bfd565b905060008460020b128015611bcb5750611bc58385613f87565b60020b15155b15611bde5780611bda81613f48565b9150505b611be9600182613aaf565b9050600281900b60081d6000611c0161010084613f87565b90506000611c16600160ff841681901b613ef1565b600184810b900b600090815260208a90526040902054901916905080611c5e5785611c428360ff613f25565b611c4f9060ff1686613aaf565b611c599190613c71565b611c8a565b8582611c6983612c5a565b611c739190613f25565b611c809060ff1686613aaf565b611c8a9190613c71565b98975050505050505050565b60008060008360020b12611cad578260020b611cba565b8260020b611cba9061401e565b9050611cc9620d89e719614004565b60020b811115611cff5760405162461bcd60e51b81526020600482015260016024820152601560fa1b60448201526064016106e8565b600060018216611d1357600160801b611d25565b6ffffcb933bd6fad37aa2d162d1a5940015b6001600160881b031690506002821615611d5a576080611d55826ffff97272373d413259a46990580e213a613dcd565b901c90505b6004821615611d84576080611d7f826ffff2e50f5f656932ef12357cf3c7fdcc613dcd565b901c90505b6008821615611dae576080611da9826fffe5caca7e10e4e61c3624eaa0941cd0613dcd565b901c90505b6010821615611dd8576080611dd3826fffcb9843d60f6159c9db58835c926644613dcd565b901c90505b6020821615611e02576080611dfd826fff973b41fa98c081472e6896dfb254c0613dcd565b901c90505b6040821615611e2c576080611e27826fff2ea16466c96a3843ec78b326b52861613dcd565b901c90505b6080821615611e56576080611e51826ffe5dee046a99a2a811c461f1969c3053613dcd565b901c90505b610100821615611e81576080611e7c826ffcbe86c7900a88aedcffc83b479aa3a4613dcd565b901c90505b610200821615611eac576080611ea7826ff987a7253ac413176f2b074cf7815e54613dcd565b901c90505b610400821615611ed7576080611ed2826ff3392b0822b70005940c7a398e4b70f3613dcd565b901c90505b610800821615611f02576080611efd826fe7159475a2c29b7443b29c7fa6e889d9613dcd565b901c90505b611000821615611f2d576080611f28826fd097f3bdfd2022b8845ad8f792aa5825613dcd565b901c90505b612000821615611f58576080611f53826fa9f746462d870fdf8a65dc1f90e061e5613dcd565b901c90505b614000821615611f83576080611f7e826f70d869a156d2a1b890bb3df62baf32f7613dcd565b901c90505b618000821615611fae576080611fa9826f31be135f97d08fd981231505542fcfa6613dcd565b901c90505b62010000821615611fda576080611fd5826f09aa508b5b7a84e1c677de54f3e99bc9613dcd565b901c90505b62020000821615612005576080612000826e5d6af8dedb81196699c329225ee604613dcd565b901c90505b6204000082161561202f57608061202a826d2216e584f5fa1ea926041bedfe98613dcd565b901c90505b62080000821615612057576080612052826b048a170391f7dc42444e8fa2613dcd565b901c90505b60008460020b13156120725761206f81600019613c5d565b90505b612080600160201b82613fca565b1561208c57600161208f565b60005b6120a09060ff16602083901c613be5565b949350505050565b60018301805460029094018054949093039055919091039055565b60008082600f0b12156120ea576120d982613fde565b6120e39084613e72565b90506119da565b611a268284613b7b565b6040805160c08082018352600080835260208301819052928201839052606082018390526080820183905260a08201929092529085015160e08601516001600160801b039182169116108015612293576121578387600001518860e00151612d8c565b6001600160801b0390811660a08601819052604086019290925291909116602084015215158061219d5750826001600160801b031682602001516001600160801b031610155b156121cd5750600181526020850151600290810b900b606082015284516001600160a01b031660808201526120a0565b60208201516121dc9084613e72565b92506001866020018181516121f19190613aaf565b600290810b810b909152602088015187820b910b1415905061223b576020860151600290810b900b606083015261222785611c96565b6001600160a01b03166080830152506120a0565b600160601b612253816001600160a01b038716613ef1565b875161226891906001600160a01b0316613dcd565b6122729190613c5d565b865161228791906001600160a01b0316613be5565b6001600160a01b031686525b600061229e86611c96565b9050600061230e6040518060c001604052808a60c001516001600160801b031681526020018a600001516001600160a01b031681526020018a6020015160020b8152602001846001600160a01b031681526020018960020b8152602001886001600160a01b031681525086612e4a565b90508060000151846020018181516123269190613b7b565b6001600160801b0316905250805161233e9086613e72565b94508060200151846040018181516123569190613be5565b905250604081015115612390576001600160801b038516158452600287810b900b60608501526001600160a01b038216608085015261241b565b6000806123a68784608001518c60c00151612d8c565b6001600160801b031660a089015260208801805192945090925083916123cd908390613b7b565b6001600160801b03169052506040860180518291906123ed908390613be5565b9052505060018552506080808201516001600160a01b031690850152606080820151600290810b900b908501525b505050949350505050565b600080806000198587098587029250828110838203039150508060001415612460576000841161245557600080fd5b508290049050611a26565b80841161246c57600080fd5b6000848688096001861981018716968790046003810260029081188083028203028083028203028083028203028083028203028083028203029182029003026000889003889004909101858311909403939093029303949094049190911702949350505050565b6000806000898961ffff1661ffff81106124fd57634e487b7160e01b600052603260045260246000fd5b60408051608081018252919092015463ffffffff808216808452600160201b8304600690810b810b900b6020850152600160581b83046001600160a01b031694840194909452600160f81b90910460ff16151560608301529092508916141561256c578885925092505061266f565b8461ffff168461ffff161180156125945750612589600186613e9a565b61ffff168961ffff16145b156125a1578391506125a5565b8491505b816125b18a6001613ba6565b6125bb9190613fa9565b92506125c981898989613048565b8a8461ffff1661ffff81106125ee57634e487b7160e01b600052603260045260246000fd5b825191018054602084015160408501516060909501511515600160f81b026001600160f81b036001600160a01b03909616600160581b02959095166001600160581b0360069290920b66ffffffffffffff16600160201b026001600160581b031990931663ffffffff90951694909417919091171691909117919091179055505b97509795505050505050565b604080516001600160a01b038481166024830152604480830185905283518084039091018152606490920183526020820180516001600160e01b031663a9059cbb60e01b17905291516000928392908716916126d79190613a25565b6000604051808303816000865af19150503d8060008114612714576040519150601f19603f3d011682016040523d82523d6000602084013e612719565b606091505b5091509150818015612743575080511580612743575080806020019051810190612743919061399a565b6127755760405162461bcd60e51b8152602060048201526003602482015262544e5360e81b60448201526064016106e8565b5050505050565b600354604051600091829182916001600160a01b0316906370a0823160e01b906127aa903090602401613a5e565b60408051601f198184030181529181526020820180516001600160e01b03166001600160e01b03199094169390931790925290516127e89190613a25565b600060405180830381855afa9150503d8060008114612823576040519150601f19603f3d011682016040523d82523d6000602084013e612828565b606091505b509150915081801561283c57506020815110155b61284557600080fd5b808060200190518101906128599190613a0d565b9250505090565b6000836001600160801b03808416908216111561287a5750815b600061289d826001600160801b0316866001600160a01b0316600160601b6128c2565b90506128b781866001600160a01b0316600160601b6128c2565b925050935093915050565b60006128cf848484612426565b9050600082806128ef57634e487b7160e01b600052601260045260246000fd5b8486091115611a2657600019811061290657600080fd5b8061291081613f6c565b95945050505050565b6040805160c08082018352600080835260208301819052928201839052606082018390526080820183905260a08201929092529085015160e08601516001600160801b039182169116108015612aa25761297c8387600001518860e00151613129565b6001600160801b0390811660a086018190529116604085015260208401919091521515806129c05750826001600160801b031682604001516001600160801b031610155b156129f05750600181526020850151600290810b900b606082015284516001600160a01b031660808201526120a0565b60408201516129ff9084613e72565b9250600186602001818151612a149190613aaf565b600290810b810b909152602088015187820b910b14159050612a4a576020860151600290810b900b606083015261222785611c96565b600160601b612a62816001600160a01b038716613ef1565b8751612a7791906001600160a01b0316613dcd565b612a819190613c5d565b8651612a9691906001600160a01b0316613be5565b6001600160a01b031686525b6000612aad86611c96565b90506000612b1d6040518060c001604052808a60c001516001600160801b031681526020018a600001516001600160a01b031681526020018a6020015160020b8152602001846001600160a01b031681526020018960020b8152602001886001600160a01b031681525086613150565b9050806000015184602001818151612b359190613be5565b9052506020810151604085018051612b4e908390613b7b565b6001600160801b03169052506020810151612b699086613e72565b9450806040015115612ba2576001600160801b038516158452600287810b900b60608501526001600160a01b038216608085015261241b565b600080612bb88784608001518c60c00151613129565b6001600160801b031660a08901526020880180519294509092508391612bdf908390613be5565b905250604086018051829190612bf6908390613b7b565b6001600160801b0316905250506001855250606080820151600290810b900b908501526080808201516001600160a01b031690850152505050949350505050565b6000816001600160801b0316836001600160801b031610156119d75750816119da565b6000808211612c6857600080fd5b5060ff6001600160801b03821615612c8c57612c85608082613f25565b9050612c94565b608082901c91505b6001600160401b03821615612cb557612cae604082613f25565b9050612cbd565b604082901c91505b63ffffffff821615612cdb57612cd4602082613f25565b9050612ce3565b602082901c91505b61ffff821615612cff57612cf8601082613f25565b9050612d07565b601082901c91505b60ff821615612d2257612d1b600882613f25565b9050612d2a565b600882901c91505b600f821615612d4557612d3e600482613f25565b9050612d4d565b600482901c91505b6003821615612d6857612d61600282613f25565b9050612d70565b600282901c91505b6001821615612d8757612d84600182613f25565b90505b919050565b60008080806001600160a01b038616612db2600160601b6001600160801b038a16613dcd565b612dbc9190613c5d565b90506000856001600160801b03168211612dd65781612de1565b856001600160801b03165b9050612e04816001600160801b0316886001600160a01b0316600160601b6128c2565b94506001600160a01b038716612e27600160601b6001600160801b038416613dcd565b612e319190613c5d565b9350612e3d8187613e72565b9250505093509350939050565b6040805160a0810182526000808252602082018190529181018290526060810182905260808101919091526000612e958460000151856020015186606001518760a0015160016133e4565b9050826001600160801b03168111612ee9576001600160801b0381168252835160408501516080860151606087015160a0880151612ed89493929190600061346b565b602083015260016040830152613041565b600084602001516001600160a01b0316612f33856001600160801b0316600160601b8860a001516001600160a01b0316612f239190613ef1565b88516001600160801b0316612426565b612f3d9190613be5565b9050612f4881613537565b600290810b900b606084018190526040860151612f649161386f565b600290810b900b60608401526080850151612f8f90612f8590600190613dec565b84606001516119c0565b600290810b900b6060840181905260006040850152612fad90611c96565b6001600160a01b0316608084015260408501516060840151600291820b910b1415612fe3575050600080825260208201526119da565b61300a6130048660000151876020015186608001518960a0015160016133e4565b85612c37565b6001600160801b03168352845160408601516060850151608086015160a089015161303a9493929190600061346b565b6020840152505b5092915050565b604080516080810182526000808252602082018190529181018290526060810191909152845160009061307b9086613f08565b63ffffffff16905060405180608001604052808663ffffffff168152602001828660020b6130a99190613d7d565b88602001516130b89190613b36565b60060b81526020016000856001600160801b0316116130d85760016130da565b845b6130fd906001600160801b031666ffffffffffffff60801b608086901b16613c37565b886040015161310c9190613bc3565b6001600160a01b0316815260016020909101529695505050505050565b600080600080612dbc876001600160801b0316876001600160a01b0316600160601b6128c2565b6040805160a08101825260008082526020820181905291810182905260608101829052608081019190915260006131a084600001518560400151866080015187606001518860a00151600061346b565b9050826001600160801b031681116131f2576001600160801b038116602080840191909152845190850151606086015160a08701516131e39392919060016133e4565b825250600160408201526119da565b60006132108560400151866080015161320b9190613dec565b611c96565b6001600160a01b0316905060008560a001516001600160a01b0316600160601b87606001516001600160a01b03166132489190613dcd565b6132529190613c5d565b9050600061328f866001600160801b03168389606001516132739190613eb5565b6001600160a01b031689600001516001600160801b0316612426565b6132999084613ef1565b9050600081600160601b89606001516001600160a01b03166132bb9190613dcd565b6132c59190613c5d565b6000604088015290506132d781613537565b600290810b900b6060870181905260408901516132f39161386f565b600290810b900b6060870152608088015161331e9061331490600190613dec565b87606001516119c0565b600290810b900b6060870181905261333590611c96565b6001600160a01b0316608087015260408801516060870151600291820b910b14156133705750506000602085018190528452506119da915050565b600060408088018290528951908a0151606089015160808a015160a08d01516133a7956133a195949392919061346b565b88612c37565b6001600160801b0316602080880191909152885190890151608088015160a08b01516133d79392919060016133e4565b8652505050505092915050565b6000806133f18686613eb5565b90506000613403600160601b86613eb5565b90508361343757613430886001600160801b0316836001600160a01b0316836001600160a01b0316612426565b9250613460565b61345d886001600160801b0316836001600160a01b0316836001600160a01b03166128c2565b92505b505095945050505050565b60008061347b61320b8888613dec565b90506000846001600160a01b0316600160601b876001600160a01b03166134a29190613dcd565b6134ac9190613c5d565b905060006134be600160601b84613eb5565b905060006134cc8389613eb5565b905085613500576134f98b6001600160801b0316836001600160a01b0316836001600160a01b0316612426565b9450613529565b6135268b6001600160801b0316836001600160a01b0316836001600160a01b03166128c2565b94505b505050509695505050505050565b60006401000276a36001600160a01b03831610801590613573575073fffd8963efd1fc6a506488495d951d5263988d266001600160a01b038316105b6135a35760405162461bcd60e51b81526020600482015260016024820152602960f91b60448201526064016106e8565b600160201b600160c01b03602083901b166001600160801b03811160071b81811c6001600160401b03811160061b90811c63ffffffff811160051b90811c61ffff811160041b90811c60ff8111600390811b91821c600f811160021b90811c918211600190811b92831c9790881196179094179092171790911717176080811061363c57613632607f82613ef1565b83901c915061364d565b61364781607f613ef1565b83901b91505b6000604061365c608084613e33565b901b9050828302607f1c92508260801c80603f1b8217915083811c935050828302607f1c92508260801c80603e1b8217915083811c935050828302607f1c92508260801c80603d1b8217915083811c935050828302607f1c92508260801c80603c1b8217915083811c935050828302607f1c92508260801c80603b1b8217915083811c935050828302607f1c92508260801c80603a1b8217915083811c935050828302607f1c92508260801c8060391b8217915083811c935050828302607f1c92508260801c8060381b8217915083811c935050828302607f1c92508260801c8060371b8217915083811c935050828302607f1c92508260801c8060361b8217915083811c935050828302607f1c92508260801c8060351b8217915083811c935050828302607f1c92508260801c8060341b8217915083811c935050828302607f1c92508260801c8060331b8217915083811c935050828302607f1c92508260801c8060321b8217915050600081693627a301d71055774c856137df9190613cfa565b9050600060806137ff6f028f6481ab7f045a5af012a19d003aaa84613e33565b901d905060006080613821846fdb2df09e81959a81455e260799a0632f613af5565b901d90508060020b8260020b1461386057886001600160a01b031661384582611c96565b6001600160a01b0316111561385a5781613862565b80613862565b815b9998505050505050505050565b60008160020b8360020b13156119d75750816119da565b6040805161012081018252600080825260208201819052918101829052606081018290526080810182905260a0810182905260c0810182905260e0810182905261010081019190915290565b8035600281900b8114612d8757600080fd5b6000806000806000608086880312156138fb578081fd5b85356001600160a01b0381168114613911578182fd5b945060208601356001600160801b038116811461392c578182fd5b935061393a604087016138d2565b925060608601356001600160401b0380821115613955578283fd5b818801915088601f830112613968578283fd5b813581811115613976578384fd5b896020828501011115613987578384fd5b9699959850939650602001949392505050565b6000602082840312156139ab578081fd5b81518015158114611a26578182fd5b6000602082840312156139cb578081fd5b5035919050565b6000602082840312156139e3578081fd5b81358060010b8114611a26578182fd5b600060208284031215613a04578081fd5b611a26826138d2565b600060208284031215613a1e578081fd5b5051919050565b60008251815b81811015613a455760208186018101518583015201613a2b565b81811115613a535782828501525b509190910192915050565b6001600160a01b0391909116815260200190565b84815283602082015260606040820152816060820152818360808301376000818301608090810191909152601f909201601f191601019392505050565b60008160020b8360020b82821282627fffff03821381151615613ad457613ad4614038565b82627fffff19038212811615613aec57613aec614038565b50019392505050565b600080821280156001600160ff1b0384900385131615613b1757613b17614038565b600160ff1b8390038412811615613b3057613b30614038565b50500190565b60008160060b8360060b82821282667fffffffffffff03821381151615613b5f57613b5f614038565b82667fffffffffffff19038212811615613aec57613aec614038565b60006001600160801b03828116848216808303821115613b9d57613b9d614038565b01949350505050565b600061ffff808316818516808303821115613b9d57613b9d614038565b60006001600160a01b03828116848216808303821115613b9d57613b9d614038565b60008219821115613bf857613bf8614038565b500190565b60008160020b8360020b80613c1457613c1461404e565b627fffff19821460001982141615613c2e57613c2e614038565b90059392505050565b60006001600160a01b0383811680613c5157613c5161404e565b92169190910492915050565b600082613c6c57613c6c61404e565b500490565b60008160020b8360020b627fffff83821384841383830485118282161615613c9b57613c9b614038565b627fffff1986851282811687830587121615613cb957613cb9614038565b878712925085820587128484161615613cd457613cd4614038565b85850587128184161615613cea57613cea614038565b5050509290910295945050505050565b60006001600160ff1b0381841382841380821686840486111615613d2057613d20614038565b600160ff1b84871282811687830589121615613d3e57613d3e614038565b858712925087820587128484161615613d5957613d59614038565b87850587128184161615613d6f57613d6f614038565b505050929093029392505050565b60008160060b8360060b667fffffffffffff83821384841383830485118282161615613dab57613dab614038565b667fffffffffffff1986851282811687830587121615613cb957613cb9614038565b6000816000190483118215151615613de757613de7614038565b500290565b60008160020b8360020b82811281627fffff1901831281151615613e1257613e12614038565b81627fffff018313811615613e2957613e29614038565b5090039392505050565b60008083128015600160ff1b850184121615613e5157613e51614038565b6001600160ff1b0384018313811615613e6c57613e6c614038565b50500390565b60006001600160801b0383811690831681811015613e9257613e92614038565b039392505050565b600061ffff83811690831681811015613e9257613e92614038565b60006001600160a01b0383811690831681811015613e9257613e92614038565b600062ffffff83811690831681811015613e9257613e92614038565b600082821015613f0357613f03614038565b500390565b600063ffffffff83811690831681811015613e9257613e92614038565b600060ff821660ff841680821015613f3f57613f3f614038565b90039392505050565b60008160020b627fffff19811415613f6257613f62614038565b6000190192915050565b6000600019821415613f8057613f80614038565b5060010190565b60008260020b80613f9a57613f9a61404e565b808360020b0791505092915050565b600061ffff80841680613fbe57613fbe61404e565b92169190910692915050565b600082613fd957613fd961404e565b500690565b6000600f82900b60016001607f1b0319811415613ffd57613ffd614038565b9003919050565b60008160020b627fffff19811415613ffd57613ffd614038565b6000600160ff1b82141561403457614034614038565b0390565b634e487b7160e01b600052601160045260246000fd5b634e487b7160e01b600052601260045260246000fdfea26469706673582212204b68930857b49ff9a7fec8886e22224fc473d94bc5e7102bf75e0289c2e4367264736f6c63430008040033",
  "linkReferences": {},
  "deployedLinkReferences": {}
}