{
  "_format": "hh-sol-artifact-1",
  "contractName": "TestAddLimOrder",
  "sourceName": "contracts/test/TestAddLimOrder.sol",
  "abi": [
    {
      "inputs": [
        {
          "internalType": "address",
          "name": "fac",
          "type": "address"
        }
      ],
      "stateMutability": "nonpayable",
      "type": "constructor"
    },
    {
      "inputs": [
        {
          "internalType": "address",
          "name": "tokenX",
          "type": "address"
        },
        {
          "internalType": "address",
          "name": "tokenY",
          "type": "address"
        },
        {
          "internalType": "uint24",
          "name": "fee",
          "type": "uint24"
        },
        {
          "internalType": "int24",
          "name": "pt",
          "type": "int24"
        },
        {
          "internalType": "uint128",
          "name": "amountX",
          "type": "uint128"
        }
      ],
      "name": "addLimOrderWithX",
      "outputs": [],
      "stateMutability": "nonpayable",
      "type": "function"
    },
    {
      "inputs": [
        {
          "internalType": "address",
          "name": "tokenX",
          "type": "address"
        },
        {
          "internalType": "address",
          "name": "tokenY",
          "type": "address"
        },
        {
          "internalType": "uint24",
          "name": "fee",
          "type": "uint24"
        },
        {
          "internalType": "int24",
          "name": "pt",
          "type": "int24"
        },
        {
          "internalType": "uint128",
          "name": "amountY",
          "type": "uint128"
        }
      ],
      "name": "addLimOrderWithY",
      "outputs": [],
      "stateMutability": "nonpayable",
      "type": "function"
    },
    {
      "inputs": [],
      "name": "factory",
      "outputs": [
        {
          "internalType": "address",
          "name": "",
          "type": "address"
        }
      ],
      "stateMutability": "view",
      "type": "function"
    },
    {
      "inputs": [
        {
          "internalType": "address",
          "name": "pool",
          "type": "address"
        },
        {
          "internalType": "address",
          "name": "miner",
          "type": "address"
        },
        {
          "internalType": "int24",
          "name": "pt",
          "type": "int24"
        },
        {
          "internalType": "bool",
          "name": "sellXEarnY",
          "type": "bool"
        }
      ],
      "name": "getEarn",
      "outputs": [
        {
          "internalType": "uint256",
          "name": "lastAccEarn",
          "type": "uint256"
        },
        {
          "internalType": "uint256",
          "name": "sellingRemain",
          "type": "uint256"
        },
        {
          "internalType": "uint256",
          "name": "sellingDesc",
          "type": "uint256"
        },
        {
          "internalType": "uint256",
          "name": "earn",
          "type": "uint256"
        },
        {
          "internalType": "uint256",
          "name": "earnAssign",
          "type": "uint256"
        }
      ],
      "stateMutability": "view",
      "type": "function"
    },
    {
      "inputs": [
        {
          "internalType": "address",
          "name": "pool",
          "type": "address"
        },
        {
          "internalType": "address",
          "name": "miner",
          "type": "address"
        },
        {
          "internalType": "int24",
          "name": "pt",
          "type": "int24"
        }
      ],
      "name": "getEarnX",
      "outputs": [
        {
          "internalType": "uint256",
          "name": "lastAccEarn",
          "type": "uint256"
        },
        {
          "internalType": "uint256",
          "name": "sellingRemain",
          "type": "uint256"
        },
        {
          "internalType": "uint256",
          "name": "sellingDesc",
          "type": "uint256"
        },
        {
          "internalType": "uint256",
          "name": "earn",
          "type": "uint256"
        },
        {
          "internalType": "uint256",
          "name": "earnAssign",
          "type": "uint256"
        }
      ],
      "stateMutability": "view",
      "type": "function"
    },
    {
      "inputs": [
        {
          "internalType": "address",
          "name": "pool",
          "type": "address"
        },
        {
          "internalType": "address",
          "name": "miner",
          "type": "address"
        },
        {
          "internalType": "int24",
          "name": "pt",
          "type": "int24"
        }
      ],
      "name": "getEarnY",
      "outputs": [
        {
          "internalType": "uint256",
          "name": "lastAccEarn",
          "type": "uint256"
        },
        {
          "internalType": "uint256",
          "name": "sellingRemain",
          "type": "uint256"
        },
        {
          "internalType": "uint256",
          "name": "sellingDesc",
          "type": "uint256"
        },
        {
          "internalType": "uint256",
          "name": "earn",
          "type": "uint256"
        },
        {
          "internalType": "uint256",
          "name": "earnAssign",
          "type": "uint256"
        }
      ],
      "stateMutability": "view",
      "type": "function"
    },
    {
      "inputs": [
        {
          "internalType": "uint256",
          "name": "x",
          "type": "uint256"
        },
        {
          "internalType": "uint256",
          "name": "y",
          "type": "uint256"
        },
        {
          "internalType": "bytes",
          "name": "data",
          "type": "bytes"
        }
      ],
      "name": "payCallback",
      "outputs": [],
      "stateMutability": "nonpayable",
      "type": "function"
    },
    {
      "inputs": [
        {
          "internalType": "address",
          "name": "tokenX",
          "type": "address"
        },
        {
          "internalType": "address",
          "name": "tokenY",
          "type": "address"
        },
        {
          "internalType": "uint24",
          "name": "fee",
          "type": "uint24"
        }
      ],
      "name": "pool",
      "outputs": [
        {
          "internalType": "address",
          "name": "",
          "type": "address"
        }
      ],
      "stateMutability": "view",
      "type": "function"
    }
  ],
  "bytecode": "0x608060405234801561001057600080fd5b50604051610b92380380610b9283398101604081905261002f91610054565b600080546001600160a01b0319166001600160a01b0392909216919091179055610082565b600060208284031215610065578081fd5b81516001600160a01b038116811461007b578182fd5b9392505050565b610b01806100916000396000f3fe608060405234801561001057600080fd5b50600436106100885760003560e01c8063996c92921161005b578063996c929214610108578063becbcc6a1461011b578063c45a015514610146578063ce7e57d41461015957600080fd5b806317e25fe51461008d57806356273152146100a25780638400eff6146100b55780638f24cb85146100c8575b600080fd5b6100a061009b3660046107ad565b61016c565b005b6100a06100b03660046107ad565b610267565b6100a06100c33660046108f0565b6102d9565b6100db6100d6366004610717565b610324565b604080519586526020860194909452928401919091526060830152608082015260a0015b60405180910390f35b6100db6101163660046106d1565b610381565b61012e610129366004610770565b6103ab565b6040516001600160a01b0390911681526020016100ff565b60005461012e906001600160a01b031681565b6100db6101673660046106d1565b610444565b60006101798686866103ab565b9050806001600160a01b0316630e1552f033858560405180608001604052808c6001600160a01b031681526020018b6001600160a01b031681526020018a62ffffff168152602001336001600160a01b03168152506040516020016101de9190610a22565b6040516020818303038152906040526040518563ffffffff1660e01b815260040161020c94939291906109c6565b6040805180830381600087803b15801561022557600080fd5b505af1158015610239573d6000803e3d6000fd5b505050506040513d601f19601f8201168201806040525081019061025d91906108c3565b5050505050505050565b60006102748686866103ab565b9050806001600160a01b031663ff12504e33858560405180608001604052808c6001600160a01b031681526020018b6001600160a01b031681526020018a62ffffff168152602001336001600160a01b03168152506040516020016101de9190610a22565b60006102e782840184610835565b905084156103035761030381600001518260600151338861045a565b831561031d5761031d81602001518260600151338761045a565b5050505050565b6000806000806000851561035657610345896103408a8a610568565b6105b5565b939850919650945092509050610376565b610369896103648a8a610568565b61064e565b9398509196509450925090505b945094509450945094565b6000806000806000610397886103408989610568565b939c929b5090995097509095509350505050565b60008054604051635f65e63560e11b81526001600160a01b038681166004830152858116602483015262ffffff851660448301529091169063becbcc6a9060640160206040518083038186803b15801561040457600080fd5b505afa158015610418573d6000803e3d6000fd5b505050506040513d601f19601f8201168201806040525081019061043c91906106ae565b949350505050565b6000806000806000610397886103648989610568565b604080516001600160a01b0385811660248301528481166044830152606480830185905283518084039091018152608490920183526020820180516001600160e01b03166323b872dd60e01b17905291516000928392908816916104be91906109aa565b6000604051808303816000865af19150503d80600081146104fb576040519150601f19603f3d011682016040523d82523d6000602084013e610500565b606091505b509150915081801561052a57508051158061052a57508080602001905181019061052a9190610819565b6105605760405162461bcd60e51b815260206004820152600360248201526229aa2360e91b604482015260640160405180910390fd5b505050505050565b6040516bffffffffffffffffffffffff19606084901b166020820152600282900b60e81b603482015260009060370160405160208183030381529060405280519060200120905092915050565b6000806000806000866001600160a01b0316631621835f876040518263ffffffff1660e01b81526004016105eb91815260200190565b60a06040518083038186803b15801561060357600080fd5b505afa158015610617573d6000803e3d6000fd5b505050506040513d601f19601f8201168201806040525081019061063b919061096b565b939b929a50909850965090945092505050565b6000806000806000866001600160a01b03166362ccaafd876040518263ffffffff1660e01b81526004016105eb91815260200190565b8035600281900b811461069657600080fd5b919050565b803562ffffff8116811461069657600080fd5b6000602082840312156106bf578081fd5b81516106ca81610a90565b9392505050565b6000806000606084860312156106e5578182fd5b83356106f081610a90565b9250602084013561070081610a90565b915061070e60408501610684565b90509250925092565b6000806000806080858703121561072c578081fd5b843561073781610a90565b9350602085013561074781610a90565b925061075560408601610684565b9150606085013561076581610aa8565b939692955090935050565b600080600060608486031215610784578283fd5b833561078f81610a90565b9250602084013561079f81610a90565b915061070e6040850161069b565b600080600080600060a086880312156107c4578081fd5b85356107cf81610a90565b945060208601356107df81610a90565b93506107ed6040870161069b565b92506107fb60608701610684565b9150608086013561080b81610ab6565b809150509295509295909350565b60006020828403121561082a578081fd5b81516106ca81610aa8565b600060808284031215610846578081fd5b6040516080810181811067ffffffffffffffff8211171561087557634e487b7160e01b83526041600452602483fd5b604052823561088381610a90565b8152602083013561089381610a90565b60208201526108a46040840161069b565b604082015260608301356108b781610a90565b60608201529392505050565b600080604083850312156108d5578182fd5b82516108e081610ab6565b6020939093015192949293505050565b60008060008060608587031215610905578384fd5b8435935060208501359250604085013567ffffffffffffffff8082111561092a578384fd5b818701915087601f83011261093d578384fd5b81358181111561094b578485fd5b88602082850101111561095c578485fd5b95989497505060200194505050565b600080600080600060a08688031215610982578081fd5b5050835160208501516040860151606087015160809097015192989197509594509092509050565b600082516109bc818460208701610a60565b9190910192915050565b60018060a01b03851681528360020b60208201526001600160801b03831660408201526080606082015260008251806080840152610a0b8160a0850160208701610a60565b601f01601f19169190910160a00195945050505050565b81516001600160a01b03908116825260208084015182169083015260408084015162ffffff1690830152606092830151169181019190915260800190565b60005b83811015610a7b578181015183820152602001610a63565b83811115610a8a576000848401525b50505050565b6001600160a01b0381168114610aa557600080fd5b50565b8015158114610aa557600080fd5b6001600160801b0381168114610aa557600080fdfea264697066735822122073d07523d394004c3fa195f8172abfb850fd5ae2492a5aef8096cee112de2a0b64736f6c63430008040033",
  "linkReferences": {},
  "deployedLinkReferences": {}
}