{
  "_format": "hh-sol-artifact-1",
  "contractName": "SwapX2YModule",
  "sourceName": "contracts/swapX2Y.sol",
  "abi": [
    {
      "inputs": [],
      "name": "factory",
      "outputs": [
        {
          "internalType": "address",
          "name": "",
          "type": "address"
        }
      ],
      "stateMutability": "view",
      "type": "function"
    },
    {
      "inputs": [],
      "name": "fee",
      "outputs": [
        {
          "internalType": "uint24",
          "name": "",
          "type": "uint24"
        }
      ],
      "stateMutability": "view",
      "type": "function"
    },
    {
      "inputs": [],
      "name": "feeScaleX_128",
      "outputs": [
        {
          "internalType": "uint256",
          "name": "",
          "type": "uint256"
        }
      ],
      "stateMutability": "view",
      "type": "function"
    },
    {
      "inputs": [],
      "name": "feeScaleY_128",
      "outputs": [
        {
          "internalType": "uint256",
          "name": "",
          "type": "uint256"
        }
      ],
      "stateMutability": "view",
      "type": "function"
    },
    {
      "inputs": [],
      "name": "leftMostPt",
      "outputs": [
        {
          "internalType": "int24",
          "name": "",
          "type": "int24"
        }
      ],
      "stateMutability": "view",
      "type": "function"
    },
    {
      "inputs": [
        {
          "internalType": "int24",
          "name": "",
          "type": "int24"
        }
      ],
      "name": "limitOrderData",
      "outputs": [
        {
          "internalType": "uint256",
          "name": "sellingX",
          "type": "uint256"
        },
        {
          "internalType": "uint256",
          "name": "accEarnX",
          "type": "uint256"
        },
        {
          "internalType": "uint256",
          "name": "sellingY",
          "type": "uint256"
        },
        {
          "internalType": "uint256",
          "name": "accEarnY",
          "type": "uint256"
        },
        {
          "internalType": "uint256",
          "name": "earnX",
          "type": "uint256"
        },
        {
          "internalType": "uint256",
          "name": "earnY",
          "type": "uint256"
        }
      ],
      "stateMutability": "view",
      "type": "function"
    },
    {
      "inputs": [
        {
          "internalType": "bytes32",
          "name": "",
          "type": "bytes32"
        }
      ],
      "name": "liquidities",
      "outputs": [
        {
          "internalType": "uint128",
          "name": "liquidity",
          "type": "uint128"
        },
        {
          "internalType": "uint256",
          "name": "lastFeeScaleX_128",
          "type": "uint256"
        },
        {
          "internalType": "uint256",
          "name": "lastFeeScaleY_128",
          "type": "uint256"
        },
        {
          "internalType": "uint256",
          "name": "remainFeeX",
          "type": "uint256"
        },
        {
          "internalType": "uint256",
          "name": "remainFeeY",
          "type": "uint256"
        }
      ],
      "stateMutability": "view",
      "type": "function"
    },
    {
      "inputs": [],
      "name": "maxLiquidPt",
      "outputs": [
        {
          "internalType": "uint128",
          "name": "",
          "type": "uint128"
        }
      ],
      "stateMutability": "view",
      "type": "function"
    },
    {
      "inputs": [
        {
          "internalType": "uint256",
          "name": "",
          "type": "uint256"
        }
      ],
      "name": "observations",
      "outputs": [
        {
          "internalType": "uint32",
          "name": "timestamp",
          "type": "uint32"
        },
        {
          "internalType": "int56",
          "name": "pointCumulative",
          "type": "int56"
        },
        {
          "internalType": "uint160",
          "name": "secondsPerLiquidityCumulative_128",
          "type": "uint160"
        },
        {
          "internalType": "bool",
          "name": "init",
          "type": "bool"
        }
      ],
      "stateMutability": "view",
      "type": "function"
    },
    {
      "inputs": [
        {
          "internalType": "int24",
          "name": "",
          "type": "int24"
        }
      ],
      "name": "orderOrEndpoint",
      "outputs": [
        {
          "internalType": "int24",
          "name": "",
          "type": "int24"
        }
      ],
      "stateMutability": "view",
      "type": "function"
    },
    {
      "inputs": [
        {
          "internalType": "int16",
          "name": "",
          "type": "int16"
        }
      ],
      "name": "pointBitmap",
      "outputs": [
        {
          "internalType": "uint256",
          "name": "",
          "type": "uint256"
        }
      ],
      "stateMutability": "view",
      "type": "function"
    },
    {
      "inputs": [],
      "name": "pointDelta",
      "outputs": [
        {
          "internalType": "int24",
          "name": "",
          "type": "int24"
        }
      ],
      "stateMutability": "view",
      "type": "function"
    },
    {
      "inputs": [
        {
          "internalType": "int24",
          "name": "",
          "type": "int24"
        }
      ],
      "name": "points",
      "outputs": [
        {
          "internalType": "uint128",
          "name": "liquidAcc",
          "type": "uint128"
        },
        {
          "internalType": "int128",
          "name": "liquidDelta",
          "type": "int128"
        },
        {
          "internalType": "uint256",
          "name": "feeScaleXBeyond_128",
          "type": "uint256"
        },
        {
          "internalType": "uint256",
          "name": "feeScaleYBeyond_128",
          "type": "uint256"
        },
        {
          "internalType": "bool",
          "name": "isEndpt",
          "type": "bool"
        }
      ],
      "stateMutability": "view",
      "type": "function"
    },
    {
      "inputs": [],
      "name": "rightMostPt",
      "outputs": [
        {
          "internalType": "int24",
          "name": "",
          "type": "int24"
        }
      ],
      "stateMutability": "view",
      "type": "function"
    },
    {
      "inputs": [],
      "name": "state",
      "outputs": [
        {
          "internalType": "uint160",
          "name": "sqrtPrice_96",
          "type": "uint160"
        },
        {
          "internalType": "int24",
          "name": "currentPoint",
          "type": "int24"
        },
        {
          "internalType": "uint256",
          "name": "currX",
          "type": "uint256"
        },
        {
          "internalType": "uint256",
          "name": "currY",
          "type": "uint256"
        },
        {
          "internalType": "uint128",
          "name": "liquidity",
          "type": "uint128"
        },
        {
          "internalType": "bool",
          "name": "allX",
          "type": "bool"
        },
        {
          "internalType": "uint16",
          "name": "observationCurrentIndex",
          "type": "uint16"
        },
        {
          "internalType": "uint16",
          "name": "observationQueueLen",
          "type": "uint16"
        },
        {
          "internalType": "uint16",
          "name": "observationNextQueueLen",
          "type": "uint16"
        },
        {
          "internalType": "bool",
          "name": "locked",
          "type": "bool"
        }
      ],
      "stateMutability": "view",
      "type": "function"
    },
    {
      "inputs": [
        {
          "internalType": "address",
          "name": "recipient",
          "type": "address"
        },
        {
          "internalType": "uint128",
          "name": "amount",
          "type": "uint128"
        },
        {
          "internalType": "int24",
          "name": "lowPt",
          "type": "int24"
        },
        {
          "internalType": "bytes",
          "name": "data",
          "type": "bytes"
        }
      ],
      "name": "swapX2Y",
      "outputs": [
        {
          "internalType": "uint256",
          "name": "amountX",
          "type": "uint256"
        },
        {
          "internalType": "uint256",
          "name": "amountY",
          "type": "uint256"
        }
      ],
      "stateMutability": "nonpayable",
      "type": "function"
    },
    {
      "inputs": [
        {
          "internalType": "address",
          "name": "recipient",
          "type": "address"
        },
        {
          "internalType": "uint128",
          "name": "desireY",
          "type": "uint128"
        },
        {
          "internalType": "int24",
          "name": "lowPt",
          "type": "int24"
        },
        {
          "internalType": "bytes",
          "name": "data",
          "type": "bytes"
        }
      ],
      "name": "swapX2YDesireY",
      "outputs": [
        {
          "internalType": "uint256",
          "name": "amountX",
          "type": "uint256"
        },
        {
          "internalType": "uint256",
          "name": "amountY",
          "type": "uint256"
        }
      ],
      "stateMutability": "nonpayable",
      "type": "function"
    },
    {
      "inputs": [],
      "name": "tokenX",
      "outputs": [
        {
          "internalType": "address",
          "name": "",
          "type": "address"
        }
      ],
      "stateMutability": "view",
      "type": "function"
    },
    {
      "inputs": [],
      "name": "tokenY",
      "outputs": [
        {
          "internalType": "address",
          "name": "",
          "type": "address"
        }
      ],
      "stateMutability": "view",
      "type": "function"
    },
    {
      "inputs": [
        {
          "internalType": "bytes32",
          "name": "",
          "type": "bytes32"
        }
      ],
      "name": "userEarnX",
      "outputs": [
        {
          "internalType": "uint256",
          "name": "lastAccEarn",
          "type": "uint256"
        },
        {
          "internalType": "uint256",
          "name": "sellingRemain",
          "type": "uint256"
        },
        {
          "internalType": "uint256",
          "name": "sellingDec",
          "type": "uint256"
        },
        {
          "internalType": "uint256",
          "name": "earn",
          "type": "uint256"
        },
        {
          "internalType": "uint256",
          "name": "earnAssign",
          "type": "uint256"
        }
      ],
      "stateMutability": "view",
      "type": "function"
    },
    {
      "inputs": [
        {
          "internalType": "bytes32",
          "name": "",
          "type": "bytes32"
        }
      ],
      "name": "userEarnY",
      "outputs": [
        {
          "internalType": "uint256",
          "name": "lastAccEarn",
          "type": "uint256"
        },
        {
          "internalType": "uint256",
          "name": "sellingRemain",
          "type": "uint256"
        },
        {
          "internalType": "uint256",
          "name": "sellingDec",
          "type": "uint256"
        },
        {
          "internalType": "uint256",
          "name": "earn",
          "type": "uint256"
        },
        {
          "internalType": "uint256",
          "name": "earnAssign",
          "type": "uint256"
        }
      ],
      "stateMutability": "view",
      "type": "function"
    }
  ],
  "bytecode": "0x608060405234801561001057600080fd5b5061433d806100206000396000f3fe608060405234801561001057600080fd5b50600436106101375760003560e01c806375c0e0d5116100b8578063b7d19fc41161007c578063b7d19fc4146104ab578063c19d93fb146104be578063c45a015514610598578063d3b16864146105ab578063ddca3f43146105bf578063edcba3b2146105e957600080fd5b806375c0e0d51461030c578063857f812f1461038f5780638790aca3146103a257806387e7d5fe1461041257806398a0f72e1461048b57600080fd5b8063588e59ae116100ff578063588e59ae1461025557806358c51ce61461025e57806359dd14361461027257806362ccaafd1461029a5780636d01843b146102d757600080fd5b80631621835f1461013c57806316dc165b146101a65780631aae2e55146101d1578063252c09d7146101e8578063537c2d8e14610235575b600080fd5b61017961014a366004613c42565b601160205260009081526040902080546001820154600283015460038401546004909401549293919290919085565b604080519586526020860194909452928401919091526060830152608082015260a0015b60405180910390f35b6002546101b9906001600160a01b031681565b6040516001600160a01b03909116815260200161019d565b6101da60045481565b60405190815260200161019d565b6101fb6101f6366004613c42565b61060c565b6040805163ffffffff909516855260069390930b60208501526001600160a01b03909116918301919091521515606082015260800161019d565b6000546102429060020b81565b60405160029190910b815260200161019d565b6101da60055481565b60035461024290600160b81b900460020b81565b610285610280366004613b6b565b610652565b6040805192835260208301919091520161019d565b6101796102a8366004613c42565b601060205260009081526040902080546001820154600283015460038401546004909401549293919290919085565b6000546102f490660100000000000090046001600160801b031681565b6040516001600160801b03909116815260200161019d565b61035861031a366004613c7b565b600d6020526000908152604090208054600182015460028301546003909301546001600160801b03831693600160801b909304600f0b929060ff1685565b604080516001600160801b039096168652600f9490940b60208601529284019190915260608301521515608082015260a00161019d565b61028561039d366004613b6b565b611030565b6103e56103b0366004613c7b565b600f60205260009081526040902080546001820154600283015460038401546004850154600590950154939492939192909186565b604080519687526020870195909552938501929092526060840152608083015260a082015260c00161019d565b610459610420366004613c42565b600b60205260009081526040902080546001820154600283015460038401546004909401546001600160801b0390931693919290919085565b604080516001600160801b0390961686526020860194909452928401919091526060830152608082015260a00161019d565b6101da610499366004613c5a565b600c6020526000908152604090205481565b6003546101b9906001600160a01b031681565b600754600854600954600a5461052b936001600160a01b03811693600160a01b90910460020b9290916001600160801b0381169060ff600160801b820481169161ffff600160881b8204811692600160981b8304821692600160a81b810490921691600160b81b9004168a565b604080516001600160a01b03909b168b5260029990990b60208b01529789019690965260608801949094526001600160801b039092166080870152151560a086015261ffff90811660c086015290811660e08501521661010083015215156101208201526101400161019d565b6001546101b9906001600160a01b031681565b600054610242906301000000900460020b81565b6003546105d590600160a01b900462ffffff1681565b60405162ffffff909116815260200161019d565b6102426105f7366004613c7b565b600e6020526000908152604090205460020b81565b60128161ffff811061061d57600080fd5b015463ffffffff81169150640100000000810460060b90600160581b81046001600160a01b031690600160f81b900460ff1684565b6000806000866001600160801b0316116106985760405162461bcd60e51b8152602060048201526002602482015261041560f41b60448201526064015b60405180910390fd5b600054600290810b810b9086900b12156106d95760405162461bcd60e51b81526020600482015260026024820152614c4f60f01b604482015260640161068f565b505060408051610140810182526007546001600160a01b0381168252600160a01b9004600290810b810b900b6020820152600854918101919091526009546060820152600a546001600160801b038116608083015260ff600160801b82048116151560a084015261ffff600160881b8304811660c0850152600160981b8304811660e0850152600160a81b830416610100840152600160b81b909104161515610120820152600090819061078b613b0d565b6004548152600554602080830191909152600060408301526006546001600160a01b03166060830152600354600160b81b9004600290810b810b900b60808301819052908301516107db916119ad565b600290810b810b60a08301526020830151810b900b60c082015260808201516001600160801b031660e082015263ffffffff43166101008201525b816020015160020b8760020b1315801561083257508060400151155b15610dbc5760008160a0015160021660020b131561097957602080830151600290810b810b6000908152600f9092526040822090810154845191929091819061087d908d90856119fa565b915091508b6001600160801b0316811061089957600160408601525b808c6001600160801b031611156108b9576108b4818d614129565b6108bc565b60005b9b506108c88289613e77565b97506108d48188613e77565b96506108e0818461418c565b9250828460020181905550818460040160008282546108ff9190613e77565b925050819055508184600101600082825461091a9190613e77565b9091555050835415801561092c575082155b156109745760008560a0015160011690506109508760200151876080015183611a50565b8060020b60001415610972576020870151608087015161097291600c91611a97565b505b505050505b80604001511561098857610dbc565b60006001836020015161099b91906140a3565b905060008260a0015160011660020b1315610baa5760808301516001600160801b031615610ad95760006109d984856020015185606001518d611b00565b8051151560408501526020810151600354919250600091610a0a9190600160a01b900462ffffff16620f4240611f68565b9050610a2881600160801b87608001516001600160801b0316611fc1565b8451610a349190613e77565b84526020820151610a46908290613e77565b610a509088613e77565b9650816040015186610a629190613e77565b955081604001518b6001600160801b03161115610a8d576040820151610a88908c614129565b610a90565b60005b606080840151600290810b900b602088015260808401516001600160a01b0316875260a08085015115159088015260c0840151604088015260e090930151928601929092525098505b8160400151610baa57602080840151600290810b900b6000908152600d8252604090208351918401519091610b109183919061206e565b60808401518154610b349190610b2f90600160801b9004600f0b614279565b61209e565b6001600160801b031660808501526020840151610b53906001906140a3565b600290810b900b60208501819052610b6a906120cf565b6001600160a01b0316808552600060a0860181905260408601526080850151610ba3916001600160801b0390911690600160601b611fc1565b6060850152505b816040015180610bc357508760020b836020015160020b125b15610bce5750610dbc565b6000610bea828460800151600c6124e49092919063ffffffff16565b90508860020b8160020b1215610bfd5750875b6000610c0d8285608001516119ad565b905084608001516001600160801b031660001415610c6257600282810b900b60208601819052610c3c906120cf565b6001600160a01b03168552600160a080870191909152600282810b900b90850152610d9b565b6000610c74868487606001518f611b00565b8051151560408701526020810151600354919250600091610ca59190600160a01b900462ffffff16620f4240611f68565b9050816040015188610cb79190613e77565b9750808260200151610cc99190613e77565b610cd3908a613e77565b985081604001518d6001600160801b03161115610cfe576040820151610cf9908e614129565b610d01565b60005b9c50610d1f81600160801b89608001516001600160801b0316611fc1565b8651610d2b9190613e77565b8652606082810151600290810b810b60208a0181905260808501516001600160a01b03168a5260a0808601511515908b015260c085015160408b015260e0850151928a019290925285810b91900b1415610d9057600283810b900b60a0870152610d98565b600060a08701525b50505b8960020b856020015160020b13610db457505050610dbc565b505050610816565b816020015160020b8160c0015160020b14610e1b57610e098260c001518261010001518360c001518460e001518660e0015187610100015160126125ce909695949392919063ffffffff16565b61ffff90811660e08501521660c08301525b8051600455815160078054602085015160020b62ffffff16600160a01b026001600160b81b03199091166001600160a01b0390931692909217919091179055604082015160085560608201516009556080820151600a805460a085015160c086015160e08701516101008801516101208901511515600160b81b0260ff60b81b1961ffff928316600160a81b021662ffffff60a81b19938316600160981b0261ffff60981b1993909516600160881b029290921663ffffffff60881b19951515600160801b0270ffffffffffffffffffffffffffffffffff199097166001600160801b0390991698909817959095179390931695909517179390931692909217919091179055821561102457600354610f3e906001600160a01b03168a85612780565b60008411610f735760405162461bcd60e51b8152602060048201526002602482015261050560f41b604482015260640161068f565b6000610f7d612881565b60405163061e01a160e21b81529091503390631878068490610fa990889088908c908c90600401613ce6565b600060405180830381600087803b158015610fc357600080fd5b505af1158015610fd7573d6000803e3d6000fd5b505050508481610fe79190613e77565b610fef612881565b10156110225760405162461bcd60e51b8152602060048201526002602482015261584560f01b604482015260640161068f565b505b50509550959350505050565b6000806000866001600160801b0316116110715760405162461bcd60e51b8152602060048201526002602482015261041560f41b604482015260640161068f565b600054600290810b810b9086900b12156110b25760405162461bcd60e51b81526020600482015260026024820152614c4f60f01b604482015260640161068f565b505060408051610140810182526007546001600160a01b0381168252600160a01b9004600290810b810b900b6020820152600854918101919091526009546060820152600a546001600160801b038116608083015260ff600160801b82048116151560a084015261ffff600160881b8304811660c0850152600160981b8304811660e0850152600160a81b830416610100840152600160b81b9091041615156101208201526000908190611164613b0d565b6004548152600554602080830191909152600060408301526006546001600160a01b03166060830152600354600160b81b9004600290810b810b900b60808301819052908301516111b4916119ad565b600290810b810b60a08301526020830151810b900b60c082015260808201516001600160801b031660e082015263ffffffff43166101008201525b816020015160020b8760020b1315801561120b57508060400151155b15610dbc5760008160a0015160021660020b131561136957602080830151600290810b810b6000908152600f90925260408220908101548451919290918190611256908d9085612954565b915091508281108061127a57508b6001600160801b0316826001600160801b031610155b1561128757600160408601525b611291828d614129565b9b506112a66001600160801b03831689613e77565b97506112b28188613e77565b96506112be818461418c565b9250828460020181905550816001600160801b03168460040160008282546112e69190613e77565b92505081905550816001600160801b031684600101600082825461130a9190613e77565b9091555050835415801561131c575082155b156113645760008560a0015160011690506113408760200151876080015183611a50565b8060020b60001415611362576020870151608087015161136291600c91611a97565b505b505050505b80604001511561137857610dbc565b60006001836020015161138b91906140a3565b905060008260a0015160011660020b1315611695576003546000906113bf90600160a01b900462ffffff16620f4240613e59565b62ffffff166113da6001600160801b038c16620f4240614084565b6113e49190613f14565b90506001600160801b0381161561168b5760808401516001600160801b0316156115ba57600061141e8586602001518660600151856129fa565b80511515604086015260208101519091506000906001600160801b0380851691161061145a576020820151611453908d614129565b90506114ea565b6003546020830151620f42409161148791600160a01b90910462ffffff16906001600160801b0316614084565b6114919190613f14565b90506000620f4240600360149054906101000a900462ffffff1662ffffff1684602001516001600160801b03166114c89190614084565b6114d29190614265565b905080156114e8576114e5600183613def565b91505b505b61150f816001600160801b0316600160801b88608001516001600160801b0316611fc1565b855161151b9190613e77565b855260208201516001600160801b038083169161153991168a613e77565b6115439190613e77565b97508160400151876115559190613e77565b96508082602001516115679190613def565b611571908d614129565b606080840151600290810b900b602089015260808401516001600160a01b0316885260a08085015115159089015260c0840151604089015260e090930151928701929092525099505b826040015161168657602080850151600290810b900b6000908152600d82526040902084519185015190916115f19183919061206e565b608085015181546116109190610b2f90600160801b9004600f0b614279565b6001600160801b03166080860152602085015161162f906001906140a3565b600290810b900b60208601819052611646906120cf565b6001600160a01b0316808652600060a087018190526040870152608086015161167f916001600160801b0390911690600160601b611fc1565b6060860152505b611693565b600160408401525b505b8160400151806116ae57508760020b836020015160020b125b156116b95750610dbc565b60006116d5828460800151600c6124e49092919063ffffffff16565b90508860020b8160020b12156116e85750875b60006116f88285608001516119ad565b905084608001516001600160801b03166000141561174d57600282810b900b60208601819052611727906120cf565b6001600160a01b03168552600160a080870191909152600282810b900b9085015261198c565b60035460009061176c90600160a01b900462ffffff16620f4240613e59565b62ffffff166117876001600160801b038e16620f4240614084565b6117919190613f14565b90506001600160801b038116156119575760006117b487858860600151856129fa565b80511515604088015260208101519091506000906001600160801b038085169116106117f05760208201516117e9908f614129565b9050611880565b6003546020830151620f42409161181d91600160a01b90910462ffffff16906001600160801b0316614084565b6118279190613f14565b90506000620f4240600360149054906101000a900462ffffff1662ffffff1684602001516001600160801b031661185e9190614084565b6118689190614265565b9050801561187e5761187b600183613def565b91505b505b604082015161188f908a613e77565b9850806001600160801b031682602001516001600160801b03168b6118b49190613e77565b6118be9190613e77565b99508082602001516118d09190613def565b6118da908f614129565b9d50611901816001600160801b0316600160801b8a608001516001600160801b0316611fc1565b875161190d9190613e77565b875250606080820151600290810b900b602089015260808201516001600160a01b0316885260a08083015115159089015260c0820151604089015260e0909101519087015261195f565b600160408601525b8260020b866020015160020b141561198257600282810b900b60a086015261198a565b600060a08601525b505b8960020b856020015160020b136119a557505050610dbc565b5050506111ef565b60006119b98284614222565b60020b156119c9575060006119f4565b600e60006119d78486613eb4565b600290810b810b8252602082019290925260400160002054900b90505b92915050565b60006001600160801b03841682811115611a115750815b6000611a2b82600160601b876001600160a01b0316611f68565b9050611a4581600160601b876001600160a01b0316611f68565b925050935093915050565b80600e6000611a5f8587613eb4565b60020b60020b815260200190815260200160002060006101000a81548162ffffff021916908360020b62ffffff160217905550505050565b611aa18183614222565b60020b15611aae57600080fd5b6000611aba8284613eb4565b9050600281900b60081d6000611ad261010084614222565b600192830b830b60009081526020979097526040909620805460ff9097169290921b19909516905550505050565b6040805161010081018252600080825260208201819052918101829052606081018290526080810182905260a080820183905260c0820183905260e082019290925290850151158015611b6a5750600085604001511180611b6a5750846020015160020b8460020b145b15611c6c57611b8c828660000151876060015188604001518960800151612e2c565b6001600160801b031660408301819052602083019190915260608601511115611c125760018152600060a082015260408101516060860151611bce919061418c565b60e082015260208101516040860151611be79190613e77565b60c08201526020850151600290810b900b606082015284516001600160a01b03166080820152611cbb565b816001600160801b0316816040015110611c565760018082526020860151600290810b900b606083015285516001600160a01b0316608083015260a0820152611cbb565b6040810151611c659083614129565b9150611cbb565b8460a00151611cbb576020850151611c85906001613d23565b600290810b900b60208601528451611caf906001600160a01b03908116908516600160601b611fc1565b6001600160a01b031685525b805115611cc757611f60565b846020015160020b8460020b1215611f33576000611ce4856120cf565b90506000611d546040518060c0016040528089608001516001600160801b03168152602001846001600160a01b031681526020018860020b815260200189600001516001600160a01b03168152602001896020015160020b8152602001876001600160a01b031681525085612eb0565b9050806000015183602001818151611d6c9190613e77565b90525060208101516001600160801b0385161115611d98576020810151611d939085614129565b611d9b565b60005b9350806020015183604001818151611db39190613e77565b905250604081015115611df4576001600160801b038416158352600286810b900b60608401526001600160a01b0382166080840152600160a0840152611f2c565b60018160600151611e0591906140a3565b816060019060020b908160020b81525050611e3b81608001516001600160a01b0316600160601b876001600160a01b0316611fc1565b6001600160a01b03166080808301829052880151600091611e6a916001600160801b031690600160601b611fc1565b9050600080611e858785608001518560008e60800151612e2c565b6001600160801b0316915091508186602001818151611ea49190613e77565b905250604086018051829190611ebb908390613e77565b905250600186526080808501516001600160a01b031690870152828110611ef957606080850151600290810b900b90870152600160a0870152611f28565b606080850151600290810b900b90870152600060a0870152611f1b818461418c565b60e087015260c086018290525b5050505b5050611f60565b600081526020850151600290810b900b6060820152600160a082015284516001600160a01b031660808201525b949350505050565b6000611f75848484611fc1565b905060008280611f9557634e487b7160e01b600052601260045260246000fd5b8486091115611fba576000198110611fac57600080fd5b80611fb681614207565b9150505b9392505050565b600080806000198587098587029250828110838203039150508060001415611ffb5760008411611ff057600080fd5b508290049050611fba565b80841161200757600080fd5b6000848688096001861981018716968790046003810260029081188083028203028083028203028083028203028083028203028083028203029182029003026000889003889004909101858311909403939093029303949094049190911702949350505050565b600183015461207d908361418c565b60018401556002830154612091908261418c565b8360020181905550505050565b60008082600f0b12156120c5576120b482614279565b6120be9084614129565b90506119f4565b611fba8284613def565b60008060008360020b126120e6578260020b6120f3565b8260020b6120f3906142c1565b9050612102620d89e7196142a7565b60020b8111156121385760405162461bcd60e51b81526020600482015260016024820152601560fa1b604482015260640161068f565b60006001821661214c57600160801b61215e565b6ffffcb933bd6fad37aa2d162d1a5940015b70ffffffffffffffffffffffffffffffffff169050600282161561219d576080612198826ffff97272373d413259a46990580e213a614084565b901c90505b60048216156121c75760806121c2826ffff2e50f5f656932ef12357cf3c7fdcc614084565b901c90505b60088216156121f15760806121ec826fffe5caca7e10e4e61c3624eaa0941cd0614084565b901c90505b601082161561221b576080612216826fffcb9843d60f6159c9db58835c926644614084565b901c90505b6020821615612245576080612240826fff973b41fa98c081472e6896dfb254c0614084565b901c90505b604082161561226f57608061226a826fff2ea16466c96a3843ec78b326b52861614084565b901c90505b6080821615612299576080612294826ffe5dee046a99a2a811c461f1969c3053614084565b901c90505b6101008216156122c45760806122bf826ffcbe86c7900a88aedcffc83b479aa3a4614084565b901c90505b6102008216156122ef5760806122ea826ff987a7253ac413176f2b074cf7815e54614084565b901c90505b61040082161561231a576080612315826ff3392b0822b70005940c7a398e4b70f3614084565b901c90505b610800821615612345576080612340826fe7159475a2c29b7443b29c7fa6e889d9614084565b901c90505b61100082161561237057608061236b826fd097f3bdfd2022b8845ad8f792aa5825614084565b901c90505b61200082161561239b576080612396826fa9f746462d870fdf8a65dc1f90e061e5614084565b901c90505b6140008216156123c65760806123c1826f70d869a156d2a1b890bb3df62baf32f7614084565b901c90505b6180008216156123f15760806123ec826f31be135f97d08fd981231505542fcfa6614084565b901c90505b6201000082161561241d576080612418826f09aa508b5b7a84e1c677de54f3e99bc9614084565b901c90505b62020000821615612448576080612443826e5d6af8dedb81196699c329225ee604614084565b901c90505b6204000082161561247257608061246d826d2216e584f5fa1ea926041bedfe98614084565b901c90505b6208000082161561249a576080612495826b048a170391f7dc42444e8fa2614084565b901c90505b60008460020b13156124b5576124b281600019613f14565b90505b6124c464010000000082614265565b156124d05760016124d3565b60005b611f609060ff16602083901c613e77565b6000806124f18385613eb4565b905060008460020b128015612511575061250b8385614222565b60020b15155b156125245780612520816141e3565b9150505b600281900b60081d600061253a61010084614222565b90506000600160ff831681901b90612552908261418c565b61255c9190613e77565b600184810b900b600090815260208a9052604090205416905080612597578561258860ff8416866140a3565b6125929190613f28565b6125c2565b856125a182613130565b6125ab90846141c0565b6125b89060ff16866140a3565b6125c29190613f28565b98975050505050505050565b6000806000898961ffff1661ffff81106125f857634e487b7160e01b600052603260045260246000fd5b60408051608081018252919092015463ffffffff8082168084526401000000008304600690810b810b900b6020850152600160581b83046001600160a01b031694840194909452600160f81b90910460ff1615156060830152909250891614156126685788859250925050612774565b8461ffff168461ffff161180156126905750612685600186614151565b61ffff168961ffff16145b1561269d578391506126a1565b8491505b816126ad8a6001613e1a565b6126b79190614244565b92506126c581898989613228565b8a8461ffff1661ffff81106126ea57634e487b7160e01b600052603260045260246000fd5b825191018054602084015160408501516060909501511515600160f81b026001600160f81b036001600160a01b03909616600160581b02959095166affffffffffffffffffffff60069290920b66ffffffffffffff16640100000000026affffffffffffffffffffff1990931663ffffffff90951694909417919091171691909117919091179055505b97509795505050505050565b604080516001600160a01b038481166024830152604480830185905283518084039091018152606490920183526020820180516001600160e01b031663a9059cbb60e01b17905291516000928392908716916127dc9190613cad565b6000604051808303816000865af19150503d8060008114612819576040519150601f19603f3d011682016040523d82523d6000602084013e61281e565b606091505b50915091508180156128485750805115806128485750808060200190518101906128489190613c22565b61287a5760405162461bcd60e51b8152602060048201526003602482015262544e5360e81b604482015260640161068f565b5050505050565b600254604080513060248083019190915282518083039091018152604490910182526020810180516001600160e01b03166370a0823160e01b1790529051600092839283926001600160a01b03909216916128dc9190613cad565b600060405180830381855afa9150503d8060008114612917576040519150601f19603f3d011682016040523d82523d6000602084013e61291c565b606091505b509150915081801561293057506020815110155b61293957600080fd5b8080602001905181019061294d9190613c95565b9250505090565b600080600061297a866001600160801b0316866001600160a01b0316600160601b611fc1565b905061299481866001600160a01b0316600160601b611fc1565b9150838211156129a2578391505b6129ba82600160601b876001600160a01b0316611f68565b905060006129d682600160601b886001600160a01b0316611f68565b905080935080846001600160801b0316146129f057600080fd5b5050935093915050565b6040805161010081018252600080825260208201819052918101829052606081018290526080810182905260a080820183905260c0820183905260e082019290925290850151158015612a645750600085604001511180612a645750846020015160020b8460020b145b15612b7757612a86828660000151876060015188604001518960800151613309565b604083018190526001600160801b03909116602083015260608601511115612b145760018152600060a082015260408101516060860151612ac7919061418c565b60e082015260208101516040860151612ae9916001600160801b031690613e77565b60c08201526020850151600290810b900b606082015284516001600160a01b03166080820152612bc6565b816001600160801b031681602001516001600160801b031610612b615760018082526020860151600290810b900b606083015285516001600160a01b0316608083015260a0820152612bc6565b6020810151612b709083614129565b9150612bc6565b8460a00151612bc6576020850151612b90906001613d23565b600290810b900b60208601528451612bba906001600160a01b03908116908516600160601b611fc1565b6001600160a01b031685525b805115612bd257611f60565b846020015160020b8460020b1215611f33576000612bef856120cf565b90506000612c5f6040518060c0016040528089608001516001600160801b03168152602001846001600160a01b031681526020018860020b815260200189600001516001600160a01b03168152602001896020015160020b8152602001876001600160a01b03168152508561339b565b9050806000015183602001818151612c779190613def565b6001600160801b03169052508051612c8f9085614129565b9350806020015183604001818151612ca79190613e77565b905250604081015115612ce8576001600160801b038416158352600286810b900b60608401526001600160a01b0382166080840152600160a0840152611f2c565b60018160600151612cf991906140a3565b816060019060020b908160020b81525050612d2f81608001516001600160a01b0316600160601b876001600160a01b0316611fc1565b6001600160a01b03166080808301829052880151600091612d5e916001600160801b031690600160601b611fc1565b9050600080612d798785608001518560008e60800151613309565b915091508186602001818151612d8f9190613def565b6001600160801b0316905250604086018051829190612daf908390613e77565b905250600186526080808501516001600160a01b031690870152828110612ded57606080850151600290810b900b90870152600160a0870152611f28565b606080850151600290810b900b90870152600060a0870152612e0f818461418c565b60e0870152506001600160801b031660c085015250611f60915050565b6000806000612e52846001600160801b0316600160601b896001600160a01b0316611f68565b90506000858211612e64576000612e6e565b612e6e868361418c565b905086896001600160801b031610612e8b57809350869250611024565b889250612ea2836001600160801b03168289611f68565b935050509550959350505050565b6040805160a0810182526000808252602082018190529181018290526060810182905260808101919091526000612efb8460000151856020015186606001518760a001516000613698565b9050826001600160801b03168111612f495780826020018181525050612f3a84600001518560400151866080015187606001518860a00151600161371f565b825250600160408201526119f4565b6060840151845160a08601516001600160a01b03928316926000926001600160801b031691612f7e91600160601b911661418c565b612f91906001600160801b038816614084565b612f9b9190613f14565b9050808203915085606001516001600160a01b0316821180612fca575085602001516001600160a01b03168211155b1561300d5782846020018181525050612ffc86600001518760400151886080015189606001518a60a00151600161371f565b8452505060016040830152506119f4565b613016826137d3565b613021906001613d23565b600290810b810b606086018190526040880151820b910b1361306a5782846020018181525050612ffc86600001518760400151886080015189606001518a60a00151600161371f565b856080015160020b846060015160020b126130be575050600060208301819052808352604083015250608080840151600290810b900b6060808401919091528401516001600160a01b0316908201526119f4565b6000604085015260608401516130d3906120cf565b6001600160a01b0316608085018190528651606088015160a08901516130fc9391906000613698565b6020850152855160608086015160808901519189015160a08a015161312594939190600161371f565b845250505092915050565b600080821161313e57600080fd5b600160801b821061315c57608091821c916131599082613e8f565b90505b68010000000000000000821061317f57604091821c9161317c9082613e8f565b90505b640100000000821061319e57602091821c9161319b9082613e8f565b90505b6201000082106131bb57601091821c916131b89082613e8f565b90505b61010082106131d757600891821c916131d49082613e8f565b90505b601082106131f257600491821c916131ef9082613e8f565b90505b6004821061320d57600291821c9161320a9082613e8f565b90505b6002821061322357613220600182613e8f565b90505b919050565b604080516080810182526000808252602082018190529181018290526060810191909152845160009061325b90866141a3565b63ffffffff16905060405180608001604052808663ffffffff168152602001828660020b6132899190614034565b88602001516132989190613daa565b60060b81526020016000856001600160801b0316116132b85760016132ba565b845b6132dd906001600160801b031666ffffffffffffff60801b608086901b16613eee565b88604001516132ec9190613e37565b6001600160a01b0316815260016020909101529695505050505050565b600080600061332f846001600160801b0316600160601b896001600160a01b0316611f68565b9050600085821161334157600061334b565b61334b868361418c565b905080896001600160801b03161061336857809350869250611024565b61337c896001600160801b03168883611fc1565b92506000831161338d576000612ea2565b509697909650945050505050565b6040805160a08101825260008082526020820181905291810182905260608101829052608081019190915260006133e1846080015160016133dc9190613d23565b6120cf565b90506000613408600186604001516133f991906140a3565b86608001516133dc91906140a3565b9050600061345486600001516001600160801b03168760a001518461342d919061416c565b6001600160a01b0316886060015186613446919061416c565b6001600160a01b0316611f68565b9050846001600160801b031681116134a2576001600160801b038116845285516020870151606088015160a0890151613491939291906000613698565b60208501526001604085015261368f565b60008660a001516001600160a01b03166134eb876001600160801b03168960600151876134cf919061416c565b6001600160a01b03168a600001516001600160801b0316611fc1565b6134f59190613e77565b9050806001600160a01b03811681146135395760405162461bcd60e51b81526020600482015260066024820152652c192cab27a360d11b604482015260640161068f565b6000613544826137d3565b905080896080015160016135589190613d23565b61356291906140a3565b600290810b810b6060890181905260408b0151820b910b1361359b57604089015161358e906001613d23565b600290810b900b60608801525b886080015160020b876060015160020b14156135da5760008088526020880181905260608a01516001600160a01b03166080890152604088015261368b565b60006135ff600189606001516135f091906140a3565b8b608001516133dc91906140a3565b905061363b8a600001516001600160801b03168b60a0015183613622919061416c565b6001600160a01b03168c606001518a613446919061416c565b6001600160801b031688526060880151613654906120cf565b6001600160a01b0316608089018190528a5160608c015160a08d015161367d9391906000613698565b602089015250600060408801525b5050505b50505092915050565b6000806136a5868661416c565b905060006136b7600160601b8661416c565b9050836136eb576136e4886001600160801b0316836001600160a01b0316836001600160a01b0316611fc1565b9250613714565b613711886001600160801b0316836001600160a01b0316836001600160a01b0316611f68565b92505b505095945050505050565b60008061373a61372f88886140a3565b6133dc906001613d23565b9050600061374c6133dc886001613d23565b9050600061375a868461416c565b90506000613768888461416c565b90508561379c576137958b6001600160801b0316836001600160a01b0316836001600160a01b0316611fc1565b94506137c5565b6137c28b6001600160801b0316836001600160a01b0316836001600160a01b0316611f68565b94505b505050509695505050505050565b60006401000276a36001600160a01b0383161080159061380f575073fffd8963efd1fc6a506488495d951d5263988d266001600160a01b038316105b61383f5760405162461bcd60e51b81526020600482015260016024820152602960f91b604482015260640161068f565b640100000000600160c01b03602083901b166001600160801b03811160071b81811c67ffffffffffffffff811160061b90811c63ffffffff811160051b90811c61ffff811160041b90811c60ff8111600390811b91821c600f811160021b90811c918211600190811b92831c979088119617909417909217179091171717608081106138da576138d0607f8261418c565b83901c91506138eb565b6138e581607f61418c565b83901b91505b600060406138fa6080846140ea565b901b9050828302607f1c92508260801c80603f1b8217915083811c935050828302607f1c92508260801c80603e1b8217915083811c935050828302607f1c92508260801c80603d1b8217915083811c935050828302607f1c92508260801c80603c1b8217915083811c935050828302607f1c92508260801c80603b1b8217915083811c935050828302607f1c92508260801c80603a1b8217915083811c935050828302607f1c92508260801c8060391b8217915083811c935050828302607f1c92508260801c8060381b8217915083811c935050828302607f1c92508260801c8060371b8217915083811c935050828302607f1c92508260801c8060361b8217915083811c935050828302607f1c92508260801c8060351b8217915083811c935050828302607f1c92508260801c8060341b8217915083811c935050828302607f1c92508260801c8060331b8217915083811c935050828302607f1c92508260801c8060321b8217915050600081693627a301d71055774c85613a7d9190613fb1565b905060006080613a9d6f028f6481ab7f045a5af012a19d003aaa846140ea565b901d905060006080613abf846fdb2df09e81959a81455e260799a0632f613d69565b901d90508060020b8260020b14613afe57886001600160a01b0316613ae3826120cf565b6001600160a01b03161115613af85781613b00565b80613b00565b815b9998505050505050505050565b6040805161012081018252600080825260208201819052918101829052606081018290526080810182905260a0810182905260c0810182905260e0810182905261010081019190915290565b8035600281900b811461322357600080fd5b600080600080600060808688031215613b82578081fd5b85356001600160a01b0381168114613b98578182fd5b945060208601356001600160801b0381168114613bb3578182fd5b9350613bc160408701613b59565b9250606086013567ffffffffffffffff80821115613bdd578283fd5b818801915088601f830112613bf0578283fd5b813581811115613bfe578384fd5b896020828501011115613c0f578384fd5b9699959850939650602001949392505050565b600060208284031215613c33578081fd5b81518015158114611fba578182fd5b600060208284031215613c53578081fd5b5035919050565b600060208284031215613c6b578081fd5b81358060010b8114611fba578182fd5b600060208284031215613c8c578081fd5b611fba82613b59565b600060208284031215613ca6578081fd5b5051919050565b60008251815b81811015613ccd5760208186018101518583015201613cb3565b81811115613cdb5782828501525b509190910192915050565b84815283602082015260606040820152816060820152818360808301376000818301608090810191909152601f909201601f191601019392505050565b60008160020b8360020b82821282627fffff03821381151615613d4857613d486142db565b82627fffff19038212811615613d6057613d606142db565b50019392505050565b600080821280156001600160ff1b0384900385131615613d8b57613d8b6142db565b600160ff1b8390038412811615613da457613da46142db565b50500190565b60008160060b8360060b82821282667fffffffffffff03821381151615613dd357613dd36142db565b82667fffffffffffff19038212811615613d6057613d606142db565b60006001600160801b03808316818516808303821115613e1157613e116142db565b01949350505050565b600061ffff808316818516808303821115613e1157613e116142db565b60006001600160a01b03828116848216808303821115613e1157613e116142db565b600062ffffff808316818516808303821115613e1157613e116142db565b60008219821115613e8a57613e8a6142db565b500190565b600060ff821660ff84168060ff03821115613eac57613eac6142db565b019392505050565b60008160020b8360020b80613ecb57613ecb6142f1565b627fffff19821460001982141615613ee557613ee56142db565b90059392505050565b60006001600160a01b0383811680613f0857613f086142f1565b92169190910492915050565b600082613f2357613f236142f1565b500490565b60008160020b8360020b627fffff83821384841383830485118282161615613f5257613f526142db565b627fffff1986851282811687830587121615613f7057613f706142db565b878712925085820587128484161615613f8b57613f8b6142db565b85850587128184161615613fa157613fa16142db565b5050509290910295945050505050565b60006001600160ff1b0381841382841380821686840486111615613fd757613fd76142db565b600160ff1b84871282811687830589121615613ff557613ff56142db565b858712925087820587128484161615614010576140106142db565b87850587128184161615614026576140266142db565b505050929093029392505050565b60008160060b8360060b667fffffffffffff83821384841383830485118282161615614062576140626142db565b667fffffffffffff1986851282811687830587121615613f7057613f706142db565b600081600019048311821515161561409e5761409e6142db565b500290565b60008160020b8360020b82811281627fffff19018312811516156140c9576140c96142db565b81627fffff0183138116156140e0576140e06142db565b5090039392505050565b60008083128015600160ff1b850184121615614108576141086142db565b6001600160ff1b0384018313811615614123576141236142db565b50500390565b60006001600160801b0383811690831681811015614149576141496142db565b039392505050565b600061ffff83811690831681811015614149576141496142db565b60006001600160a01b0383811690831681811015614149576141496142db565b60008282101561419e5761419e6142db565b500390565b600063ffffffff83811690831681811015614149576141496142db565b600060ff821660ff8416808210156141da576141da6142db565b90039392505050565b60008160020b627fffff198114156141fd576141fd6142db565b6000190192915050565b600060001982141561421b5761421b6142db565b5060010190565b60008260020b80614235576142356142f1565b808360020b0791505092915050565b600061ffff80841680614259576142596142f1565b92169190910692915050565b600082614274576142746142f1565b500690565b600081600f0b6f7fffffffffffffffffffffffffffffff198114156142a0576142a06142db565b9003919050565b60008160020b627fffff198114156142a0576142a06142db565b6000600160ff1b8214156142d7576142d76142db565b0390565b634e487b7160e01b600052601160045260246000fd5b634e487b7160e01b600052601260045260246000fdfea2646970667358221220f03124bb604afe90d5f820c88d5d9ea23fbc436e6995fabd5bd3d8fab33687b864736f6c63430008040033",
  "linkReferences": {},
  "deployedLinkReferences": {}
}