{
  "_format": "hh-sol-artifact-1",
  "contractName": "SwapY2XModule",
  "sourceName": "contracts/swapY2X.sol",
  "abi": [
    {
      "inputs": [],
      "name": "factory",
      "outputs": [
        {
          "internalType": "address",
          "name": "",
          "type": "address"
        }
      ],
      "stateMutability": "view",
      "type": "function"
    },
    {
      "inputs": [],
      "name": "fee",
      "outputs": [
        {
          "internalType": "uint24",
          "name": "",
          "type": "uint24"
        }
      ],
      "stateMutability": "view",
      "type": "function"
    },
    {
      "inputs": [],
      "name": "feeScaleX_128",
      "outputs": [
        {
          "internalType": "uint256",
          "name": "",
          "type": "uint256"
        }
      ],
      "stateMutability": "view",
      "type": "function"
    },
    {
      "inputs": [],
      "name": "feeScaleY_128",
      "outputs": [
        {
          "internalType": "uint256",
          "name": "",
          "type": "uint256"
        }
      ],
      "stateMutability": "view",
      "type": "function"
    },
    {
      "inputs": [],
      "name": "leftMostPt",
      "outputs": [
        {
          "internalType": "int24",
          "name": "",
          "type": "int24"
        }
      ],
      "stateMutability": "view",
      "type": "function"
    },
    {
      "inputs": [
        {
          "internalType": "int24",
          "name": "",
          "type": "int24"
        }
      ],
      "name": "limitOrderData",
      "outputs": [
        {
          "internalType": "uint256",
          "name": "sellingX",
          "type": "uint256"
        },
        {
          "internalType": "uint256",
          "name": "accEarnX",
          "type": "uint256"
        },
        {
          "internalType": "uint256",
          "name": "sellingY",
          "type": "uint256"
        },
        {
          "internalType": "uint256",
          "name": "accEarnY",
          "type": "uint256"
        },
        {
          "internalType": "uint256",
          "name": "earnX",
          "type": "uint256"
        },
        {
          "internalType": "uint256",
          "name": "earnY",
          "type": "uint256"
        }
      ],
      "stateMutability": "view",
      "type": "function"
    },
    {
      "inputs": [
        {
          "internalType": "bytes32",
          "name": "",
          "type": "bytes32"
        }
      ],
      "name": "liquidities",
      "outputs": [
        {
          "internalType": "uint128",
          "name": "liquidity",
          "type": "uint128"
        },
        {
          "internalType": "uint256",
          "name": "lastFeeScaleX_128",
          "type": "uint256"
        },
        {
          "internalType": "uint256",
          "name": "lastFeeScaleY_128",
          "type": "uint256"
        },
        {
          "internalType": "uint256",
          "name": "remainFeeX",
          "type": "uint256"
        },
        {
          "internalType": "uint256",
          "name": "remainFeeY",
          "type": "uint256"
        }
      ],
      "stateMutability": "view",
      "type": "function"
    },
    {
      "inputs": [],
      "name": "maxLiquidPt",
      "outputs": [
        {
          "internalType": "uint128",
          "name": "",
          "type": "uint128"
        }
      ],
      "stateMutability": "view",
      "type": "function"
    },
    {
      "inputs": [
        {
          "internalType": "uint256",
          "name": "",
          "type": "uint256"
        }
      ],
      "name": "observations",
      "outputs": [
        {
          "internalType": "uint32",
          "name": "timestamp",
          "type": "uint32"
        },
        {
          "internalType": "int56",
          "name": "pointCumulative",
          "type": "int56"
        },
        {
          "internalType": "uint160",
          "name": "secondsPerLiquidityCumulative_128",
          "type": "uint160"
        },
        {
          "internalType": "bool",
          "name": "init",
          "type": "bool"
        }
      ],
      "stateMutability": "view",
      "type": "function"
    },
    {
      "inputs": [
        {
          "internalType": "int24",
          "name": "",
          "type": "int24"
        }
      ],
      "name": "orderOrEndpoint",
      "outputs": [
        {
          "internalType": "int24",
          "name": "",
          "type": "int24"
        }
      ],
      "stateMutability": "view",
      "type": "function"
    },
    {
      "inputs": [
        {
          "internalType": "int16",
          "name": "",
          "type": "int16"
        }
      ],
      "name": "pointBitmap",
      "outputs": [
        {
          "internalType": "uint256",
          "name": "",
          "type": "uint256"
        }
      ],
      "stateMutability": "view",
      "type": "function"
    },
    {
      "inputs": [],
      "name": "pointDelta",
      "outputs": [
        {
          "internalType": "int24",
          "name": "",
          "type": "int24"
        }
      ],
      "stateMutability": "view",
      "type": "function"
    },
    {
      "inputs": [
        {
          "internalType": "int24",
          "name": "",
          "type": "int24"
        }
      ],
      "name": "points",
      "outputs": [
        {
          "internalType": "uint128",
          "name": "liquidAcc",
          "type": "uint128"
        },
        {
          "internalType": "int128",
          "name": "liquidDelta",
          "type": "int128"
        },
        {
          "internalType": "uint256",
          "name": "feeScaleXBeyond_128",
          "type": "uint256"
        },
        {
          "internalType": "uint256",
          "name": "feeScaleYBeyond_128",
          "type": "uint256"
        },
        {
          "internalType": "bool",
          "name": "isEndpt",
          "type": "bool"
        }
      ],
      "stateMutability": "view",
      "type": "function"
    },
    {
      "inputs": [],
      "name": "rightMostPt",
      "outputs": [
        {
          "internalType": "int24",
          "name": "",
          "type": "int24"
        }
      ],
      "stateMutability": "view",
      "type": "function"
    },
    {
      "inputs": [],
      "name": "state",
      "outputs": [
        {
          "internalType": "uint160",
          "name": "sqrtPrice_96",
          "type": "uint160"
        },
        {
          "internalType": "int24",
          "name": "currentPoint",
          "type": "int24"
        },
        {
          "internalType": "uint256",
          "name": "currX",
          "type": "uint256"
        },
        {
          "internalType": "uint256",
          "name": "currY",
          "type": "uint256"
        },
        {
          "internalType": "uint128",
          "name": "liquidity",
          "type": "uint128"
        },
        {
          "internalType": "bool",
          "name": "allX",
          "type": "bool"
        },
        {
          "internalType": "uint16",
          "name": "observationCurrentIndex",
          "type": "uint16"
        },
        {
          "internalType": "uint16",
          "name": "observationQueueLen",
          "type": "uint16"
        },
        {
          "internalType": "uint16",
          "name": "observationNextQueueLen",
          "type": "uint16"
        },
        {
          "internalType": "bool",
          "name": "locked",
          "type": "bool"
        }
      ],
      "stateMutability": "view",
      "type": "function"
    },
    {
      "inputs": [
        {
          "internalType": "address",
          "name": "recipient",
          "type": "address"
        },
        {
          "internalType": "uint128",
          "name": "amount",
          "type": "uint128"
        },
        {
          "internalType": "int24",
          "name": "highPt",
          "type": "int24"
        },
        {
          "internalType": "bytes",
          "name": "data",
          "type": "bytes"
        }
      ],
      "name": "swapY2X",
      "outputs": [
        {
          "internalType": "uint256",
          "name": "amountX",
          "type": "uint256"
        },
        {
          "internalType": "uint256",
          "name": "amountY",
          "type": "uint256"
        }
      ],
      "stateMutability": "nonpayable",
      "type": "function"
    },
    {
      "inputs": [
        {
          "internalType": "address",
          "name": "recipient",
          "type": "address"
        },
        {
          "internalType": "uint128",
          "name": "desireX",
          "type": "uint128"
        },
        {
          "internalType": "int24",
          "name": "highPt",
          "type": "int24"
        },
        {
          "internalType": "bytes",
          "name": "data",
          "type": "bytes"
        }
      ],
      "name": "swapY2XDesireX",
      "outputs": [
        {
          "internalType": "uint256",
          "name": "amountX",
          "type": "uint256"
        },
        {
          "internalType": "uint256",
          "name": "amountY",
          "type": "uint256"
        }
      ],
      "stateMutability": "nonpayable",
      "type": "function"
    },
    {
      "inputs": [],
      "name": "tokenX",
      "outputs": [
        {
          "internalType": "address",
          "name": "",
          "type": "address"
        }
      ],
      "stateMutability": "view",
      "type": "function"
    },
    {
      "inputs": [],
      "name": "tokenY",
      "outputs": [
        {
          "internalType": "address",
          "name": "",
          "type": "address"
        }
      ],
      "stateMutability": "view",
      "type": "function"
    },
    {
      "inputs": [
        {
          "internalType": "bytes32",
          "name": "",
          "type": "bytes32"
        }
      ],
      "name": "userEarnX",
      "outputs": [
        {
          "internalType": "uint256",
          "name": "lastAccEarn",
          "type": "uint256"
        },
        {
          "internalType": "uint256",
          "name": "sellingRemain",
          "type": "uint256"
        },
        {
          "internalType": "uint256",
          "name": "sellingDec",
          "type": "uint256"
        },
        {
          "internalType": "uint256",
          "name": "earn",
          "type": "uint256"
        },
        {
          "internalType": "uint256",
          "name": "earnAssign",
          "type": "uint256"
        }
      ],
      "stateMutability": "view",
      "type": "function"
    },
    {
      "inputs": [
        {
          "internalType": "bytes32",
          "name": "",
          "type": "bytes32"
        }
      ],
      "name": "userEarnY",
      "outputs": [
        {
          "internalType": "uint256",
          "name": "lastAccEarn",
          "type": "uint256"
        },
        {
          "internalType": "uint256",
          "name": "sellingRemain",
          "type": "uint256"
        },
        {
          "internalType": "uint256",
          "name": "sellingDec",
          "type": "uint256"
        },
        {
          "internalType": "uint256",
          "name": "earn",
          "type": "uint256"
        },
        {
          "internalType": "uint256",
          "name": "earnAssign",
          "type": "uint256"
        }
      ],
      "stateMutability": "view",
      "type": "function"
    }
  ],
  "bytecode": "0x608060405234801561001057600080fd5b50614346806100206000396000f3fe608060405234801561001057600080fd5b50600436106101375760003560e01c806375c0e0d5116100b8578063c19d93fb1161007c578063c19d93fb146104ab578063c45a015514610585578063d3b1686414610598578063ddca3f43146105ac578063edcba3b2146105d6578063f094685a146105f957600080fd5b806375c0e0d51461030c5780638790aca31461038f57806387e7d5fe146103ff57806398a0f72e14610478578063b7d19fc41461049857600080fd5b8063537c2d8e116100ff578063537c2d8e1461025d578063588e59ae1461027d57806358c51ce61461028657806362ccaafd1461029a5780636d01843b146102d757600080fd5b80631621835f1461013c57806316dc165b146101a65780631aae2e55146101d1578063252c09d7146101e85780632c48125214610235575b600080fd5b61017961014a366004613c70565b601160205260009081526040902080546001820154600283015460038401546004909401549293919290919085565b604080519586526020860194909452928401919091526060830152608082015260a0015b60405180910390f35b6002546101b9906001600160a01b031681565b6040516001600160a01b03909116815260200161019d565b6101da60045481565b60405190815260200161019d565b6101fb6101f6366004613c70565b61060c565b6040805163ffffffff909516855260069390930b60208501526001600160a01b03909116918301919091521515606082015260800161019d565b610248610243366004613b99565b610652565b6040805192835260208301919091520161019d565b60005461026a9060020b81565b60405160029190910b815260200161019d565b6101da60055481565b60035461026a90600160b81b900460020b81565b6101796102a8366004613c70565b601060205260009081526040902080546001820154600283015460038401546004909401549293919290919085565b6000546102f490660100000000000090046001600160801b031681565b6040516001600160801b03909116815260200161019d565b61035861031a366004613ca9565b600d6020526000908152604090208054600182015460028301546003909301546001600160801b03831693600160801b909304600f0b929060ff1685565b604080516001600160801b039096168652600f9490940b60208601529284019190915260608301521515608082015260a00161019d565b6103d261039d366004613ca9565b600f60205260009081526040902080546001820154600283015460038401546004850154600590950154939492939192909186565b604080519687526020870195909552938501929092526060840152608083015260a082015260c00161019d565b61044661040d366004613c70565b600b60205260009081526040902080546001820154600283015460038401546004909401546001600160801b0390931693919290919085565b604080516001600160801b0390961686526020860194909452928401919091526060830152608082015260a00161019d565b6101da610486366004613c88565b600c6020526000908152604090205481565b6003546101b9906001600160a01b031681565b600754600854600954600a54610518936001600160a01b03811693600160a01b90910460020b9290916001600160801b0381169060ff600160801b820481169161ffff600160881b8204811692600160981b8304821692600160a81b810490921691600160b81b9004168a565b604080516001600160a01b03909b168b5260029990990b60208b01529789019690965260608801949094526001600160801b039092166080870152151560a086015261ffff90811660c086015290811660e08501521661010083015215156101208201526101400161019d565b6001546101b9906001600160a01b031681565b60005461026a906301000000900460020b81565b6003546105c290600160a01b900462ffffff1681565b60405162ffffff909116815260200161019d565b61026a6105e4366004613ca9565b600e6020526000908152604090205460020b81565b610248610607366004613b99565b610fe9565b60128161ffff811061061d57600080fd5b015463ffffffff81169150640100000000810460060b90600160581b81046001600160a01b031690600160f81b900460ff1684565b6000806000866001600160801b0316116106985760405162461bcd60e51b8152602060048201526002602482015261041560f41b60448201526064015b60405180910390fd5b60005463010000009004600290810b810b9086900b13156106e05760405162461bcd60e51b8152602060048201526002602482015261484f60f01b604482015260640161068f565b505060408051610140810182526007546001600160a01b0381168252600160a01b9004600290810b810b900b6020820152600854918101919091526009546060820152600a546001600160801b038116608083015260ff600160801b82048116151560a084015261ffff600160881b8304811660c0850152600160981b8304811660e0850152600160a81b830416610100840152600160b81b9091041615156101208201526000908190610792613b3b565b6004548152600554602080830191909152600060408301526006546001600160a01b03166060830152600354600160b81b9004600290810b810b900b60808301819052908301516107e291611627565b600290810b810b60a08301526020830151810b900b60c082015260808201516001600160801b031660e082015263ffffffff43166101008201525b8660020b826020015160020b12801561083857508060400151155b15610d725760008160a0015160021660020b131561099457602080830151600290810b900b6000908152600f9091526040812080548451919290918190610881908d9085611674565b91509150828110806108a557508b6001600160801b0316826001600160801b031610155b156108b257600160408601525b6108bc828d614132565b9b506108d16001600160801b03831688613ea5565b96506108dd8189613ea5565b97506108e98184614195565b8085556005850180549194506001600160801b0384169160009061090e908490613ea5565b92505081905550816001600160801b03168460030160008282546109329190613ea5565b90915550506002840154158015610947575082155b1561098f5760008560a00151600116905061096b876020015187608001518361171a565b8060020b6000141561098d576020870151608087015161098d91600c91611761565b505b505050505b8060400151156109a357610d72565b60006109c383602001518360800151600c6117ca9092919063ffffffff16565b905060006109d5828460800151611627565b90508860020b8260020b13156109ec575087905060005b60808401516001600160801b0316610aa257600282810b900b60208501819052610a15906118c2565b6001600160a01b03168452600160a08501819052600090821660020b1315610a9157600282810b900b6000908152600d602090815260409091208451918501519091610a6391839190611cdf565b80546080860151600160801b909104600f0b90610a809082611d0f565b6001600160801b0316608087015250505b600281810b900b60a0840152610d6b565b600354600090610ac190600160a01b900462ffffff16620f4240613e87565b62ffffff16610adc6001600160801b038d16620f424061408d565b610ae69190613f1d565b90506001600160801b03811615610cbb576000610b098685876060015185611d47565b80511515604087015260208101519091506000906001600160801b03808516911610610b45576020820151610b3e908e614132565b9050610bd5565b6003546020830151620f424091610b7291600160a01b90910462ffffff16906001600160801b031661408d565b610b7c9190613f1d565b90506000620f4240600360149054906101000a900462ffffff1662ffffff1684602001516001600160801b0316610bb3919061408d565b610bbd919061426e565b90508015610bd357610bd0600183613e1d565b91505b505b6040820151610be4908a613ea5565b9850806001600160801b031682602001516001600160801b031689610c099190613ea5565b610c139190613ea5565b9750808260200151610c259190613e1d565b610c2f908e614132565b9c50610c56816001600160801b0316600160801b89608001516001600160801b031661219e565b8660200151610c659190613ea5565b602080880191909152606080840151600290810b900b9189019190915260808301516001600160a01b0316885260a08084015115159089015260c0830151604089015260e0909201519187019190915250610cc3565b600160408501525b8260020b856020015160020b148015610ce2575060008260011660020b135b15610d3e57600283810b900b6000908152600d602090815260409091208551918601519091610d1391839190611cdf565b60808601518154610d2e9190600160801b9004600f0b611d0f565b6001600160801b03166080870152505b8260020b856020015160020b1415610d6157600282810b900b60a0850152610d69565b600060a08501525b505b505061081d565b816020015160020b8160c0015160020b14610dd157610dbf8260c001518261010001518360c001518460e001518660e00151876101000151601261224e909695949392919063ffffffff16565b61ffff90811660e08501521660c08301525b6020808201516005558251600780549285015160020b62ffffff16600160a01b026001600160b81b03199093166001600160a01b0390921691909117919091179055604082015160085560608201516009556080820151600a805460a085015160c086015160e08701516101008801516101208901511515600160b81b0260ff60b81b1961ffff928316600160a81b021662ffffff60a81b19938316600160981b0261ffff60981b1993909516600160881b029290921663ffffffff60881b19951515600160801b0270ffffffffffffffffffffffffffffffffff199097166001600160801b03909916989098179590951793909316959095171793909316929092179190911790558315610fdd57600254610ef7906001600160a01b03168a86612400565b60008311610f2c5760405162461bcd60e51b8152602060048201526002602482015261050560f41b604482015260640161068f565b6000610f36612501565b6040516334f870a160e21b8152909150339063d3e1c28490610f6290889088908c908c90600401613d14565b600060405180830381600087803b158015610f7c57600080fd5b505af1158015610f90573d6000803e3d6000fd5b505050508381610fa09190613ea5565b610fa8612501565b1015610fdb5760405162461bcd60e51b8152602060048201526002602482015261594560f01b604482015260640161068f565b505b50509550959350505050565b6000806000866001600160801b03161161102a5760405162461bcd60e51b8152602060048201526002602482015261058560f41b604482015260640161068f565b60005463010000009004600290810b810b9086900b13156110725760405162461bcd60e51b8152602060048201526002602482015261484f60f01b604482015260640161068f565b505060408051610140810182526007546001600160a01b0381168252600160a01b9004600290810b810b900b6020820152600854918101919091526009546060820152600a546001600160801b038116608083015260ff600160801b82048116151560a084015261ffff600160881b8304811660c0850152600160981b8304811660e0850152600160a81b830416610100840152600160b81b9091041615156101208201526000908190611124613b3b565b6004548152600554602080830191909152600060408301526006546001600160a01b03166060830152600354600160b81b9004600290810b810b900b608083018190529083015161117491611627565b600290810b810b60a08301526020830151810b900b60c082015260808201516001600160801b031660e082015263ffffffff43166101008201525b8660020b826020015160020b1280156111ca57508060400151155b15610d725760008160a0015160021660020b131561133357602080830151600290810b900b6000908152600f9091526040812080548451919290918190611213908d90856125d4565b915091508b6001600160801b0316816001600160801b03161061123857600160408601525b806001600160801b03168c6001600160801b031611156112615761125c818d614132565b611264565b60005b9b506112708288613ea5565b96506112856001600160801b03821689613ea5565b975061129a6001600160801b03821684614195565b80855560058501805491945083916000906112b6908490613ea5565b92505081905550818460030160008282546112d19190613ea5565b909155505060028401541580156112e6575082155b1561132e5760008560a00151600116905061130a876020015187608001518361171a565b8060020b6000141561132c576020870151608087015161132c91600c91611761565b505b505050505b80604001511561134257610d72565b600061136283602001518360800151600c6117ca9092919063ffffffff16565b90506000611374828460800151611627565b90508860020b8260020b131561138b575087905060005b60808401516001600160801b031661144157600282810b900b602085018190526113b4906118c2565b6001600160a01b03168452600160a08501819052600090821660020b131561143057600282810b900b6000908152600d60209081526040909120845191850151909161140291839190611cdf565b80546080860151600160801b909104600f0b9061141f9082611d0f565b6001600160801b0316608087015250505b600281810b900b60a0840152611620565b6001600160801b038a1615611572576000611462858486606001518e612633565b80511515604086015260208101516003549192506000916114939190600160a01b900462ffffff16620f4240612a4d565b90508160400151886114a59190613ea5565b97508082602001516114b79190613ea5565b6114c19088613ea5565b965081604001518c6001600160801b031611156114ec5760408201516114e7908d614132565b6114ef565b60005b9b5061150d81600160801b88608001516001600160801b031661219e565b856020015161151c9190613ea5565b602080870191909152606080840151600290810b900b9188019190915260808301516001600160a01b0316875260a08084015115159088015260c0830151604088015260e090920151918601919091525061157a565b600160408401525b8160020b846020015160020b148015611599575060008160011660020b135b156115f557600282810b900b6000908152600d6020908152604090912084519185015190916115ca91839190611cdf565b608085015181546115e59190600160801b9004600f0b611d0f565b6001600160801b03166080860152505b8160020b846020015160020b141561161857600281810b900b60a0840152611620565b600060a08401525b50506111af565b6000611633828461422b565b60020b156116435750600061166e565b600e60006116518486613ebd565b600290810b810b8252602082019290925260400160002054900b90505b92915050565b600080600061169a866001600160801b0316600160601b876001600160a01b031661219e565b90506116b481600160601b876001600160a01b031661219e565b9150838211156116c2578391505b6116da82866001600160a01b0316600160601b612a4d565b905060006116f682876001600160a01b0316600160601b612a4d565b905080935080846001600160801b03161461171057600080fd5b5050935093915050565b80600e60006117298587613ebd565b60020b60020b815260200190815260200160002060006101000a81548162ffffff021916908360020b62ffffff160217905550505050565b61176b818361422b565b60020b1561177857600080fd5b60006117848284613ebd565b9050600281900b60081d600061179c6101008461422b565b600192830b830b60009081526020979097526040909620805460ff9097169290921b19909516905550505050565b6000806117d78385613ebd565b905060008460020b1280156117f757506117f1838561422b565b60020b15155b1561180a5780611806816141ec565b9150505b611815600182613d51565b9050600281900b60081d600061182d6101008461422b565b90506000611842600160ff841681901b614195565b600184810b900b600090815260208a9052604090205490191690508061188a578561186e8360ff6141c9565b61187b9060ff1686613d51565b6118859190613f31565b6118b6565b858261189583612aa4565b61189f91906141c9565b6118ac9060ff1686613d51565b6118b69190613f31565b98975050505050505050565b60008060008360020b126118d9578260020b6118e6565b8260020b6118e6906142ca565b90506118f5620d89e7196142b0565b60020b81111561192b5760405162461bcd60e51b81526020600482015260016024820152601560fa1b604482015260640161068f565b60006001821661193f57600160801b611951565b6ffffcb933bd6fad37aa2d162d1a5940015b70ffffffffffffffffffffffffffffffffff169050600282161561199057608061198b826ffff97272373d413259a46990580e213a61408d565b901c90505b60048216156119ba5760806119b5826ffff2e50f5f656932ef12357cf3c7fdcc61408d565b901c90505b60088216156119e45760806119df826fffe5caca7e10e4e61c3624eaa0941cd061408d565b901c90505b6010821615611a0e576080611a09826fffcb9843d60f6159c9db58835c92664461408d565b901c90505b6020821615611a38576080611a33826fff973b41fa98c081472e6896dfb254c061408d565b901c90505b6040821615611a62576080611a5d826fff2ea16466c96a3843ec78b326b5286161408d565b901c90505b6080821615611a8c576080611a87826ffe5dee046a99a2a811c461f1969c305361408d565b901c90505b610100821615611ab7576080611ab2826ffcbe86c7900a88aedcffc83b479aa3a461408d565b901c90505b610200821615611ae2576080611add826ff987a7253ac413176f2b074cf7815e5461408d565b901c90505b610400821615611b0d576080611b08826ff3392b0822b70005940c7a398e4b70f361408d565b901c90505b610800821615611b38576080611b33826fe7159475a2c29b7443b29c7fa6e889d961408d565b901c90505b611000821615611b63576080611b5e826fd097f3bdfd2022b8845ad8f792aa582561408d565b901c90505b612000821615611b8e576080611b89826fa9f746462d870fdf8a65dc1f90e061e561408d565b901c90505b614000821615611bb9576080611bb4826f70d869a156d2a1b890bb3df62baf32f761408d565b901c90505b618000821615611be4576080611bdf826f31be135f97d08fd981231505542fcfa661408d565b901c90505b62010000821615611c10576080611c0b826f09aa508b5b7a84e1c677de54f3e99bc961408d565b901c90505b62020000821615611c3b576080611c36826e5d6af8dedb81196699c329225ee60461408d565b901c90505b62040000821615611c65576080611c60826d2216e584f5fa1ea926041bedfe9861408d565b901c90505b62080000821615611c8d576080611c88826b048a170391f7dc42444e8fa261408d565b901c90505b60008460020b1315611ca857611ca581600019613f1d565b90505b611cb76401000000008261426e565b15611cc3576001611cc6565b60005b611cd79060ff16602083901c613ea5565b949350505050565b6001830154611cee9083614195565b60018401556002830154611d029082614195565b8360020181905550505050565b60008082600f0b1215611d3657611d2582614282565b611d2f9084614132565b905061166e565b611d408284613e1d565b9392505050565b6040805161010081018252600080825260208201819052918101829052606081018290526080810182905260a080820183905260c0820183905260e082019290925290850151611f28576040850151611dd557600185602001818151611dad9190613d51565b600290810b900b9052506020850151611dc5906118c2565b6001600160a01b03168552611f28565b611df2828660000151876040015188606001518960800151612bd7565b60408084018290526001600160801b039092166020840152908601511115611e805760018152600060a082015260408082015190860151611e339190614195565b60c082015260208101516060860151611e55916001600160801b031690613ea5565b60e08201526020850151600290810b900b606082015284516001600160a01b03166080820152611f28565b816001600160801b031681602001516001600160801b031610611ee15760018082526020860151611eb091613d51565b600290810b900b60608201819052611ec7906118c2565b6001600160a01b03166080820152600160a0820152611f28565b600185602001818151611ef49190613d51565b600290810b900b9052506020810151611f0d9083614132565b9150611f1c85602001516118c2565b6001600160a01b031685525b805115611f3457611cd7565b8360020b856020015160020b121561216a576000611f51856118c2565b90506000611fc16040518060c0016040528089608001516001600160801b0316815260200189600001516001600160a01b03168152602001896020015160020b8152602001846001600160a01b031681526020018860020b8152602001876001600160a01b031681525085612c6b565b9050806000015183602001818151611fd99190613e1d565b6001600160801b03169052508051611ff19085614132565b93508060200151836040018181516120099190613ea5565b90525060408101511561204a576001600160801b038416158352600286810b900b60608401526001600160a01b0382166080840152600160a0840152612163565b600061207588608001516001600160801b0316600160601b84608001516001600160a01b031661219e565b90506000806120908785608001518560008e60800151612bd7565b9150915081866020018181516120a69190613e1d565b6001600160801b03169052506040860180518291906120c6908390613ea5565b905250600186528281106121155760608401516120e4906001613d51565b600290810b900b606087018190526120fb906118c2565b6001600160a01b03166080870152600160a087015261215f565b606080850151600290810b900b908701526080808501516001600160a01b031690870152600060a087015261214a8184614195565b60c08701526001600160801b03821660e08701525b5050505b5050611cd7565b600081526020850151600290810b900b6060820152600160a082015284516001600160a01b03166080820152949350505050565b6000808060001985870985870292508281108382030391505080600014156121d857600084116121cd57600080fd5b508290049050611d40565b8084116121e457600080fd5b6000848688096003600187198101881697889004918202600290811880840282030280840282030280840282030280840282030280840282030292830290039091026000889003889004909101858311909403939093029303949094049190911702949350505050565b6000806000898961ffff1661ffff811061227857634e487b7160e01b600052603260045260246000fd5b60408051608081018252919092015463ffffffff8082168084526401000000008304600690810b810b900b6020850152600160581b83046001600160a01b031694840194909452600160f81b90910460ff1615156060830152909250891614156122e857888592509250506123f4565b8461ffff168461ffff16118015612310575061230560018661415a565b61ffff168961ffff16145b1561231d57839150612321565b8491505b8161232d8a6001613e48565b612337919061424d565b925061234581898989612ece565b8a8461ffff1661ffff811061236a57634e487b7160e01b600052603260045260246000fd5b825191018054602084015160408501516060909501511515600160f81b026001600160f81b036001600160a01b03909616600160581b02959095166affffffffffffffffffffff60069290920b66ffffffffffffff16640100000000026affffffffffffffffffffff1990931663ffffffff90951694909417919091171691909117919091179055505b97509795505050505050565b604080516001600160a01b038481166024830152604480830185905283518084039091018152606490920183526020820180516001600160e01b031663a9059cbb60e01b179052915160009283929087169161245c9190613cdb565b6000604051808303816000865af19150503d8060008114612499576040519150601f19603f3d011682016040523d82523d6000602084013e61249e565b606091505b50915091508180156124c85750805115806124c85750808060200190518101906124c89190613c50565b6124fa5760405162461bcd60e51b8152602060048201526003602482015262544e5360e81b604482015260640161068f565b5050505050565b600354604080513060248083019190915282518083039091018152604490910182526020810180516001600160e01b03166370a0823160e01b1790529051600092839283926001600160a01b039092169161255c9190613cdb565b600060405180830381855afa9150503d8060008114612597576040519150601f19603f3d011682016040523d82523d6000602084013e61259c565b606091505b50915091508180156125b057506020815110155b6125b957600080fd5b808060200190518101906125cd9190613cc3565b9250505090565b6000836001600160801b0381168310156125eb5750815b600061260e826001600160801b0316866001600160a01b0316600160601b612a4d565b905061262881866001600160a01b0316600160601b612a4d565b925050935093915050565b6040805161010081018252600080825260208201819052918101829052606081018290526080810182905260a080820183905260c0820183905260e0820192909252908501516128135760408501516126d1576001856020018181516126999190613d51565b600290810b900b90525084516126c1906001600160a01b03908116908516600160601b61219e565b6001600160a01b03168552612813565b6126ee828660000151876040015188606001518960800151612faf565b6001600160801b0316604080840182905260208401929092529086015111156127745760018152600060a0820152604080820151908601516127309190614195565b60c0820152602081015160608601516127499190613ea5565b60e08201526020850151600290810b900b606082015284516001600160a01b03166080820152612813565b816001600160801b03168160400151106127cc576001808252602086015161279b91613d51565b600290810b900b606082018190526127b2906118c2565b6001600160a01b03166080820152600160a0820152612813565b6001856020018181516127df9190613d51565b600290810b900b90525060408101516127f89083614132565b915061280785602001516118c2565b6001600160a01b031685525b80511561281f57611cd7565b8360020b856020015160020b121561216a57600061283c856118c2565b905060006128ac6040518060c0016040528089608001516001600160801b0316815260200189600001516001600160a01b03168152602001896020015160020b8152602001846001600160a01b031681526020018860020b8152602001876001600160a01b031681525085613026565b90508060000151836020018181516128c49190613ea5565b90525060208101516040840180516128dd908390613ea5565b90525060208101516001600160801b03851611156129095760208101516129049085614132565b61290c565b60005b935080604001511561294c576001600160801b038416158352600286810b900b60608401526001600160a01b0382166080840152600160a0840152612163565b600081608001516001600160a01b0316600160601b89608001516001600160801b0316612979919061408d565b6129839190613f1d565b905060008061299e8785608001518560008e60800151612faf565b9150915081866020018181516129b49190613ea5565b9052506040860180516001600160801b03831691906129d4908390613ea5565b905250600186526001600160801b03811683116129fb5760608401516120e4906001613d51565b606080850151600290810b900b908701526080808501516001600160a01b031690870152600060a0870152612a396001600160801b03821684614195565b60c08701525060e085015250611cd7915050565b6000612a5a84848461219e565b905060008280612a7a57634e487b7160e01b600052601260045260246000fd5b8486091115611d40576000198110612a9157600080fd5b80612a9b81614210565b95945050505050565b6000808211612ab257600080fd5b5060ff6001600160801b03821615612ad657612acf6080826141c9565b9050612ade565b608082901c91505b67ffffffffffffffff821615612b0057612af96040826141c9565b9050612b08565b604082901c91505b63ffffffff821615612b2657612b1f6020826141c9565b9050612b2e565b602082901c91505b61ffff821615612b4a57612b436010826141c9565b9050612b52565b601082901c91505b60ff821615612b6d57612b666008826141c9565b9050612b75565b600882901c91505b600f821615612b9057612b896004826141c9565b9050612b98565b600482901c91505b6003821615612bb357612bac6002826141c9565b9050612bbb565b600282901c91505b6001821615612bd257612bcf6001826141c9565b90505b919050565b6000806000612bfd846001600160801b0316886001600160a01b0316600160601b612a4d565b90506000858211612c0f576000612c19565b612c198683614195565b905080896001600160801b031610612c3657809350869250610fdd565b612c4a896001600160801b0316888361219e565b925060008311612c5b576000612c5d565b885b935050509550959350505050565b6040805160a0810182526000808252602082018190529181018290526060810182905260808101919091526000612cb68460000151856020015186606001518760a0015160016133ca565b9050826001600160801b03168111612d0a576001600160801b0381168252835160408501516080860151606087015160a0880151612cf994939291906000613451565b602083015260016040830152612ec7565b600084602001516001600160a01b0316612d54856001600160801b0316600160601b8860a001516001600160a01b0316612d449190614195565b88516001600160801b031661219e565b612d5e9190613ea5565b9050600080612d6c8361350a565b9150915060008160020b8360020b1415612d9157600283810b900b6060870152612dd2565b612d9a826118c2565b6001600160a01b031660808701819052841015612dc257600283810b900b6060870152612dd2565b50600281810b900b606086015260015b876080015160020b866060015160020b12612e085760018860800151612df891906140ac565b600290810b900b60608701525060005b876040015160020b866060015160020b1415612e4657600080875260208088018290528901516001600160a01b031660808801526040870152612ec2565b80612e6757612e5886606001516118c2565b6001600160a01b031660808701525b612e858860000151896020015188608001518b60a0015160016133ca565b6001600160801b03168652875160408901516060880151608089015160a08c0151612eb594939291906000613451565b6020870152600060408701525b505050505b5092915050565b6040805160808101825260008082526020820181905291810182905260608101919091528451600090612f0190866141ac565b63ffffffff16905060405180608001604052808663ffffffff168152602001828660020b612f2f919061403d565b8860200151612f3e9190613dd8565b60060b81526020016000856001600160801b031611612f5e576001612f60565b845b612f83906001600160801b031666ffffffffffffff60801b608086901b16613ef7565b8860400151612f929190613e65565b6001600160a01b0316815260016020909101529695505050505050565b6000806000612fd5846001600160801b0316886001600160a01b0316600160601b612a4d565b9050600085821015612fe8576000612ff2565b612ff28683614195565b905086896001600160801b03161061300f57869250809350610fdd565b889250612c5d836001600160801b03168289612a4d565b6040805160a081018252600080825260208201819052918101829052606081018290526080810191909152600061307684600001518560400151866080015187606001518860a001516000613451565b9050826001600160801b031681116130bf57808260200181815250506130b08460000151856020015186606001518760a0015160016133ca565b8252506001604082015261166e565b60006130ea85602001516001600160a01b0316600160601b8760a001516001600160a01b0316612a4d565b9050600061311c856001600160801b031687602001516001600160a01b031688600001516001600160801b031661219e565b90506000613141866001600160801b03168489600001516001600160801b0316612a4d565b9050600061315382600160601b613ea5565b90508281116131985784866020018181525050613184886000015189602001518a606001518b60a0015160016133ca565b86525050600160408501525061166e915050565b6131a28382614195565b9050600081600160601b8a602001516001600160a01b03166131c4919061408d565b6131ce9190613f1d565b905088606001516001600160a01b03168110613221578587602001818152505061320c89600001518a602001518b606001518c60a0015160016133ca565b87525050600160408601525061166e92505050565b88602001516001600160a01b0316811161327657505050604080870151600290810b900b60608601526020808801516001600160a01b031660808701526000908601819052808652908501525061166e915050565b61327f81613801565b600290810b810b6060890181905260808b0151820b910b126132c3578587602001818152505061320c89600001518a602001518b606001518c60a0015160016133ca565b886040015160020b876060015160020b1361331957505050604080870151600290810b900b60608601526020808801516001600160a01b031660808701526000908601819052808652908501525061166e915050565b61332687606001516118c2565b6001600160a01b03166080880181905260006040808a018290528b51908c015160608b015160a08e015161335f95939492939192613451565b87602001818152505088602001516001600160a01b031687608001516001600160a01b0316101561339e5760208901516001600160a01b031660808801525b6133bc89600001518a6020015189608001518c60a0015160016133ca565b875250505050505092915050565b6000806133d78686614175565b905060006133e9600160601b86614175565b90508361341d57613416886001600160801b0316836001600160a01b0316836001600160a01b031661219e565b9250613446565b613443886001600160801b0316836001600160a01b0316836001600160a01b0316612a4d565b92505b505095945050505050565b60008061347161346188886140ac565b61346c906001613d51565b6118c2565b9050600061348361346c886001613d51565b905060006134918684614175565b9050600061349f8884614175565b9050856134d3576134cc8b6001600160801b0316836001600160a01b0316836001600160a01b031661219e565b94506134fc565b6134f98b6001600160801b0316836001600160a01b0316836001600160a01b0316612a4d565b94505b505050509695505050505050565b6000806401000276a36001600160a01b03841610801590613547575073fffd8963efd1fc6a506488495d951d5263988d266001600160a01b038416105b6135775760405162461bcd60e51b81526020600482015260016024820152602960f91b604482015260640161068f565b640100000000600160c01b03602084901b166001600160801b03811160071b81811c67ffffffffffffffff811160061b90811c63ffffffff811160051b90811c61ffff811160041b90811c60ff8111600390811b91821c600f811160021b90811c918211600190811b92831c9790881196179094179092171790911717176080811061361257613608607f82614195565b83901c9150613623565b61361d81607f614195565b83901b91505b600060406136326080846140f3565b901b9050828302607f1c92508260801c80603f1b8217915083811c935050828302607f1c92508260801c80603e1b8217915083811c935050828302607f1c92508260801c80603d1b8217915083811c935050828302607f1c92508260801c80603c1b8217915083811c935050828302607f1c92508260801c80603b1b8217915083811c935050828302607f1c92508260801c80603a1b8217915083811c935050828302607f1c92508260801c8060391b8217915083811c935050828302607f1c92508260801c8060381b8217915083811c935050828302607f1c92508260801c8060371b8217915083811c935050828302607f1c92508260801c8060361b8217915083811c935050828302607f1c92508260801c8060351b8217915083811c935050828302607f1c92508260801c8060341b8217915083811c935050828302607f1c92508260801c8060331b8217915083811c935050828302607f1c92508260801c8060321b8217915050600081693627a301d71055774c856137b59190613fba565b905060806137d36f028f6481ab7f045a5af012a19d003aaa836140f3565b901d965060806137f3826fdb2df09e81959a81455e260799a0632f613d97565b901d95505050505050915091565b60006401000276a36001600160a01b0383161080159061383d575073fffd8963efd1fc6a506488495d951d5263988d266001600160a01b038316105b61386d5760405162461bcd60e51b81526020600482015260016024820152602960f91b604482015260640161068f565b640100000000600160c01b03602083901b166001600160801b03811160071b81811c67ffffffffffffffff811160061b90811c63ffffffff811160051b90811c61ffff811160041b90811c60ff8111600390811b91821c600f811160021b90811c918211600190811b92831c97908811961790941790921717909117171760808110613908576138fe607f82614195565b83901c9150613919565b61391381607f614195565b83901b91505b600060406139286080846140f3565b901b9050828302607f1c92508260801c80603f1b8217915083811c935050828302607f1c92508260801c80603e1b8217915083811c935050828302607f1c92508260801c80603d1b8217915083811c935050828302607f1c92508260801c80603c1b8217915083811c935050828302607f1c92508260801c80603b1b8217915083811c935050828302607f1c92508260801c80603a1b8217915083811c935050828302607f1c92508260801c8060391b8217915083811c935050828302607f1c92508260801c8060381b8217915083811c935050828302607f1c92508260801c8060371b8217915083811c935050828302607f1c92508260801c8060361b8217915083811c935050828302607f1c92508260801c8060351b8217915083811c935050828302607f1c92508260801c8060341b8217915083811c935050828302607f1c92508260801c8060331b8217915083811c935050828302607f1c92508260801c8060321b8217915050600081693627a301d71055774c85613aab9190613fba565b905060006080613acb6f028f6481ab7f045a5af012a19d003aaa846140f3565b901d905060006080613aed846fdb2df09e81959a81455e260799a0632f613d97565b901d90508060020b8260020b14613b2c57886001600160a01b0316613b11826118c2565b6001600160a01b03161115613b265781613b2e565b80613b2e565b815b9998505050505050505050565b6040805161012081018252600080825260208201819052918101829052606081018290526080810182905260a0810182905260c0810182905260e0810182905261010081019190915290565b8035600281900b8114612bd257600080fd5b600080600080600060808688031215613bb0578081fd5b85356001600160a01b0381168114613bc6578182fd5b945060208601356001600160801b0381168114613be1578182fd5b9350613bef60408701613b87565b9250606086013567ffffffffffffffff80821115613c0b578283fd5b818801915088601f830112613c1e578283fd5b813581811115613c2c578384fd5b896020828501011115613c3d578384fd5b9699959850939650602001949392505050565b600060208284031215613c61578081fd5b81518015158114611d40578182fd5b600060208284031215613c81578081fd5b5035919050565b600060208284031215613c99578081fd5b81358060010b8114611d40578182fd5b600060208284031215613cba578081fd5b611d4082613b87565b600060208284031215613cd4578081fd5b5051919050565b60008251815b81811015613cfb5760208186018101518583015201613ce1565b81811115613d095782828501525b509190910192915050565b84815283602082015260606040820152816060820152818360808301376000818301608090810191909152601f909201601f191601019392505050565b60008160020b8360020b82821282627fffff03821381151615613d7657613d766142e4565b82627fffff19038212811615613d8e57613d8e6142e4565b50019392505050565b600080821280156001600160ff1b0384900385131615613db957613db96142e4565b600160ff1b8390038412811615613dd257613dd26142e4565b50500190565b60008160060b8360060b82821282667fffffffffffff03821381151615613e0157613e016142e4565b82667fffffffffffff19038212811615613d8e57613d8e6142e4565b60006001600160801b03808316818516808303821115613e3f57613e3f6142e4565b01949350505050565b600061ffff808316818516808303821115613e3f57613e3f6142e4565b60006001600160a01b03828116848216808303821115613e3f57613e3f6142e4565b600062ffffff808316818516808303821115613e3f57613e3f6142e4565b60008219821115613eb857613eb86142e4565b500190565b60008160020b8360020b80613ed457613ed46142fa565b627fffff19821460001982141615613eee57613eee6142e4565b90059392505050565b60006001600160a01b0383811680613f1157613f116142fa565b92169190910492915050565b600082613f2c57613f2c6142fa565b500490565b60008160020b8360020b627fffff83821384841383830485118282161615613f5b57613f5b6142e4565b627fffff1986851282811687830587121615613f7957613f796142e4565b878712925085820587128484161615613f9457613f946142e4565b85850587128184161615613faa57613faa6142e4565b5050509290910295945050505050565b60006001600160ff1b0381841382841380821686840486111615613fe057613fe06142e4565b600160ff1b84871282811687830589121615613ffe57613ffe6142e4565b858712925087820587128484161615614019576140196142e4565b8785058712818416161561402f5761402f6142e4565b505050929093029392505050565b60008160060b8360060b667fffffffffffff8382138484138383048511828216161561406b5761406b6142e4565b667fffffffffffff1986851282811687830587121615613f7957613f796142e4565b60008160001904831182151516156140a7576140a76142e4565b500290565b60008160020b8360020b82811281627fffff19018312811516156140d2576140d26142e4565b81627fffff0183138116156140e9576140e96142e4565b5090039392505050565b60008083128015600160ff1b850184121615614111576141116142e4565b6001600160ff1b038401831381161561412c5761412c6142e4565b50500390565b60006001600160801b0383811690831681811015614152576141526142e4565b039392505050565b600061ffff83811690831681811015614152576141526142e4565b60006001600160a01b0383811690831681811015614152576141526142e4565b6000828210156141a7576141a76142e4565b500390565b600063ffffffff83811690831681811015614152576141526142e4565b600060ff821660ff8416808210156141e3576141e36142e4565b90039392505050565b60008160020b627fffff19811415614206576142066142e4565b6000190192915050565b6000600019821415614224576142246142e4565b5060010190565b60008260020b8061423e5761423e6142fa565b808360020b0791505092915050565b600061ffff80841680614262576142626142fa565b92169190910692915050565b60008261427d5761427d6142fa565b500690565b600081600f0b6f7fffffffffffffffffffffffffffffff198114156142a9576142a96142e4565b9003919050565b60008160020b627fffff198114156142a9576142a96142e4565b6000600160ff1b8214156142e0576142e06142e4565b0390565b634e487b7160e01b600052601160045260246000fd5b634e487b7160e01b600052601260045260246000fdfea26469706673582212201517764c802fa8e3f4afba93a68ee389bafff834c5a3a85671a9918f7f09464e64736f6c63430008040033",
  "linkReferences": {},
  "deployedLinkReferences": {}
}